:10000000C8380020D55C0000E1AE0000D15C0000E3
:1000100000000000000000000000000000000000E0
:10002000000000000000000000000000D15C0000A3
:100030000000000000000000D15C0000D15C000066
:10004000D15C0000D15C0000D15C0000D15C0000FC
:10005000F9AE0000D15C0000D15C0000D1BF00000F
:10006000D15C0000E5AD000049AE0000D15C0000AD
:10007000D15C0000D15C0000D15C0000D15C0000CC
:10008000D15C0000D15C0000D15C0000D15C0000BC
:10009000D15C0000D15C0000D15C0000D15C0000AC
:1000A000D15C0000D15C0000D15C0000D15C00009C
:1000B00000000000D15C000010B5064C2378002B36
:1000C00007D1054B002B02D0044800E000BF0123FC
:1000D000237010BD3002002000000000A4240100A5
:1000E000044B10B5002B03D00349044800E000BFC7
:1000F00010BDC0460000000034020020A42401000E
:1001000010B50D4A0B8801889B1889180C7A1A7A49
:10011000A24205D10933180009310FF09BFE10BD32
:100120000120022A05D0022CF9D08242F7D10238F0
:10013000F5E74042F3E7C0463813002003004021B2
:100140000A4A807D1278400152028018084A8018BD
:100150001A7D8A431A751B681B011A094283012202
:100160001B0D8382034B1B681A71704734130020E8
:10017000100B0020301300200C4A30B5002314006F
:10018000156885420CD155798D4209D1084A094834
:100190001370DA00A418084A5B021460181830BD06
:1001A00001330832042BEBD10020F8E710130020B4
:1001B00034130020100B0020301300200C4BCAB267
:1001C00070B5D400E4182379002B05D10023012059
:1001D0002371A371404270BD064903685202DD6875
:1001E000521801232168A8470028F4DBEEE7C04637
:1001F00010130020100B0020F8B5030004220E4C51
:100200003C331D7821780D4E0131013A032900D984
:100210000021CB009B191F79002F02D05F79AF42DC
:10022000F2D19F79002F01D0002AEDDA044A217023
:100230001360FFF7C3FFF8BD341300201013002034
:100240003013002070B506000D003C3604003178F4
:100250002800FFF791FF00280ED12000FFF7CCFF08
:10026000431C08D1064B32781B681D605A7140232D
:10027000627D1343637570BD01204042FBE7C046B9
:100280003013002070B5514B05001C78504B6402B0
:10029000E41822684F4B9A420ED14F4B62689A4243
:1002A0000AD1236DA16C0381636D43811023037513
:1002B0002800FFF7C7FF64E0FF235B00E25A474BCB
:1002C0009A4210D18022237BE17A1B02444E920095
:1002D0000B4393420AD02B00002231331A7033684B
:1002E0001B68934260D00B2040424AE02B00607BA9
:1002F0002C3318700EF0B6FF2B002D3318702369C5
:100300001A028023120C5B019A42E4D22B001211D4
:100310002F331A70217C013B1970E38A002B00D126
:10032000636A2B624B4331689A180968E38959184C
:10033000A961511869629A18237DE17C1B020B4365
:1003400000D1236A9B1A274A034193421ADC264AAA
:100350009342C0DD802021002A8E4000520A5202C2
:10036000024324312A860133EB610223AB628B7C8A
:10037000462BB0D1CB7C412BADD10B7D0020542B33
:10038000A9D170BD290002223131087802430A70D8
:10039000E26AFF2A9FD8218D00299CD128002100E4
:1003A000303040310270DEE72300FF34BF33FF33CB
:1003B000FF341A79002A04D059891A890904114393
:1003C00076E71033A342F4D18DE7C0463413002002
:1003D000100B0020454649205041525455AA0000B8
:1003E00030130020F4FF0000F40F000030B50400CB
:1003F0001800591A88420FD0002807DD13780132FF
:1004000023701B0A637001380234F3E703005D1E9A
:10041000AB415B429BB2F3E730BD03001A002D32C3
:100420001278881E9040596A40187047313003781E
:1004300088009B0700D44800704710B50400FFF700
:10044000F5FFA369400AC01810BD10B50400FFF7FE
:10045000F4FF01002000FFF7F5FE431C06D13F2208
:10046000637D93431A0001231343637510BD10B5D8
:10047000816A0400FFF7E9FF431C06D13F22637D38
:1004800093431A0002231343637510BDF8B5042586
:100490000B000A69097D8468294202D0A943013A08
:1004A000197505002D352D78610AE940520A0F00B3
:1004B000EA40914207D21A6808215A6000221D7D45
:1004C0001A618D431D75BA4203D11C6100231800C7
:1004D000F8BD5D68D9792D010909BE1A2D09B1420F
:1004E00008D3C91B751952182D0112072D092A436B
:1004F0005A60EAE702002C3214786402A2B24C1C63
:1005000054431A694919A4180422640A64021C613C
:100510001C7D596022431A7500231207D7D4FFF7B8
:1005200094FF0300D3E7000070B505001400FFF747
:100530007DFF0D4BC0051B78C00D5B0231351B18CC
:100540002A780A481B18D20706D51C800122084BBE
:1005500000201B681A7170BD1A682101120F090969
:1005600012070A431A60F1E734130020100B002031
:100570003013002010B50400FFF758FF2200134B82
:10058000C0051B78313212495B02C00D12781B186E
:100590005B18D2070CD518889A1C0E4B98420DD9BF
:1005A0000D484A40D20510D18023DB0518430CE0EA
:1005B0001A0001CA030118099033F2D8E36998427E
:1005C00001D80128EDD11520404210BD3413002080
:1005D000100B0020F7FF0000FFFFFF0FF7B50D0025
:1005E00000244B681F4F1E0101903609310001980D
:1005F000FFF7C0FF00280DDB02011309002A2ED0EF
:10060000194A93420DD908232A7D13432B75002CD8
:1006100023D100200F22EB79240113401C43EC71FD
:10062000FEBD002C13D104211E002A7D6B608A437D
:100630002A7501344023000E03420ED13100019887
:10064000FFF7FBFE3B681B689842CFD005E0013600
:10065000B34202D10134102CECD1013CD9E7152072
:100660004042DDE730130020F7FFFF0F70B50500B3
:100670001800934217DC1A00AA18AA4216D00C7868
:100680002B782600613E0231192E01D8203CE4B2BD
:100690001E00613E192E01D8203BDBB201359C4281
:1006A000EBD0002008E001204042E5E7431C03D1E5
:1006B000087843425841404270BD70B505001000B3
:1006C0008A18013A1478202C03D101380028F8D177
:1006D00070BD0024A042FBD00A5D002B05D016009F
:1006E000413E192E01D82032D2B22A550134F1E709
:1006F0000100030000200B314208C00110431A78AA
:1007000001338018C0B28B42F6D1704731230B758C
:1007100003003C331B784B75030031331B789B0778
:1007200004D5303003780B6011230B757047F7B593
:100730000B7807000E000192E52B00D126E1002B7B
:100740000CD1037C7F2B04D8837D002B04D1FF3395
:10075000BB750F204042C5E00133F9E7CA7A3F215B
:100760000A400F2A00D08DE01D0001318D43023A6E
:10077000013D5543427B521B00920B4251D0019BDD
:10078000002B44D000234373737BFB74BB68711C44
:100790005C19019B002B56D03A7B0023AA4200DD56
:1007A000531B00220878002825D0002B02D020708F
:1007B000013B013401320231052AF3D11A20310004
:1007C00084460E31B4440878002814D0002B02D09F
:1007D0002070013B01340231501C8C452AD1317FFD
:1007E00000292ED0002B02D02170013B0134B17FB3
:1007F000002921D102327B7B9A187A73002D00D117
:10080000FF3530784006C00F0230BD746AE0009BAF
:10081000002B02D102200025F7E7009B0D2BB3DD52
:10082000F8E7C27C737B9A42F4D1837C0D3BAB42E8
:10083000F0D1ABE70200C6E7002B00D021700332F5
:10084000D9E70200D7E705232000009AFFF70EFF43
:10085000002814DD3100009B24181B1A009320008F
:100860000623009A0E31FFF701FF002807DD310053
:10087000009B1C311A1A02232018FFF7F7FE0028EC
:10088000BCD1C7E7837CFF2B22D0019B0822BC6828
:10089000002B35D0337B310013402000FFF70DFFD4
:1008A0002E2322181370541C31001022337B0500B4
:1008B0001340200008310D3AFFF7FFFE031E00D160
:1008C000013B002001355AB2ED18A0547D7309E0B8
:1008D0003000FFF70DFFFB7C8342D6D1019B002B3C
:1008E00001D10020FEBD797B3B7B0020BA68994294
:1008F00001D85054F6E7D0543B7B0C2BF1D8C4E719
:1009000008239C463000797BB4440378009320236D
:10091000002908D023781D00613D192D17D8203BF0
:10092000DBB201390134009DAB422BD1013A0130D9
:10093000002AEAD1844517D1002906D023782E2B2E
:1009400014D1013901340332DFE70322DDE72E2B16
:10095000E7D1082AE5D00E3B072AE4D1631E1B78B5
:100960002E2BDED02023DEE70029BAD03000FFF79F
:10097000BFFEFB7D834200D04CE740233A7C13430B
:100980003B7447E7042A00DD44E7EFE7012042E734
:1009900008220B7D70B5934304000D000B759B0678
:1009A00010D503002F331978436A591A7F2000238A
:1009B000227CA3740240A37522742000EB82FFF70F
:1009C00041FC70BD09686960002903D0FFF725FD6F
:1009D0000100EBE715204042F3E770B50600087D03
:1009E000CC7D83060D000134DA0F002B0BDA3300C7
:1009F0002F331978A14229DD736A591A3000611822
:100A0000FFF720FC11E04B68190133002C331B78F1
:100A10000909A34215DCEB791B090AD10007C40FB1
:100A2000002813DB3000FFF710FD0023EC75AB75D9
:100A300070BD14000131013B08011B07000903438D
:100A40006B603000FFF7E9FC0100D7E70F20404260
:100A5000EEE7010030B58B68007B00281AD01C78C7
:100A60005C2C01D02F2C04D101330138F5E71000A4
:100A7000F3E702008B60013A002A05D05D7801336C
:100A80005C2D01D02F2DF6D10A73801A012801D1D7
:100A90002E2CECD030BD0000F0B50D0085B00392D7
:100AA000437B876800910B222021280002930FF0DE
:100AB00032F83B78202B03D11420404205B0F0BD22
:100AC000E52B00D189E000247A1C2E2B09D1029B52
:100AD000013B0293002B00D190E07B7801241700AA
:100AE000F2E708223B0001921E7801372E2E45D1F5
:100AF000019A009B94462A00634408320092934274
:100B000034D920232B726B72AB721F3B1C4306231C
:100B10009C43033B0193029B013B0293002B23D197
:100B2000630703D5A3075DD520231C4301232600BB
:100B30001E401C4212D0039BA91D092B04D9039B04
:100B4000291D632B00D8691D7E230B702C7A0A2285
:100B5000039801310EF0A6FF2C72340018232120D7
:100B600023402B732040A9E73B00BDE76307CED5A8
:100B7000A30701D52023C9E70823C7E71F2E9BD968
:100B8000202E02D101231C43C5E73300613B192B02
:100B90000FD80423203EF6B21C43019B002BF1D05A
:100BA000009B1E70019B013B0193009B013300934E
:100BB000B1E73300413B192B01D80223ECE73100A8
:100BC0000F480FF06EF90028E7D00E4B984200D383
:100BD00072E701235F261C43DFE708230526002474
:100BE0000193DDE7019A009B94462A006344083292
:100BF000934201D9102398E7082396E740205DE748
:100C0000F8000100020101007FB50D0069460400F3
:100C10001600FFF741FF002810DB09D1A8746846D1
:100C2000FFF766FD2900E0752000FFF7B1FE05E043
:100C3000AE74012EF3DD01231840F0D104B070BD75
:100C4000F0B585B001930B7D05000C0016009B06E6
:100C50003DD503002F3318786B6A181A2B00E77DF7
:100C60003C333F1819783800FFF786FA390000281E
:100C700000D1E8E08D4B1A788D4B52029619F61888
:100C800031002800019AFFF752FD0090002874DB24
:100C90002F7C002800D0E0E00E22F37A134201D02E
:100CA000BA0607D5019A002A29D01022134214D07F
:100CB000174218D1A37D20360133A3757C4B7340B6
:100CC000DB05DDD121002800FFF787FE54E04B68EB
:100CD00019010909FFF7A1FBC0E708221342E7D079
:100CE00018231F42E6D11C236A7C013A5A43714BF8
:100CF0009B1862685A60A27D9A75E27DDA756E4B28
:100D00001E60207D738B8207A3802380920FB18A9F
:100D1000029203229043029AE180104361801943BA
:100D2000039048424841830013433F22C0000343DD
:100D3000039813409043102203432375F07A104226
:100D400026D013432375002903D121002800FFF783
:100D5000DDFC019B002B13D1AA686B7B2800D31804
:100D6000AB60FFF776FEC0B26873002808D001229E
:100D700021002800FFF748FF0090009805B0F0BD63
:100D8000FB060BD507233B40032B14D1112306E0B0
:100D90000823184206D010331F42F3D00F235B42C2
:100DA0000093EAE7019A002A02D12A7B002AF5D1B2
:100DB0001F42E7D1F2E704233A001A401F4246D00F
:100DC000227DD006C10F03985307170701919106A2
:100DD000DB0FFF0FC90F800600D5012103208740DC
:100DE0009B0003431F43019B490118013F233843E4
:100DF0009A4301430A432275AB7CFF2B03D1A268BF
:100E00006260228AE282328B6282F28A2282FF2B25
:100E10001ED10722F369A3602B7C1340012BACD1B8
:100E200021680029A9D0227D14332B7537339A43CA
:100E3000134323750023280023606360A360A96027
:100E4000FFF7FBFA01002800FFF7FCF994E72261A5
:100E50001A4B1B681B68A361DBE704230421AA7DEE
:100E60003B400F420ED0009B032B00D022E763686B
:100E7000A360E38A2382114B1B681B68A361531C88
:100E8000AB7517E779B2002900DA13E70099012959
:100E9000F6D1002AEBD00D235343697B8B42EEDB66
:100EA00080235B421F432F74E9E7C04634130020C0
:100EB000100B0020B8090020080B00203013002080
:100EC0008B7D10B55A01102B02D1FFF786FD10BDA6
:100ED0000123FFF7B5FEFAE770B58A7C04000D0028
:100EE000002A0CD04021037C0B4213D1607B0D21E2
:100EF0000C300DF0EBFF402382B21343A374237D2B
:100F000002332375A37D002B0FD12B7D9B0634D597
:100F1000122037E0FF2A34D08B43037429000132BA
:100F2000FFF772FE0028E1DA70BDFF2B1DD1164BD2
:100F30001B681B68AB6101239A4211DB287DE97DA8
:100F4000800617D520002F300078411A022907DCCF
:100F5000A87D1B1A0F33022900D110339A42D4DA2C
:100F60002000A969FFF76EF9DEE7A9686960298AA0
:100F7000E982E1E720002C30E6E72000FFF777FA6E
:100F8000D2E714204042CFE730130020F7B58B7D25
:100F900004000193019A0E005B01102A06D1310072
:100FA0002000FFF71AFD00900098FEBD724A877C72
:100FB00015786D02ED18714BED182B78E52B02D0EA
:100FC000002B00D0D1E001226D4B1B681A71002F5D
:100FD00032D00F23EB7200232F702B736B83E37DD2
:100FE00005216B7340239F43013F333B7B43A26842
:100FF000681CD2180092627BD31A009AFFF7F6F9A8
:1010000003002800009A062105320E30FFF7EEF9A2
:1010100003002800009A02210B321C30FFF7E6F98A
:10102000019B203501330193544B6B40DB05C4D148
:10103000019BA774B375B2E7B27C29002000FFF7CB
:101040002BFD402302001A400092184200D090E08D
:101050002800203B1322EB7239000D300EF05BFDAF
:1010600008F060FAE88200142883327D3B00920683
:1010700006D42200303233681278934200D13B000C
:101080001C2700213A00636030000EF044FD23006D
:101090000F223C331B7820007375019BB375384BCE
:1010A0001B681B68B361337D93431A000D23134300
:1010B0003375A268637BD318A360FFF7CAFCC0B284
:1010C000237D607300280BD0023B23751023327DF3
:1010D0002000134333753023EB72FFF7C8F962E742
:1010E000062B3CD13075667C264B711E4F43D819B8
:1010F0004388AB82234BFB5A87696B8383683A0032
:10110000EB61438A2B83038AEB82FF231A409446C8
:10111000626A007D13406246D31A820619D5200008
:101120002F300078C3181C204143164A5218D3753B
:10113000137DDB0601D53023EB720122104B390001
:101140001B6820001A710823E6732375FFF77AF8ED
:1011500029E720002C30007801380340E3E7237CA6
:10116000DB0600D420E70223AFE716235B4200939F
:101170001AE71423FAE7C04634130020100B0020AE
:1011800030130020B8090020F0B5037D040087B0BB
:10119000012B50D903681B6998470500431C4AD0AE
:1011A000607D402302001A40002D03DA002A14D18A
:1011B000258232E2002A19D09843BF4B60751A7815
:1011C000BE4B5202D218BE4B200019682368096832
:1011D0009D680123A847051E2DDA7F22637D934376
:1011E0006375B74B803A1B681A60E1E7E37B8006C2
:1011F000013B01931C23019FB24E5F43800E0138D7
:10120000BF19042814D80DF057FE05000B009E00EE
:10121000AF00460139002000FFF7E0F9050007E0C4
:10122000A56A29002000FFF7A5F9002805DA0500C6
:101230006B1C00D016E107B0F0BD030169D1290095
:10124000A14A2000FFF770F91C22019B0C265A438B
:1012500013009C4810331B181979B14319711358A6
:101260008118002B46D10E7D403333430B75DB06CE
:1012700015504D60DD0F002B1BDA3F22637DA16A04
:1012800093431A0004231343637523002C331D7802
:101290002000013DEDB2A573FFF7BFF81C22019BB2
:1012A0002D185A43874B20009B189D60FEF7A4FF22
:1012B000B4E73F22637D93436375227D901E162819
:1012C000B9D80DF0F9FDF500030103011E011E015F
:1012D000A902A90223012301230127023A020A03DA
:1012E0000E031F036502650250023F02EE02EE028A
:1012F000470380024968200009010909FFF7A5F8A2
:101300003F22637D050093431A0003231343637553
:101310008EE7E3690135AB420ED12200042331325E
:101320001178194200D028E30B4313700223A36203
:101330002000FFF79CF871E74023060EA5623342B8
:1013400000D16EE7F4E7019A20005343F618736862
:10135000A26A19010909FFF7E7F8337D0500DB06EA
:101360008BD4A36A736063E7019A5343F3189B68B5
:101370000393A37B029323002C331B78029A013B37
:10138000DBB29A4209D180224B4B002118784B4B9B
:101390004002C01892000EF0BEFB2200484B3C32C7
:1013A0001B68127803995A71012219601A71029B05
:1013B000002B5FD11C263F21019B029A5E43414BCB
:1013C0009B199A60627D8A4362751A7D520646D5E2
:1013D000394B1D78394B6D02ED1808F0A3F8394BE5
:1013E0006A1CF6582E2320212B7002900592681C4F
:1013F0000A220EF090FB029A330CEA8212142A831E
:1014000003921022AB822E23EA72681C6E83202185
:101410006668063AC37720300EF07DFB10212E223D
:101420000298330CE8860398AB866E8728872B35A5
:10143000297005994B1CDA77237D022B05D03F23B9
:10144000627D9A433A3B134363751C22019B5A43C6
:101450001C4B9B1820009969FEF7F4FEDEE6A27D86
:10146000002AF7D13F22637D93436375002D00DB93
:1014700023E79DE6104B20001978FEF79FFE1C2302
:10148000019A05005343F618039B013BB360029B8E
:10149000013BA373CCE63800FEF750FE3F22637D8C
:1014A00039009343200063753E3AFFF7ADFBB5E684
:1014B0003800FEF743FE7BE634130020100B0020BB
:1014C00030130020B8090020FFFFFF0F0023390070
:1014D0001A002000FFF7B4FB0500431C00D1AAE668
:1014E00003000F3300D063E6237C5A0700D15FE688
:1014F0005B0700D55CE639002000FFF7EDFC050036
:10150000E0E039002000FFF741FDF8E71C230199D6
:101510004B43BA49CB18197D490700D58EE021000D
:101520002C3109781B6901395B0A19400291092A9B
:101530000AD10A2380272375BF00A368DB19A360A3
:10154000A389DB1BA38133E01C25019B20005D43A5
:10155000AA4B5D196B6819010909FEF75EFF029B32
:10156000C7182B693800DE0523003C331978F60DC7
:101570000393FEF701FE002800D185E08023A789B0
:101580009B009B1B9F4200D91F009D4B227D18781A
:101590009C4B400286199C483618A06800283FD111
:1015A0009A49A0810E600B2A02D11B680A3A1A716F
:1015B000238A019ADB1923821C2353438F4AD318B1
:1015C0001A69BF181F61227DF905C90D0B2A03D1C5
:1015D0009A68974200D99F608A4B1B68002950D1B6
:1015E0009971029B0133029323002C331B78029ADA
:1015F00093420FD81C23019A5343804AD318DA79B7
:1016000010092FD1A289002A18D1187D0432024373
:101610001A750291A389002B96D1012323750AE63E
:101620000A2A04D13A0031000EF059FA85E7012266
:101630001B6801001A7130003A00F5E71C23019A7B
:1016400053436E4AD3181A7D120706D5237D0A2B01
:10165000E3D02000FEF70BFF51E720005968FEF7AA
:10166000F4FE4CE70F25013800012A400243DA71ED
:101670005A6810011030120F0009120702435A6015
:10168000C7E7E27B9A71C5E7002E3ED18026A38989
:10169000B600B34224D3A268002A25D0217D236856
:1016A0000B2913D120001B699847051E0ADB23680C
:1016B0003900DD6820000123A268A8473700051E15
:1016C00000DB3AE76B1C00D072E5B4E509219D68A8
:1016D0002175012339002000A847051EF2DBAAE589
:1016E0002A69AB689A4210D3237D0B2B0DD12000C1
:1016F000FEF782FD0500431C00D059E5414B039ADB
:101700001B6812781F605A7195E539002000FEF7BA
:1017100099FDF4E639002000FFF7D2FB051E0ADA36
:10172000431C00D187E5002302003B750F3200D037
:101730003EE5238271E7637BFBE739002000FEF77B
:10174000A5FEDCE6210000232C4A3C31107D01334C
:10175000400603D5567D0878864214D01C320C2BE7
:10176000F4D11323237522000021294B3C32187930
:10177000002803D016785879864220D001310833EA
:101780000429F4D114E5E373122391692375BDE7AD
:101790003800FEF7D3FC060007F0C4FE1C22019BB4
:1017A000F0825A43154B001430839B189B68F361F9
:1017B000237D122B00D1FBE400233B75D1E72000F1
:1017C000FEF7FCFC9BE60E4B0F4A1B785B029B1856
:1017D000198C104A914200D0D3E062685E8F91B2BA
:1017E000100C8E4202D19E8E8642E5D0012259878E
:1017F0009886044B1B681A71DEE7C046B8090020C2
:101800003413002030130020100B0020080B0020A0
:10181000101300202E2E00001C23012601995B4A84
:101820004B435B49D3189B7D09785B0149025B18E8
:101830005849594809681B180E713F218C46E5210B
:1018400066461970D97A31400F2909D12033190021
:101850004140C905F3D139002000FFF7BEF84EE63C
:10186000217D1C2308290DD101994B43D118097DF5
:10187000C906A1D5182120002175D158FEF7CDFD4C
:10188000010043E701994B43D3581B011E09002B6C
:1018900092D01623237531002000A660FEF7CDFDFF
:1018A000EEE7A368200019000193FEF763FE00280D
:1018B00001DA050006E703011E09002B04D1237D90
:1018C000162B00D074E477E7002220000199FEF780
:1018D0002BFE324B9E42F2D8DDE70F230021237509
:1018E00014E72000FEF7CEFC051E00D0EAE62C4BE4
:1018F0001B68002B00D15BE422003C3201211078F0
:10190000984755E4224B244A1B7800215B029B1820
:1019100080222089920066899D185F681A683A4380
:101920009F683A43DF683A4306D01F6A9A6AD21B1F
:101930008A4201D91100049701389B19002803DD60
:101940001A0080329542E8D800291CD00F23049950
:101950002375DBE61C22019B5A430C4B9B180C4A57
:101960009B7D12785B0152029B180B4A9B18DA8A06
:1019700022811B8B6381FFF71BFC13256D42FFF750
:1019800017FC1525FAE70B25F8E7C046B809002033
:101990003413002030130020100B0020F7FFFF0F3E
:1019A0000C0B002070B50400094DA4002868FFF757
:1019B000EBFB63591A7D101E05D0012A04D10022C9
:1019C0001A751020185E70BD01204042FBE7C0462A
:1019D000F41101000300002083420CD00C2B0BD823
:1019E0001C22013B5343074A9B181A7D5206D10F14
:1019F000824204DB197570470E204042FBE7172036
:101A0000FBE7C046B8090020030010B500282CD021
:101A10001C22411E4A4317498A18117D4906C80FE6
:101A200000290EDA517D144889000858017D0029EB
:101A30001DD1C3731123018203759169FEF702FC66
:101A400010BD0E4A91798B4200D19071917B8B42EF
:101A500001D100219173917D8B4201D100219175BB
:101A6000917F8B4201D1002393770020E8E701208A
:101A70004042E5E7B8090020F411010010130020EE
:101A800010B50400002084420DD00C2C0CD820008E
:101A9000FFF7BAFF002806DB1C20013C4443044842
:101AA00024180020207510BD0E204042FBE7C046E0
:101AB000B809002010B504001C230800611E4B4328
:101AC00015495B18197D890722D0197DC9061FD4D5
:101AD000002A08D0022A15D19A68002802DA414269
:101AE000914213D880185A7D0C4992005258117DAA
:101AF00000290DD19B6898420AD80D23D473137521
:101B0000906010BD012A03D11A69E6E70020EAE7D8
:101B100001204042F5E7C046B8090020F411010059
:101B2000431E1C205843064BC018037D9B0704D05E
:101B3000037DDB0601D48068704701204042FBE74B
:101B4000B8090020431E1C2058430B4B10B5C01889
:101B5000037D9B070DD0437D084A9B009C588169FB
:101B60002000FEF76FFB431C02D1172300202375D2
:101B700010BD0E204042FBE7B8090020F41101001F
:101B8000F0B51C24451E6C431E4D64190325267DAB
:101B90002E40012E31D10D35AC46257DA444ED06F5
:101BA0002BD4657D184FAD00ED592F7D002F27D127
:101BB000A960E8732F820A2B11D1A16820698142A4
:101BC00014D9091A8A4200D90A00802149028A429E
:101BD0000FD301225242AA8100202B75F0BD61462D
:101BE00008794021014360460171EEE7AF8133007F
:101BF000F2E7AA81002AEFD1F9E70E204042EDE793
:101C00000120FBE7B8090020F411010010B50A23F8
:101C1000FFF7B6FF10BD0000154970B50A0001249A
:101C200003250B7D2B4205D001341C310D2CF8D13E
:101C30000D2009E0002813DD1C2301385843131838
:101C40001E7D2E4202D10E20404208E01D7DED0691
:101C5000F9D512580E750A605B7D4B75200070BD7A
:101C60000028F0D1034B1868FEF750FDF6E7C04698
:101C7000B8090020F4110100F0B585B00290080009
:101C800015001F00FFF7C8FF061E2FDB7B1C03D1CA
:101C900002980EF014F907001C23721E5343204AC9
:101CA0009B1801931F4B1C68237D0393002B30D19D
:101CB0002300032231331B7813422DD0029B2000D6
:101CC0002773A360E6732574FEF7C3FEC0B260738A
:101CD00000280ED10423290019401D421ED10722DD
:101CE0001540032D1AD0033B21822375300005B027
:101CF000F0BD03230122237520000199FEF784FF24
:101D0000431CF3D0039B23750023019A060013752F
:101D1000ECE701204042F7E70320FBE71420F9E756
:101D2000B8090020F411010070B50C00FFF774FF32
:101D300000280FDB1C22431E5A4311000726064BC6
:101D40001031C9180D799B18B5432E00062535436F
:101D50000D719C7470BDC046B8090020F0B585B007
:101D6000009003910192002844D01C250322441EB8
:101D70006C43244BE418237D1340022B3AD1019B82
:101D80000C2B3ADD637D204A9B009F583B7D0293DC
:101D9000002B34D1FFF740FF061E24DB431E5D43BA
:101DA000184B019AED186368013A6B60A37DAB751F
:101DB000E37DEB75039B3A73BB60009B04227B744D
:101DC000A37CF8733B740C233B75237D13420DD029
:101DD0009343237529003800FEF7DAFD431C02D037
:101DE0000600029B2B75300005B0F0BDAB7D0133C2
:101DF000AB75F8E70E267642F5E71026FBE70126DD
:101E0000F9E7C046B8090020F41101000022084B90
:101E100008491A804032DA76D9829A76FFE7591C4F
:101E2000C87F9A754032DA76813AC0B21A8070471C
:101E3000800000608080FFFF0B4B0C4A10B5DA82F7
:101E40004022C0B218749A76C04609489A75C024D8
:101E500058838020C9B29876DC7519749A76C0468A
:101E60009A75D87610BDC0468000006080C0FFFF24
:101E70008080FFFF0D4B0E4AC0B2DA8240221874F8
:101E80009A76C0460B499A75812059830021C0017A
:101E900019808031D97558839A76FFE7581CC07F26
:101EA0009A75413AC0B2D9761A80704780000060B6
:101EB00080C0FFFF8080FFFF8022C021054BC0B2A1
:101EC0009A76D975803918749976C0469975DA76FC
:101ED0007047C0468000006010B50824FFF796FFE9
:101EE0002042FBD110BD000010B5812410210C2030
:101EF000FFF7A2FF094A0A4B1278E401002119807A
:101F00004031DA755C839976FFE70648C07F9975A2
:101F10004139DA761980C106F0D510BDA80001005C
:101F2000800000608100006070B50D000400FFF7C4
:101F300083FF290A601CFFF77FFF70BD70B50400A6
:101F40000A2905D1C3681A8882855B88C38570BD5C
:101F500083681D7A5A7A4D1BEDB2AA42F7D3997A5B
:101F600099206943FFF7E0FFA1680B7A5B19202BEA
:101F700004D1230030331E78002E01D14D19EE7AA2
:101F8000E268138892889B18A28D9B1A002BDEDDD5
:101F90009E4200DDDEB23100B120FFF7C5FFA18D0A
:101FA000AD20FFF7C1FFA38D10219E199020A685BB
:101FB000FFF742FFFFF790FFC9E770B50500140077
:101FC00003889B205943FFF7AFFF2988AF20614367
:101FD000FFF7AAFF10219020FFF72EFFFFF77CFFED
:101FE00070BD70B515000400FFF79EFF2900A01C0E
:101FF000FFF79AFF70BD70B50D000400090CFFF7E4
:102000001BFF290A601CFFF717FF2900A01CFFF720
:1020100013FF70BDF7B50C00402580270D4B0192D2
:102020000D4EDE82E6B21E749D76C046C0220B4E77
:102030009D755E83461A365D9F76DA751E749D76B1
:10204000C046019A013456189D75361BDF76002E66
:10205000E6DCF7BD8000006080C0FFFF8080FFFFEE
:102060000EB4FFB509AD08CD04000193030032336F
:102070001F785E780F2250214068FFF7CBFF3900B0
:10208000CC20FFF7D9FE3100CD20FFF7D5FE216926
:10209000D220FFF7B0FF6169D520FFF7ACFFE28DDA
:1020A000A18D6320FFF79DFF20002A0001991830C1
:1020B00003950AF0A1F904B0F0BC08BC03B01847BE
:1020C00010B52024BA20FFF7D5FE2042FAD1B8205F
:1020D000FFF7D0FE10BD70B5B920FFF7CBFE0500AD
:1020E00010202843FFF7E8FE0521B820FFF7A4FEE3
:1020F0000021B820FFF7A0FEFFF7E2FFFFF7E0FFA7
:1021000029000400B920FFF797FE0120204070BD90
:1021100070B505000C1E00D020241021B9202143E9
:10212000FFF78AFE0B21B820FFF786FE280CFFF789
:10213000C3FE280AFFF7C0FE2800FFF7BDFE0020FF
:10214000FFF7BAFE200070BDF7B50E0019001400AD
:102150000525FFF7DDFF370001906D42FFF7B0FF67
:10216000002D01DB207001340135002F03DD00203C
:10217000FFF7A2FE013FAE42F0DCB9200199FFF764
:102180005BFEF7BDF7B505001C1E0091019200D063
:10219000202410262F0026433100B920FFF74CFEE3
:1021A0000621B820FFF748FE2100B920FFF744FEC2
:1021B0000421BA20FFF740FE3100B920FFF73CFEB2
:1021C0000221B820FFF738FE280CFFF775FE280A19
:1021D000FFF772FE2800FFF76FFE009E019BB820FC
:1021E0005B1BD95D013EFFF727FE0137002E02DDA4
:1021F000FF231F42F2D10425BA20FFF73BFE2842FD
:10220000FAD02100B920FFF717FE009B981BFEBDF6
:102210008023F7B51B0205001400994201DB42043C
:102220003BD0802220272B051B0D5201D31A01938E
:10223000002C00D02024102626433100B920FFF7BF
:10224000FBFD0621B820FFF7F7FD2100B920FFF7BD
:10225000F3FD0421BA20FFF7EFFD3100B920FFF7AD
:10226000EBFD3900B820FFF7E7FD290CB820FFF798
:10227000E3FD290AB820FFF7DFFD2900B820FFF7AA
:10228000DBFD0425BA20FFF7F5FD2842FAD0210036
:10229000B920FFF7D1FD0198FEBD52270193C7E792
:1022A00010B50622A7210400FFF7B4FE9220FFF725
:1022B000E1FD03239843A37B1843C0B2FFF7FCFD65
:1022C00010BD10B506220C009321FFF7A3FE92204B
:1022D000FFF7D0FD9F21640108402043FFF7ECFD8C
:1022E00010BD70B515000C00FFF7DAFF2900D220F1
:1022F000FFF781FE0C219120FFF79EFD08222000B0
:10230000AD21FFF787FE10219020FFF795FDFFF725
:10231000E3FD70BD73B504000E1E07D14269C168AC
:102320008068FFF7DEFF6660668073BD8369416089
:102330005E434388B60DB342F7D20822C1686846AF
:102340000DF0CDFB2378A0682269002B0ED06B46E0
:10235000DD88B54200D935006B4669465B88CD8083
:10236000EB184B80FFF7BDFF6580DEE76B469D886D
:10237000B54200D935006B4669469D80F2E770B5DD
:1023800004001000627000221D00FFF793FB00287C
:1023900002DA6368984770BD00202570FBE70000F3
:1023A00070B5150004008360049B0D4A0361059B12
:1023B000C5600260416043611422002118300DF0B5
:1023C000AAFB084B0222A3612300283324621A705F
:1023D0002B882000A3856B88E3850023238670BDAE
:1023E000BC0001003D1F000010B504004068FFF76D
:1023F00057FFAF20E18DFFF797FD0121A068FFF7A0
:1024000060FF00219B20FFF78FFDA368B320D988D0
:10241000FFF78AFDD2202169FFF7EDFD230031335C
:102420001B78002B0BD021690F24C943D520FFF75F
:10243000E2FDF02191202143FFF7FEFC10BD616910
:102440000E24F3E70EB477B5040007AD40CDFFF7D7
:10245000CBFF20002A0031001830019509F0CCFF95
:102460007EBC08BC03B0184770B504001D00836033
:10247000049B16000361059B4160C2604361142206
:10248000002118300DF047FB0B4B0222A361230003
:10249000283324621A7033882200A385738830326F
:1024A000E38500232386054B200023602B7AED1A59
:1024B0003035EB7A137070BD3D1F0000C80001007D
:1024C000F7B504000F001E001D000192B919491B49
:1024D000002D0DDD019BA28CF3185B1B53432200E2
:1024E0002387236820001B6836329847013DEDE7BB
:1024F000F7BD00000023F0B587B0040001939942B6
:1025000004DBC36901938B4200DD0191261D30007D
:10251000A17CFFF7D6FE00219920FFF705FD3000D2
:10252000FFF7BEFE0021AD20FFF7FEFCA28CB1201C
:10253000618FFFF756FDC2219120FFF77DFCA18C32
:1025400001980CF04DFD256A2A23E75E854200DCE8
:1025500078E0C71BFB43DB171F40EB1B03932822CC
:10256000A35E039A934210DD013B02939D1A002D56
:102570000ADB20002900029A2430FFF71EFD029B8F
:10258000013D013B0293F2E7039B0022390020004A
:10259000FFF796FF27620021236AA58C61815D43C6
:1025A000019B5D1B4B4BA5811B689E4200D06DE0DB
:1025B0002A002620FFF715FD208A019B3E3858434C
:1025C000A361E369E1695B08C0180CF07FFCE38953
:1025D00004AAA589343B13803F4B451905935580C8
:1025E000FFF782FC3D488179FFF76BFE00229920BE
:1025F0001100FFF7F6FC3000FFF752FE0822AD2174
:1026000004A8FFF707FDC2219120FFF715FC102158
:102610009020FFF711FCFFF75FFC3022A35EAB4276
:102620000DD04DDAEA1A3B2A00DD3C2204A9CA800B
:102630004B8030002A4A04A9FFF753FE258601206B
:1026400007B0F0BD431B7A009342A4DDC31B029385
:102650005D1B2822A35EAB420CDD2F0020007A1BFD
:1026600039002430FFF7A9FC2822A35E0137BB42C2
:10267000F4DC2B002822A15E0298CA1A0918C91A94
:102680002000FFF71DFF029B236284E7154F3B6884
:102690009E4204D0144B1B689E4200D08CE7102051
:1026A000FFF7E8FBEF2318403B68F31A5A1E9341EB
:1026B0001B011843FFF700FC2A000021342079E7B2
:1026C0005A1B3B2A00DD3C2292B204A93C33CA804B
:1026D0009B1AADE7B409002032003C000410010051
:1026E00031303100A80900209C090020F8B5040011
:1026F0001F0006AB1E88079B15008360089B416086
:102700000361099BC26043611422002118300DF05F
:1027100002FA104B0222A3612300283324621A70AC
:102720002B882100A38500236A88013E4031E28581
:102730002386A763A6870B7007492000216021002C
:102740004A310B8023004C331A8001225A80EA88D8
:102750009A80F8BD3D1F0000E0000100F7B5294F49
:102760000500380001910DF0AAFB002805D0421E9B
:10277000BB5C2F2B01D05C2B32D12B00AC6D5633C0
:1027800018806269E16860680093FFF7AAFDE3685A
:10279000A66B1A883000A2855B88E3850DF08FFB5D
:1027A0002300E08740331B78002B1BD023683100C7
:1027B00020001B68984754352B78002B0FD0009BC6
:1027C000019912221B88002900D1023A0021380009
:1027D000FFF752FA0C4B002810DA5B689847F7BDF8
:1027E0001000C2E72000FFF7FFFD0136731E1978C5
:1027F0000029E0D02000FFF7A1FBF6E71122587076
:102800001A70ECE764080020842E0020034B10B5FA
:102810001B681B6E002B00D0984710BD9809002044
:1028200010B5164B164A1B68126916491A600C68D7
:102830008A6910195860CA69134912199A608A691D
:102840000C681019D860CA69104912191A618A698E
:102850000C6810195861CA690D4912199A618A6980
:102860000C681019D861CA6912191A62094B0A4A10
:102870001A800122094B1A7010BDC0465405002071
:1028800000140040B03100205C32002008330020EA
:1028900028300020004000411CA5FFFF5805002003
:1028A0008023F0B58DB008929B0099423BD16C4BD0
:1028B000426819685B680191029303688B4232D1C8
:1028C000029B9A422FD103690993022B2BD9002135
:1028D000C26883680B92634AC31812680591039219
:1028E000614A0291126807910492604A019112684C
:1028F00006920B9A9A180A9280220A9C92008218D9
:10290000944215D3029B002B02D0564B039A1A60B7
:10291000059B002B02D0554B069A1A60002902D065
:10292000514B049A1A600898FFF754F804208AE083
:102930001A684F4CA24200D172E04E4CA2420DD018
:102940004D4CA24200D082E05A681F00069202223B
:102950000123019C0593144301940DE0DA681400EF
:10296000802292029442CDD85A681D00039201221F
:10297000019C029214430194019B072B66D1029B98
:10298000002B02D0374B039A1A60059B002B02D014
:10299000364B069A1A60002902D0334B049A1A600B
:1029A000364B1B78022B4AD1354BE9681D60354BFD
:1029B0001B78002B04D1344A78681268904238D0D2
:1029C000FA688918002B04D1304B72681B689A4250
:1029D00031D0F368C9182E4B1F602E4B1E602E4E4F
:1029E0003278F368002A28D0D8884B088005181858
:1029F0000CF06CFA0021B0613000FFF78BFC012273
:102A0000264B27481A70FE22EB681204A9688660DC
:102A100042618361089A0223FFF7B1FC0DB0F0BD5B
:102A20005A68019904920422114301911E00012168
:102A3000A2E71F00C8E70026CDE79888D5E70898E9
:102A4000FEF7C8FF0320FFF7E1FEE7E70A9B079ABE
:102A500001320792079C099AA24200D049E751E748
:102A6000F00001004C05002044050020480500202E
:102A70005DF5B08E3064B4BC7447D73E520500207B
:102A800040050020500500201C2F0020182F00209A
:102A90003C0500203805002094040020510500204A
:102AA000842E002070B5204902000B78022B13D031
:102AB000032B20D0012B30D11C48013300680B7050
:102AC000002809D08025C468816819482D02456115
:102AD0008461FFF754FC70BD164B1B68002B0AD0B5
:102AE0000320DC6808709968E02311481B044361E7
:102AF00084610223EDE71000FEF76CFF0022FE2048
:102B00000D4B01211A700004FFF702FBFFF788FE4E
:102B10000A4B1B68D8680FF0B7FCFEF75BFF08484C
:102B200009F0ECFBD7E7C046510500203C0500202A
:102B3000842E0020380500200010004040050020B1
:102B4000A90001000378F7B50400002B00D1B6E01E
:102B50004278002A14D01C23013A5343B84A9B18E8
:102B6000587DFEF71FFF0500431C00D1A7E0002899
:102B700008DA0023238063689847002323809EE0BF
:102B80008078EEE7207801381528F6D80CF094F913
:102B900016001A0021002A002F003E00A100B400F8
:102BA000BE00CF00E800FF0014011B014E015301DD
:102BB000660175017F01B101F501FD016078FEF745
:102BC000AFFFA0618021012260690902FFF720FBAD
:102BD000E081802260789B499200FFF717F8042378
:102BE00023706CE0002323820533A5812370FFF757
:102BF00072FA002863D1934B228AA189D2186069A6
:102C00000123FFF7BFFA06236082E9E7FFF763FAC3
:102C1000061E54D10123618A8B4A6069FFF794FA3A
:102C20003000228A874BD3180193618A814227D0D2
:102C3000854B019D1B5C2F5CBB421FD01D000136E4
:102C4000BD437B409D4219D08021636901221D0B49
:102C50002D0349012800FFF7DBFA63690122E91A15
:102C6000E38960785B1AE381A36965615B1AA361FC
:102C7000A389C91AFEF71EFF0323B1E70130D5E788
:102C8000002EB8D1A069A389401AA06160695B1ABF
:102C90004018A381E3896061A06852185B1A228200
:102CA000E381002803D04368C918FFF733FBA36909
:102CB000002B05DC002360782380FFF7F3FEF7BDCF
:102CC000E389002B00D17DE7A389002B00D180E7A9
:102CD00091E700215D4B21801C688C42EFD02300DE
:102CE000012254331A702000FFF738FD236E002BA9
:102CF000E5D002209847E2E78022607851499200AF
:102D0000FEF784FF0023A382093369E7002D36D044
:102D100029004F4801F012FF00282FDB0023A0827A
:102D2000281A484DE360401920610A3358E7484D9E
:102D3000E168280001F076FE031E01D0E060BEE7E6
:102D40002800A28A216901F035FF051E17DB8022C9
:102D500060783D49A5829200FEF758FF0C233FE7BB
:102D6000002D0CD0A28A3A48002A03D039492B0002
:102D7000891AE8E7130033492A00E4E70500607880
:102D8000FEF728FE2900324801F05EFFF5E6002D2F
:102D9000F5D0A38A2C495A19C91A2D48002301F0ED
:102DA00009FF051EEBDB8022A08226496078920095
:102DB000FEF72CFF0B2313E701F084FF0023E060F4
:102DC00023610E330CE7638AE1681E4D072B08D19F
:102DD000214E28008E1B32000CF081FE0023A91921
:102DE0006382228A1A48531C23820E0001F078FF66
:102DF000638A011E08D1590269180B236078721A80
:102E0000FEF7BEFE0F23EBE65A1C5202AA189042B0
:102E1000E7D380225B02E060E91860780B23920020
:102E2000FEF7AEFE638A0133638248E76078FEF7FF
:102E300027FE1023D4E60023238001F093FF3EE712
:102E4000B809002038130020381500209809002008
:102E50001C3100203817002038210020182160780C
:102E6000FEF762FF05006078FEF70AFE002363822A
:102E70004A4B6570E3601223B2E68022E168607815
:102E800009315200FEF76AFF1323A070A8E6002D57
:102E900024D16078FEF79EFD414B1D68002D00D1C6
:102EA0006BE6618A2E22AB5EAA8CCB1A01335343A8
:102EB000E984002B10DB3B48EB614B00C01A022277
:102EC000394B0CF068FE8023DB0500212800AB6144
:102ED0002B62FFF70FFB50E60023ECE7A07825827A
:102EE000FEF71EFEE5682860A078FEF72BFE14238F
:102EF00076E61C20A2782D4E013A42439219527D6B
:102F00002B4992005258E368926824495A60658AB6
:102F1000244AED436D00AD18A278591A013A504386
:102F20003618327D89B2D206D00F002A23DA5A7AB7
:102F30002E2A1ED19A7A002A10D05A892E2A18D108
:102F40002C3A1A7203222980638A023D013363827C
:102F5000238A0D339343E268D318E360A078FEF729
:102F600039FDE1686A1A0C3A0C2A92DD6078093161
:102F700088E70122E5E71872E4E7802260780D49CE
:102F80009200FEF743FE16232AE60023627829000A
:102F900008482380FFF784FC91E6C04638130020E0
:102FA000980900203823002001010000B809002002
:102FB000F411010094020020012230B5A04B85B02D
:102FC000196811420AD11A608C2301939D4B9E4AC5
:102FD00000939E499E4B9F48FFF7E2F901239E4ACA
:102FE0001168194200D113609C4A1168194203D13B
:102FF00013609B4B9B4A1A609B4A0123116808008F
:10300000184019420ED11360984C994D994B00907D
:1030100001932A008E4B20009749FFF725FA974B22
:10302000656323600122964B196811420FD11A6023
:10303000FF23944C944D0193944B2A00009320005D
:10304000834B9349FFF710FA8C4B65632360012291
:10305000904B196811420FD11A608C238E4C8F4D02
:103060000193784B2A0000932000794B8C49FFF79D
:10307000FBF9824B6563236001228A4B1968114278
:103080000ED11A60FF230393804B874A0293704B43
:103090007F490193342385480093854BFFF726FB36
:1030A0000122844B196811420FD11A60FF23039348
:1030B000764B814A0293664B8049019380235B00E3
:1030C00000937F487F4BFFF711FB01227E4B19686D
:1030D00011420AD11A60FF2301936C4B7B4A009383
:1030E00076495B4B7A48FFF7BFF97A4A01231168AA
:1030F00008001840194209D11360644B00900193F5
:10310000754A764B76497748FFF74AF90122764BA4
:10311000196811420DD11A60744B754C01935B4BC9
:1031200020000093734A6D4B5349FFF79DF9724B92
:103130002360724A012311680800184019420CD11B
:1031400013606F4C4B4B009001932000404B6D4A35
:103150006D49FFF789F9684B23606C4A01231168B8
:1031600008001840194209D11360424B00900193A6
:10317000674A5A4B64496748FFF776F9664A012364
:10318000116808001840194209D11360634B009080
:103190000193634A634B38496348FFF765F901229D
:1031A000624B196811420DD11A60384B604C019383
:1031B000604B20000093604A254B2F49FFF754F9DC
:1031C0004D4B236001225D4B196811420FD11A60EB
:1031D000FF2303932D4B5A4A02931D4B59490193E8
:1031E00080235B0000935848364BFFF77FFA01229B
:1031F000564B196811420AD11A60FF230193234BE1
:10320000534A00934F49124B5248FFF7C9F8012225
:10321000514B1968114211D11A60504B494A50491B
:103220009A60FF2212021A61184AC88F5A614D4AE9
:10323000DA608A8F8242924152421A7005B030BDE4
:1032400090020020D6D3D6000C0D0100A02E002045
:10325000F8110100640900208C020020880200207F
:1032600018080020CA00900084020020E007002017
:10327000140F0100FFFFC60000300020EC00010029
:1032800080020020A80700201C110100FFFFFF00A2
:10329000F43000207C020020700700204C11010057
:1032A00008310020780200203C1101001C0700209A
:1032B0003008002074020020DC100100E030002003
:1032C000C8060020640800207002002004110100DC
:1032D000940600206C020020A40C010000130100E1
:1032E000702E002060060020680200204A4D290050
:1032F0002C0600203C0F0100D400010064020020D5
:10330000F8050020740D0100702F002060020020DD
:103310009C0D0100C40500205C02002000FFFF009E
:10332000440E0100D8120100900500205802002030
:103330005C050020848284008C0E01005402002071
:103340008C11010080310020E40400205002002094
:10335000A4110100B00400204C02002094040020BD
:1033600084110100BC11010010B5040001000248E5
:1033700008F0B4FF200010BD09030100002310B5C0
:10338000D41A002C03DDCC58C4500433F8E710BD28
:1033900070B50D000A290DD1C36819880300818515
:1033A00035331A78C38DD21892B2C2856320FEF7E6
:1033B00018FE70BD03003433828D1B7804269B18E1
:1033C00083850320FEF756FD040030002043FEF7FE
:1033D00073FD29003000FEF72FFDFEF77DFD210073
:1033E0000320FEF729FDE4E770B51600134A040038
:1033F000106010200D00D68091801372FEF73AFD08
:10340000102398430300802040421843C0B2FEF7C7
:1034100053FD290032002A20FEF7E3FD1120FEF7BC
:1034200029FDF322A37B10409B001843FEF744FDC7
:103430000E222E212000FEF7EDFD70BDA809002010
:1034400070B51600114A0400106010200D00D680DF
:1034500091801372FEF70EFD50231843C0B2FEF7A1
:103460002BFD320029002A20FEF7BBFD1120FEF7BC
:1034700001FD03239843A37B1843C0B2FEF71CFD54
:103480000E222E212000FEF7C5FD70BD9C090020F4
:1034900010B51020FEF7EEFC40239843FEF70CFD1C
:1034A0000022014B1A6010BD9C09002010B50C00D1
:1034B000FEF7F6FE08222000AD21FEF7ABFDC2218B
:1034C0009120FEF7B9FC10219020FEF7B5FCFEF725
:1034D00003FD10BD70B516000D00040093213000EF
:1034E0000A22FEF797FD9220FEF7C4FC9F22B37BD1
:1034F00010405B011843FEF7DFFC29002000FFF7B6
:10350000D5FF70BD70B51E000D000400917910004C
:10351000FEF7D7FE3100049A9920FEF762FD2900DC
:103520002000FFF7C3FF70BD13B58C8863430024F0
:103530000094FFF7E7FF13BDC3681A8882855B8894
:10354000C385704730B584680200257A637A491BC9
:10355000C9B200208B4208D36D18202D03D1303220
:103560001078002801D16118C87A30BD10B5040068
:103570004269C1684068FEF7B4FE2000FFF7DCFF37
:1035800010BD70B504000D004068FEF789FE61694A
:10359000D220FEF730FD0C219120FEF74DFCE368B0
:1035A00029005A88AD20FEF71CFDE368B120DA88B7
:1035B00019889B88C918491BFEF713FD102190201C
:1035C000FEF73AFCFEF788FC70BD70B505000C00F4
:1035D000FEF70AFF0134631E1978002903D0280082
:1035E000FEF7ACFCF6E770BD8368197A5A1A5B1ACD
:1035F00030322D33D27ADB7AD31A828D9B188385B1
:10360000704770B50B7804000D002D2B01D1FFF72A
:10361000EBFF29002000FFF7D8FF70BDF8B50400CC
:1036200016001F00069B0D00C360FFF785FF2000FA
:10363000FFF79CFF00230022300039000BF0E4FD6F
:1036400003000020834213D1002200233000390000
:103650000BF0E0FD002802D02000FFF7C5FF236833
:1036600020001B6832009C4629003B006446A047AE
:10367000F8BDF8B51600C36004000F003500FFF771
:103680005BFF002E04D12000FFF770FF2800F8BD7B
:10369000002E02DA2000FFF7A7FF2368320039006E
:1036A00020001B6898470500F0E770B51E00030076
:1036B00032330D0019705A70302308241D4019420E
:1036C00003D00434102D00D0043405000023343519
:1036D0002C709E4200D063000C21353003701140E5
:1036E00008290ED00C2910D0640004290BD0032126
:1036F0000A40022A0BD08A420CD05B00012A07D074
:1037000070BD03214C432C70F1E7A400FBE74B4351
:103710000370F5E79B00FBE7F7B50400150008AA66
:1037200001CA61606061200016780AAA17780BAAA6
:103730001278E56001920F4A2361A26000211422F1
:1037400018300CF0E8F90C4B0222A3612300283357
:1037500024621A702B883A00A3856B883100E385B8
:1037600000232386054B20002360019BFFF79DFF6C
:103770002000FEBDF811010091330000A0030100FC
:1037800073B52C23C25E43680400051D002B09D1CC
:103790002689A37C564301331848734301685B189C
:1037A000036061608023DB05A36123626B46022610
:1037B000DA806A469E80E3892800363B1380002326
:1037C0005380C02269461202FEF78BFD6B466A46A3
:1037D0009E80E3892800023B1380C02269461202C2
:1037E000FEF77FFD6A4632239380E3892800343B4D
:1037F00013806946024AFEF774FD73BD8401002000
:10380000313031002E22835EC184C91A838C01318C
:103810005943002901DBC16170470023C361FBE705
:1038200070B50D00046A2821435E1B19013BAB42B1
:103830000DDB94420BDC2100AC4200DA29009342FC
:1038400000DD13005B1A01330A1BFEF739FE70BD61
:1038500070B5056A848C0B0061439D420CDC282600
:10386000825F52199A4207DD82698A4204DC038A28
:103870001B1BC91A8A4201DAFEF73CFE70BD030029
:10388000F7B504000F00002648331D88C38F01934D
:10389000019BAB420BD9A36B2000595DFFF752FE91
:1038A00043089B19BB4202DC36180135F0E72800BB
:1038B000FEBD00000300F0B50700040085B008332A
:1038C00000910193DB8F48370293C368029D1E88E5
:1038D0009B889B190393039B009A5B19934212D90F
:1038E00027004837009A7319934216D3002D14D03D
:1038F0003B88A26B013B9BB23B802000D15CFFF771
:1039000021FE2D1AEEE73B88A26B591C398020005E
:10391000D15CFFF717FE2D18DDE7029B9D420ED00C
:10392000019B2000DD872300A68548331988A36BFF
:103930005918FFF74AFE2000A18DFFF722FE210053
:10394000019B009ADB8F4A31D31A9BB2A385034AAD
:1039500060680B80FEF7C5FC05B0F0BD00FFFF00FE
:1039600070B50D0001000400838D4A3142690B805F
:103970004068FEF7B6FC29002000FFF79BFF70BDF2
:10398000F8B5C68F04008E4200D90E0000252F0026
:10399000A31DDE87B54207D0A36B2000595DFFF75A
:1039A000D1FD01353F18F5E7E36820001988C919F2
:1039B000FFF7D6FFF8BDF8B503000025866B083386
:1039C000DD87403304001D8030000F000CF077FAD3
:1039D0003900E0872000FFF752FF07000136731E11
:1039E0001978002904D02000FFF7ACFD2D18F5E769
:1039F000231DDD87E36839001B882000A385FFF7BE
:103A0000BFFFF8BD10B504000021FFF7B9FF21008A
:103A1000A38D4A31626960680B80FEF762FC10BDBD
:103A200010B504000800FFF7EDFF002307492370DD
:103A30000868984207D0CA888988FFF701FD0022EC
:103A4000034B1A6010BDFFF723FDF8E72C2A002076
:103A50003C2A00200B00F0B5203B040085B05E2B13
:103A600044D8C68F838F0125B34248D9CDB22900EF
:103A7000FFF768FD221D0090D38FA71D1B18D38769
:103A8000A38DA06B0193FB8F9E4221D9C118F21A1E
:103A900001330132C0180CF02BF8FB8FA26B200011
:103AA000D554F98FA36B5918FFF78FFDFB8F0133A6
:103AB000FB87E38F0133E38723000833D98F019B12
:103AC000C918009B2000C918FFF7F4FE002516E076
:103AD000C554A26BFB8F2000D31800225A70FEF74A
:103AE00083FC29002000FEF729FADFE70025AB2937
:103AF00005D8A22906D8082917D00D2911D02800E9
:103B000005B0F0BDA33908000829DFD80BF0CAF9C9
:103B10007100DEFFDEFF7600DEFFDEFFDEFF490024
:103B20006000FFF76FFF0225E9E70025871DFE8F84
:103B3000AE42E4D0836B0093009A731ED2180192B8
:103B4000009AD15CFFF7FEFCA18DE28F0B1A029365
:103B50006B461B89039396421ED2009B921B9919B8
:103B6000019801320BF0C4FF039B2000A385F98F5D
:103B7000A36B01395918FFF728FDA18D2000FFF72D
:103B800000FDE38F013BE387FB8F013BFB872300B5
:103B90000833D98F029B95E7039BA385019B1D707A
:103BA000EBE70025A21DD38FAB42A8D0013B9BB20F
:103BB000A16BD387C95C2000FFF7C4FCA18D091A53
:103BC00023000833D88F09182000FFF7C9FE96E7B5
:103BD000A21DD38FE18F0025994200D88FE7581C92
:103BE000A16BD087C95C2000FFF7ACFCA18D091840
:103BF000E6E700212000FFF7C3FE67E7E18FF9E762
:103C0000F8B50E4B04001A680D48824214D00D4DD1
:103C1000AA4211D00C4DAA420ED00C4AE0CBE0C211
:103C200001220B4B1C600B4B19600B4B1A700023CD
:103C3000E2321900FFF704FCF8BDC0469C090020E1
:103C4000482F0020202F0020342F00202C2A002075
:103C50003C2A0020382A0020282A002010B5C165FF
:103C60004B1E99410400FFF7CDFD8023DB050021A9
:103C70002000A3612362FEF73DFC10BD030070B578
:103C80000025040054331D700649FFF7E7FF2900A3
:103C90002000FEF763FD236EAB4201D0022098475F
:103CA00070BDC0462C060100044B10B518680028F2
:103CB00003D0002901D1FFF7E1FF10BD98090020D2
:103CC000044B0100186810B5002801D0FFF7C6FFAB
:103CD00010BDC04698090020020010B50F4B04002B
:103CE0000F3212D15A7B002A0FD01A7B002A0CD037
:103CF00005220B48DA72FFF7E3FF0223094A0A495B
:103D00000A48FFF711FC200010BD0622DA72E343D7
:103D1000074A9B009858FFF7D3FFF4E71C310020B7
:103D2000E20301003C0E0100F4100100E03000202D
:103D3000D005010070B5060004000DC90DC60800CD
:103D40000D000CF0BCF82900421C3000FFF716FBF8
:103D5000200070BDF7B5C0241C4A64022388002BE4
:103D600003D093422CD04034F8E7E7B23D007B1CEF
:103D7000FF33174E01932B88164A013B9BB29342A7
:103D800020D829003000FFF7D5FF019B4035403691
:103D90009D42F0D10025104E6308F3610F4B338034
:103DA0003A880A4B9A4206D0094B7919E818FFF76E
:103DB000C1FF0B4B3380802340355B009D42EFD128
:103DC0002000FEBD01235B423380DEE7FFFF0000E1
:103DD00038130020FDFF00000040004102A5FFFF56
:103DE00004A5FFFF054B4000C35A054A054893420E
:103DF00002D0C022520298187047C04640260020C8
:103E0000FFFF000024080020FA23F7B500911A4AAA
:103E10008688040017005B009E422AD2174B91420D
:103E200002D0C02252028B1800251B8801932F005C
:103E30000135BE4206D93800FFF7D4FF019A038846
:103E40009342F4D9F21B0E4E7B0068009919520080
:103E500080190BF04DFE009A7B009A53012320003D
:103E6000A1885B42013189B22381A1801030FFF724
:103E7000C9FC3800FEBDC046FFFF0000240800203A
:103E80004026002070B50D00124EC1880400C58088
:103E9000B14203D00A001030FFF7C2FCB54218D07F
:103EA0002800FFF79FFF0C4B01881A006C3211802D
:103EB0001A00002191321170012290331034290030
:103EC00020001A702A00FFF7ABFC29002000FFF742
:103ED000BFFC70BDFFFF0000DC2D002070B50E4B55
:103EE00004001A88002A16D05A6899680A4303D138
:103EF0009A781B7B13430ED008492000FFF784FFFC
:103F0000010005002000FFF7BDFF2000A288691C0A
:103F10001030FFF785FC70BD24080020FFFF000073
:103F2000F8B505000E0000248788A74210D92000AC
:103F3000FFF758FF0388B34208D121002800FFF79C
:103F4000A1FF01235B422B812000F8BD0134ECE787
:103F5000004CF9E7FFFF00000E4B0122DB8F10B58C
:103F6000002B07D00C4CE35C2F2B03D05C3B5A4258
:103F70005341DAB2002902D1437B934209D0032393
:103F80004273002A00D1037B044A05490548FFF724
:103F9000CBFA10BDC8060020630800203C0E0100CB
:103FA000F4100100E030002070B50C4D2800FFF740
:103FB00051FD0B4E040000213000FFF7CDFF022C15
:103FC0000AD129000748FFF72BFD737B002B03D094
:103FD00000210548FEF7C2FB70BDC046C8060020A0
:103FE0001C31002027310020B42E002010B5040021
:103FF0000020E072FFF764FE01212000FFF7ACFF14
:1040000010BD000070B5C37A04000D00042B01D967
:10401000FFF7ECFF03232900E3720448FFF7CBFC12
:1040200000210348FFF7ECFD70BDC046C806002024
:10403000A93F000070B5012802D9022813D070BD35
:10404000124CE57A042D04D800212000FFF784FFEC
:10405000F5E72000FFF7CAFF052DF0D120000C493D
:10406000FFF7D0FFEBE7094CE37A032B03D10949B3
:104070000948FFF7D5FC094B1B6854331B78002B0C
:10408000DDD02000FFF7B2FFD9E7C0461C31002089
:1040900010270000C80600202731002098090020C2
:1040A000002313B51A0019001B48FFF79DF91B4C9C
:1040B0001B4A1C4B20005A60FFF762FBE4201A4B9E
:1040C000FF301C60194BA18CA365194B208223661D
:1040D0000AF0FCFE002375221900E0851548FFF761
:1040E000AFF9154B154A1A600322154B1B68019353
:1040F00031331B78134019004A1E9141220054327B
:104100001170002B02D12000FFF7B8FD0021200024
:10411000FEF724FB13BDC046E0300020B42E002083
:10412000D93C0000842E002098090020C8060020F9
:1041300035400000B82E00200C0B0020A93C0000E8
:10414000F411010010B5020002490348FEF77AF9A4
:1041500010BDC0466206010060060020F8B51F00D1
:10416000104B040054331B780D001600002B05D1B2
:104170000D4A0E4B09F0A5F904000D0032003B007A
:10418000200029000BF050F8002801D134003D0038
:1041900000222900064B200009F093F909F09EFB4C
:1041A000F8BDC046DC2D002066666666666639404E
:1041B0000088C34010B504007B20FDF712FF601E8D
:1041C00084410748074B61420140C918D220FDF7DE
:1041D00012FFC0217620FDF72FFEFDF77DFE10BDFA
:1041E00001304100FFCF840010B50BF017FB064BE8
:1041F000002254331B78002B03D1044B09F08AF8BA
:1042000010BD034BFAE7C046DC2D002080010F41B2
:104210000088C340F7B5254E0400330054331B78A3
:104220000D00234F002B00D1224F6868FFF7DCFF01
:104230000B00616B020008310091543639002000F8
:10424000FFF7ECF933781C4E002B00D11B4EA86809
:10425000FFF7CAFF0B00616B0200183100912000CC
:104260003100FFF7DBF9164E2A883100636B20001E
:10427000FFF7FFF9636BAA78310020001033FFF7D6
:10428000F8F9636B20002033E3602600FFF754F950
:104290002000FFF76BF90023290030363778200023
:1042A00033700C31FFF791F93770F7BDDC2D00202A
:1042B000180301001E030100240301002A0301006A
:1042C0003003010010B5C37A0400032B03D1104959
:1042D0000B30FFF7A5FB0F4B0F4A10485A60002325
:1042E0001A001900FFF780F800232000190014308D
:1042F0007522FFF7A5F8E088094B0A49984202D0D9
:10430000FFF770FD01000848FFF784FF10BDC046AD
:10431000C8060020842E002069330000F4300020FD
:10432000FFFF000024080020E0070020F7B5194F28
:104330000C00BB881600051D8B4215DDFB888B42E7
:1043400002D1154B154A1A612000FFF74BFD124CA4
:1043500001002000FFF75EFF3100114B114A23617D
:104360002800FFF7B7F8F7BD8C2231002800FDF7D1
:10437000B8FFBB889C42F6D1002CF4D00822310053
:1043800068460BF0ACFB6A4601236946D380054AB8
:10439000E6E7C0461C31002070070020FFFFFF0049
:1043A000D6D3D6000831002010B50300024A0349D5
:1043B0000348FFF7B9F810BDD41001004411010003
:1043C000F430002070B51B4DC3880400AB422FD0E1
:1043D0000289194EAA4227D0C02300205B02D05286
:1043E000164B174A1A8001235B422381FFF7DCFF3B
:1043F000802223689202934202D21B88AB4203D0F0
:104400002000FFF7A7FC20600E492068FFF792FC10
:104410000A4B0B4A0C491A80E2882368520059184B
:104420004033B152236003E05B00F35AAB42DFD06C
:1044300070BDC046FFFF0000402600200040004144
:1044400004A5FFFF240800200080FFFF10B50449E9
:104450000400FFF7D9FCE0802000FFF7B3FF10BD98
:10446000FFFF0000002313B50400019200930A002F
:10447000034B0449FDF7F8FF034B2000236016BDF2
:10448000F811010000300020B8030100F8B5174F03
:10449000174E3B78022B19D1164B1B783D2B15D1AB
:1044A000154B1C685D681548FFF760F80023144A37
:1044B0003B70137020227370124B327012481F3AF7
:1044C0001A70FFF753F829002000F8BD300007F0FC
:1044D000FFFE084B04001B780D003D2B02D1064B5C
:1044E0001C605D6002233B70DDE7C046F9240020BC
:1044F0007601002074010020F0240020CC2300204D
:10450000F82400207501002098230020F7B504004E
:10451000FC224F007F080D00200039001F4B1206BF
:104520000AF08CFE1E4E002807D1200039001D4ADB
:104530001D4B0AF06FFE00280ED000220023200041
:1045400029000AF061FE194A00281ED030230120FC
:10455000337000233354FEBD002220003900144B79
:104560000AF076FE134A00280FD12B0022000B21FF
:10457000009201933000104A07F0DAFE03001800A1
:10458000013BF25C302AFAD0E3E7200029000090DA
:1045900001910B21300007F0CBFEDCE783D7974178
:1045A000FA240020F168E388B5F8E43E3403010002
:1045B0000000F03F390301003E030100F8B500227E
:1045C000002304000D000AF01FFE002821D129005D
:1045D0002000FFF79BFF0F490F4E0B78421C300065
:1045E0002D2B02D020230D4833700BF078FA0C4F9E
:1045F0003800FEF7BBFF31003800FFF702F8094B27
:104600001B783D2B02D1084B1C605D600222074BDA
:104610001A70F8BDFA2400207601002077010020EE
:10462000CC23002074010020F0240020F924002075
:10463000F0B589B0A24A0390A24BC088029298427A
:1046400002D0FFF7CFFB02909F4F02993800FFF78F
:10465000E1FD02999D48FFF7DDFD9D4B1D6E5C6EEF
:1046600054331B78002B07D128002100994A9A4B1C
:1046700008F027FF05000C00984E994B2A003100E6
:10468000009338002300FEF7C9FF964B2A000093E1
:10469000310023009448FEF7C1FF8D4C934D230059
:1046A00054331B78002B00D1914D206FFFF79CFDF8
:1046B0000B0090490200009183482900FEF7AEFFED
:1046C000029B5D68002D00D1F0E0266E676E00222F
:1046D0000023300039000AF097FD002822D1864AD5
:1046E000864B3000390008F0ECFE060028000F0071
:1046F0000BF094F802000B003000390008F00AFEBD
:104700006834060020880F000BF0B8F805000C0094
:1047100002000B00300039000AF086FD002801D1AC
:104720002E002700390030000AF004FE744D664C5C
:10473000020029002000734BFEF79BFF644B186FAB
:10474000FFF752FD04900591029B98780BF066F8F4
:10475000049A059B069007913000390008F0B1FEDD
:1047600002000B000698079908F0ABFE0AF0E2FD84
:10477000654B020029002000FEF77BFF0F2250212D
:104780006248FDF747FC0F22012502261100772021
:10479000FDF727FC039B19219B7A5D4A1D402800E9
:1047A0000393FFF707FD039BAF211E403000431E1C
:1047B0009841574AC0B2FFF7FDFC0423039A08272B
:1047C0001A4010000692431E9841F5226421C0B29F
:1047D0005200FFF7EFFC039B91221F403800431E5D
:1047E00098416421C0B29200FFF7E4FC029B5B6831
:1047F000DC0FE418641020000493002D03D128007E
:10480000002E00D060420BF009F8424B424A08F0FB
:1048100058FE424D286369632D4D2B006A331E7884
:10482000002E00D06442002F43D0644220000AF0E2
:10483000F5FF384B384A08F044FE394F029B386385
:1048400079639868002E00D040422B0057331B78C4
:10485000344C5A1E93415B4218400AF0DFFF2E4A47
:104860002C4B08F02EFE00222063616356352B7816
:10487000934208D0049A53425A412B4B52421A4059
:10488000C6231B04D21803990023890700D0130004
:1048900026498B600C23039919400B00591E8B414C
:1048A0005B421A40224B9A6009B0F0BD2E002F00E7
:1048B00038E7069B5A1E93415B421C40B6E7C04650
:1048C00024080020FFFF0000E0070020A8070020C8
:1048D000DC2D002091F2A3FC283F0A40490301008F
:1048E0004C0F01006C0D0100F80500202A030100A7
:1048F000430301005C0F01005CB4506EFD48484169
:104900004F030100540F0100640F0100003000202C
:1049100017020000E2361A3F2D431CEBB031002095
:104920005C3200200833002000003AFF9431002060
:104930004032002070B5C58804002800FFF752FA05
:104940000023194A2E000380904228D183704360CF
:1049500083600373A288154B013A92B26800A2806B
:10496000811C521BC918C01852000BF0C1F8A38853
:10497000AB4204D86E1E31002000FFF783FA2500F9
:1049800010352800A188FEF73DFFA28831002800DD
:104990000132FEF745FF2000FFF74AFE70BD044BD1
:1049A000044A1A80D6E7C04624080020402600208A
:1049B0000040004104A5FFFF70B50D00054C20002C
:1049C000FFF700FD29002000FFF75CFA2000FFF749
:1049D0002FFE70BD1C31002070B50D4D2800FFF773
:1049E00039F802280ED10B4C0B4BE18899420AD1C1
:1049F0002000FFF773FA2000FFF71AFE290007488E
:104A0000FFF70EF870BD0A000548FEF709FFF2E750
:104A10001C0700201C310020FFFF00002731002070
:104A20002C31002070B5002901D1C0214902802518
:104A30000131FF31AD024A1EFF3A140013001E6817
:104A4000013606D0084B5208DA61084A1A80200065
:104A500070BD04338B42F2D1591CFF31AB42EAD313
:104A6000FFF7F4FC0024F2E70040004102A5FFFF3D
:104A700013B5002201A901900BF0D4FA019B294C37
:104A80002080581C01901B782C2B02D00220404221
:104A900016BD01A907F088FC234B244AFFF75EFBF3
:104AA000019B6060581C01901B782C2BEED101A952
:104AB00007F07AFC1E4B1F4AFFF750FB019BA060DA
:104AC000581C01901B782C2BE0D1002201A90BF07F
:104AD000A9FA019BA070591C01911A782C2AD5D1F2
:104AE0005A781548222A19D1002102330193019ADC
:104AF000531C01931378222B04D15378222B0BD112
:104B0000023201924354002B02D001313229EED1FE
:104B100000203F342070BBE70023F3E733220BF083
:104B2000D5F9F5E724080020EFFF58400E2DB29D7F
:104B3000FD3F8F40A245B6F330080020F8B51A4E6D
:104B40000A0007000D0030000D210AF0AFFF041E1F
:104B500003D101256D422800F8BD821B272AF8D118
:104B6000300012490AF0ADFF061EF2D10134283D93
:104B70002A000D2120000AF099FF0028E9D00670D4
:104B80000130001B2D1A2000FFF772FF0028E0DB28
:104B9000074B1A00543212786B331A70C0235B0231
:104BA0003B60BE80D7E7C0463813002053040100A5
:104BB000DC2D0020F0B585B00D00140003900293A9
:104BC000002B23D01F4E1A000D2130000AF06EFF7B
:104BD000002834D00023871B01370370EB1B220011
:104BE0002900180001930AF083FF019B3A0031006D
:104BF00018190AF074FF0198FFF73AFF00281CDB30
:104C00000398FFF723FC029BBD19DC1B22000D213A
:104C100028000AF04BFF00280ED00023461B03702B
:104C200028000136FFF724FF002806DB0398FFF772
:104C30000DFCAD19A41BE9E7200005B0F0BD012073
:104C40004042FAE73813002070B504008B1C07D0EF
:104C50004B1C0AD10623C3721648FFF731F870BD0A
:104C60000623C3721448FFF72BF8144D01222B00C2
:104C700090331A8080232000DB05A3622363002188
:104C80001030FDF737FC00220D4B6C355A609A60EE
:104C90001A731A809A7001235B42E38029882000EE
:104CA000FFF73EF92000FFF7C3FC2000FFF70AFBE7
:104CB000D5E7C046350401000E040100DC2D0020BC
:104CC0002408002010B52922024903480AF007FFF2
:104CD000024810BD53040100381300206113002066
:104CE000F0B583880D00002087B0934225D91000CD
:104CF000FFF778F804004068FFF776FA0600A0682E
:104D00000F00FFF771FAA3782288029003910096B2
:104D1000019728001149049307F02CFB22262D1837
:104D20000C34310020000BF0BCF8002807D1220021
:104D300028000B4907F01EFB281807B0F0BD002320
:104D4000001B421CE15CE954190001338842F9D18F
:104D5000A4180230AA1816702D18E2E753030100B8
:104D60006503010010B500210148FDF7F7FC10BDF7
:104D7000B42E00200068C003C00E0C2801D90C38E6
:104D800070470028FCD10C30FAE70000F0B587B07E
:104D900004900591037B002B00D187E01626444C3C
:104DA00005AD2000FEF7C8FB2800FFF7E3FF17273B
:104DB00029786E448906890E3378328803912988D0
:104DC0006F440905890E01900291397839488908A4
:104DD00009189B069205DB0E120F00912000364940
:104DE000FDF730FB2300002230331A70059B334956
:104DF000DB03DB0E0B2B00D831492000FEF701FC52
:104E000020003021FEF79EFB3034049B2070DB7ABB
:104E1000042B4BD12B4C2C4B2000E360FEF78CFB7A
:104E200030888005000FFFF78DF9284B2000E360E4
:104E3000FEF782FB30788006C00EFFF783F9244B23
:104E40002000E360FEF778FB387880081430FFF725
:104E500079F9204B2000E360FEF76EFB2800FFF796
:104E600089FFFFF76FF91C4B2000E360FEF764FB3E
:104E700028880005800EFFF765F9184B2000E360D5
:104E8000FEF75AFB28788006800EFFF75BF9144B7B
:104E90002000E360FEF750FB059B1249DB03DB0EAD
:104EA0000B2B00D810492000FEF78FFB07B0F0BD98
:104EB00094060020E4070000730301006B03010067
:104EC0006F03010060060020A40C0100AC0C01007F
:104ED000B40C0100BC0C0100C40C0100CC0C01009E
:104EE000D40C01006C03010070030100F0B585B023
:104EF0000292C57A04000E00012D0DD1072908D0B9
:104F0000092966D10020BB4BE0721872FFF74CFAFA
:104F10005FE0FFF70FFDF5E700295CD1B64B1B788A
:104F2000002B56D0FFF7B2FA060049004D080022C8
:104F300030002900B14B0AF077F9002801D10600B2
:104F4000AE4D290030000AF0F5F906002000FFF709
:104F500039FA31002000FEF7E3FFA94A030090422E
:104F60001DD1A449A74A0968914225D1E088A64DE0
:104F7000984218D0002E16D1A44A41008A5A9A426B
:104F800005D0FEF72FFF01002800FEF7D3FE20001A
:104F90009B492E80FEF776FF2000FEF79FFF200042
:104FA000FFF746FB15E02B88002BF0D00023AB70F9
:104FB0006B60AB602B73EAE7954C964B2000E36087
:104FC000FEF7BAFA2000FEF7D1FA20009249FEF768
:104FD00018FB05B0F0BD062900D9E0E0864B1B7830
:104FE000002B14D1042912D0C088854A864B9042E8
:104FF00002D0FEF7F7FE0300701E0528E9D809F07D
:1050000051FFB900B300BD00E8FFC200BF00FFF7C9
:105010003DFA4D00070003906D08042E1FD8E0886C
:10502000774A90421BD0794943005B5A934216D08D
:10503000FEF7D8FE01007448FEF77CFE6D4A714B06
:1050400012689A4213D1E388704A5B009A5A6F49FA
:1050500022810122022052425A52FFF7A5F9B01EC6
:1050600004282CD809F014FF10343D6357000023A6
:10507000654A6A481380826B1370FEF777FA200046
:105080005F49FEF7FFFEEAE7002238002900644B83
:105090000AF0CAF8002801D10700614D3800290044
:1050A0000AF048F9584B9870E188554B994200D165
:1050B00072E720000A001030FEF7B2FB6FE7594B91
:1050C00038002900584AFFF749F84F4B5860EBE782
:1050D000564B38002900564AFFF740F84A4B986073
:1050E000E2E7544B4D4D198C029B591AE37A022B7F
:1050F00009D002232800E372FEF75DFC00214E4830
:10510000FEF77EFD65E72800FEF7B9FB01002800E9
:10511000FEF736FC5DE7494B38002900484AFFF7A7
:105120001DF8484B1867012290331A80BCE7454EA2
:10513000330054331B78002B07D129003800424A32
:10514000424B08F0BEF90D000390039F0022380087
:1051500029003F4B0AF068F8002801D107003C4DB8
:10516000384B37667566DEE798780AF087FBFFF7FD
:1051700025FA2EE75868FFF737F8F8E79868FAE756
:10518000304B186FF7E72F4B186E596E54331B785E
:10519000002BECD12F4A304B08F093F9E7E7C81FFA
:1051A0000B2800D915E709F087FE0C0059008D0087
:1051B0009B0008014901C000FA0069017201540115
:1051C00061012000FFF7FEF8E37A022B04D12000F2
:1051D00012490B30FEF724FC1020FCF74BFE802315
:1051E0009843FCF769FE0022024B1A60FEF750F963
:1051F000EFE6C046A8090020F924002000388F40BF
:10520000FFFF0000F430002024080020402600208A
:10521000E0070020140F01008E0301001C0700208E
:1052200000C05840EFFF58400E2DB29DFD3F8F400B
:10523000A245B6F31C110100D9490000F2FF23403A
:10524000728A8EE4DC2D0020FC87F4DBD781D33F0B
:105250008087C34091F2A3FC283F0A40E388984826
:10526000834207D10022974B1A809A705A609A6045
:105270001A7394E694495B005A5A824220D12089DD
:1052800090421DD000255852012320008D4A5B42D8
:1052900095601573158095705560E18823810A002B
:1052A0001030FEF7BDFA2800FFF77EF8E37A022BF4
:1052B00000D074E6200085490B30FEF7B1FB6EE6A6
:1052C000012020E62000FFF77DF8E37A022B04D1CD
:1052D00020007E490B30FEF7A3FBFEF7E1FE78E6E7
:1052E000E088774B984214D0774D4200525B9A4247
:1052F0000FD0FEF777FD01007248FEF71BFDE38833
:1053000002205B005A5B2281012252425A53FFF76E
:105310004BF800256D4EB36B30001D70FEF726F97B
:10532000022329003000E372E6E60026042D00D9AE
:105330004FE60123664F674D3A00280066497340E7
:105340002673FEF7F1F833003A0028006349FEF7B0
:10535000EBF8637B002B05D133002800604A6149DC
:10536000FEF7E2F8FF22604F002E1AD00026390027
:105370002800FCF7B6FF330028005C4A5C49009621
:10538000FEF7C0F8330028005A4A5B490096FEF742
:10539000B9F85A4B20001969FFF7F8FC19E6012605
:1053A000C4E728005449FCF79CFF3300390028006B
:1053B000534A0096FEF7A6F80BE6032D09D120000C
:1053C00050490B30FEF72CFB637B002B0ED00021E5
:1053D00008E0042DF8D92000FEF708FE0121052D74
:1053E00000D0F6E54848FDF7B9F9F2E5217B474DD5
:1053F000474C002916D02E2128000AF052FD002823
:1054000003D1280043490AF03FFD012309225B42F2
:1054100000212800FCF730FC0D2300280BDA63681C
:105420009847D6E5012308225B422800FCF724FCBC
:1054300008230028F3DB23706070CAE5042D04D92B
:1054400035492000FEF7DEFDC3E52000FEF73AFFF8
:10545000BFE5324B1988029B591A032DF1D1294C13
:105460002000FEF70CFA0100200051E60025254837
:10547000836B1D70FEF77AF82900E2E7052D00D155
:10548000A7E5237B002B00D1A3E5042D08D1002341
:10549000752219002248FDF7D3FF0023E37298E537
:1054A000032D04D1200017490B30FEF7B9FA002371
:1054B000752219001B48FDF7C3FF0423E37268E758
:1054C000FFFF000024080020402600201C070020C9
:1054D000740F0100E0300020E4100100EC10010026
:1054E0003C0E0100F410010014110100CC10010069
:1054F000FC100100C41001000C1101000014004058
:105500001C0D0100C8060020B42E002064080020F5
:10551000842E00209203010010270000DC100100FF
:10552000B82E0020702E002037B50500062821D0A7
:10553000FEF7ACFF49004B08190009F0FBFE030021
:10554000052D09D1454A904201D8133A8318444A9F
:105550009A183F2A02D937BD3B28FCD8414C226912
:105560000192062D10D8280009F092FC0616203C66
:10557000465059000023F1E73F210B40180001AAD3
:1055800013788B4303431370019B2361A37ADB09D8
:10559000FCD1354B6380DEE73F2001AA1840334938
:1055A000138880010B4003431380EDE7019A1F200D
:1055B000D5032F49ED0E0B2D0BD91D0005400B2BEC
:1055C00002D80C331D0005402D030A4015430195F8
:1055D000DAE70C2B00D10023184000030A400243F5
:1055E0000192D1E76A461F203E211840937940007E
:1055F0008B4303439371C7E76A460F201D49184048
:10560000D38880010B400343D380BDE76A46032162
:10561000D0791C339B0008400343D371B4E701A841
:10562000FFF7A8FB019B1F25D903114AC90E0B29BF
:105630000BD8010029400B2802D801000C31294069
:1056400009031340194301919EE70C2800D1002063
:105650002840000313401843019095E7E30700003A
:105660001CF8FFFF0014004010C0FFFF3FF0FFFFD9
:10567000FF0FFEFF3FFCFFFF0122F0B5E44B85B0BA
:10568000196811420AD11A608C230193E14BE24A56
:105690000093E249E24BE348FCF782FE0123E24A31
:1056A0001168194200D11360E04A1168194203D110
:1056B0001360DF4BDF4A1A60DF4A012311680800DC
:1056C000184019420ED11360DC4CDD4DDD4B0090CB
:1056D00001932A00D24B2000DB49FCF7C5FEDB4BCF
:1056E000656323600122DA4B196811420FD11A60F9
:1056F000FF23D84CD84D0193D84B2A0000932000AB
:10570000C74BD749FCF7B0FED04B6563236001223D
:10571000D44B196811420FD11A608C23D24CD34D4F
:105720000193BC4B2A0000932000BD4BD049FCF7ED
:105730009BFEC64B656323600122CE4B1968114264
:105740000ED11A60FF230393C44BCB4A0293B44B90
:10575000C34901933423C9480093C94BFCF7C6FFE2
:105760000122C84B196811420FD11A60FF2303931D
:10577000BA4BC54A0293AA4BC449019380235B00EC
:105780000093C348C34BFCF7B1FF0122C24B196819
:1057900011420AD11A60FF230193B04BBF4A009314
:1057A000BA499F4BBE48FCF75FFEBE4A0123116811
:1057B00008001840194209D11360A84B00900193CA
:1057C000B94ABA4BBA49BB48FCF7EAFD0122BA4BC9
:1057D000196811420DD11A60B84BB94C01939F4B17
:1057E00020000093B74AB14B9749FCF73DFEB64BFA
:1057F0002360B64A012311680800184019420CD1F1
:105800001360B34C8F4B009001932000844BB14A3E
:10581000B149FCF729FEAC4B2360B04A0123116863
:1058200008001840194209D11360864B009001937B
:10583000AB4A9E4BA849AB48FCF716FEAA4A012387
:10584000116808001840194209D11360A74B009055
:105850000193A74AA74B7C49A748FCF705FE012204
:10586000A64B196811420DD11A607C4BA44C0193D0
:10587000A44B20000093A44A694B7349FCF7F4FD44
:10588000914B23600122A14B1968114200D11A608B
:105890009F4B19680800104011420CD180211A60FA
:1058A0009C4BC900998059819A73A9399A4AFF394A
:1058B000186099811A610122984B196811420FD121
:1058C0001A60FF230393654B954A0293544B954905
:1058D000019380235B00009393486E4BFCF706FF17
:1058E0000122924B196811420AD11A60FF230193D9
:1058F0005A4B8F4A00938B49494B8E48FCF750FD19
:1059000001228D4B1968114211D11A608B4B854AC7
:105910008B499A60FF2212021A61504AC88F5A615D
:10592000884ADA608A8F8242924152421A70864ACD
:10593000012311680800184019420DD113603F334C
:105940000293303B01937C3303900093324A314BF6
:1059500032497E48FDF7E0FE7D4A012311680800C8
:10596000184019420DD113603F330293303B01932D
:10597000EF3303900093774A384B6A497648FDF736
:10598000CBFE7649012208680300134010420BD178
:105990000A601F320192724A624900927148724A4B
:1059A00003930293FDF7B8FE7049012208680300D3
:1059B000134010420CD10A600392043202921B324F
:1059C0000192204A2049009269486A4AFDF7A4FEE4
:1059D000694B01251A6816002E402A4200D0E9E0E2
:1059E000664C1D604F4B200063600D4B544FA3600D
:1059F0001A4B10222361FF2331006361E7601C30E2
:105A00000AF089F822005E4B2832A3611300B9E046
:105A100090020020D6D3D6000C0D0100A02E00204D
:105A2000F8110100640900208C0200208802002087
:105A300018080020CA00900084020020E00700201F
:105A4000140F0100FFFFC60000300020EC00010031
:105A500080020020A80700201C110100FFFFFF00AA
:105A6000F43000207C020020700700204C1101005F
:105A700008310020780200203C1101001C070020A2
:105A80003008002074020020DC100100E03000200B
:105A9000C8060020640800207002002004110100E4
:105AA000940600206C020020A40C010000130100E9
:105AB000702E002060060020680200204A4D290058
:105AC0002C0600203C0F0100D400010064020020DD
:105AD000F8050020740D0100702F002060020020E6
