:10000000F0330020ED5B00009D990000E95B0000EB
:1000100000000000000000000000000000000000E0
:10002000000000000000000000000000E95B00008C
:100030000000000000000000E95B0000E95B000038
:10004000E95B0000E95B0000E95B0000E95B0000A0
:100050003D9A0000E95B0000E95B0000A5A70000F5
:10006000E95B000039990000E95B0000E95B0000F2
:10007000E95B0000E95B0000E95B0000E95B000070
:10008000E95B0000E95B0000E95B0000E95B000060
:10009000E95B0000E95B0000E95B0000E95B000050
:1000A000E95B0000E95B0000E95B0000E95B000040
:1000B00000000000E95B000010B5064C2378002B1F
:1000C00007D1054B002B02D0044800E000BF0123FC
:1000D000237010BD100100200000000024EF00007C
:1000E000044B10B5002B03D00349044800E000BFC7
:1000F00010BDC046000000001401002024EF0000E5
:1001000010B50D4A0B8801889B1889180C7A1A7A49
:10011000A24205D10933180009310DF05BF810BD7A
:100120000120022A05D0022CF9D08242F7D10238F0
:10013000F5E74042F3E7C0463011002003004021BC
:100140000A4A807D1278400152028018084A8018BD
:100150001A7D8A431A751B681B011A094283012202
:100160001B0D8382034B1B681A7170472C110020F2
:1001700008090020281100200C4A30B50023140083
:10018000156885420CD155798D4209D1084A094834
:100190001370DA00A418084A5B021460181830BD06
:1001A00001330832042BEBD10020F8E708110020BE
:1001B0002C11002008090020281100200C4BCAB285
:1001C00070B5D400E4182379002B05D10023012059
:1001D0002371A371404270BD064903685202DD6875
:1001E000521801232168A8470028F4DBEEE7C04637
:1001F0000811002008090020F8B5030004220E4C65
:100200003C331D7821780D4E0131013A032900D984
:100210000021CB009B191F79002F02D05F79AF42DC
:10022000F2D19F79002F01D0002AEDDA044A217023
:100230001360FFF7C3FFF8BD2C1100200811002048
:100240002811002070B506000D003C3604003178FE
:100250002800FFF791FF00280ED12000FFF7CCFF08
:10026000431C08D1064B32781B681D605A7140232D
:10027000627D1343637570BD01204042FBE7C046B9
:100280002811002070B5514B05001C78504B6402BA
:10029000E41822684F4B9A420ED14F4B62689A4243
:1002A0000AD1236DA16C0381636D43811023037513
:1002B0002800FFF7C7FF64E0FF235B00E25A474BCB
:1002C0009A4210D18022237BE17A1B02444E920095
:1002D0000B4393420AD02B00002231331A7033684B
:1002E0001B68934260D00B2040424AE02B00607BA9
:1002F0002C3318700CF0F6F82B002D33187023698E
:100300001A028023120C5B019A42E4D22B001211D4
:100310002F331A70217C013B1970E38A002B00D126
:10032000636A2B624B4331689A180968E38959184C
:10033000A961511869629A18237DE17C1B020B4365
:1003400000D1236A9B1A274A034193421ADC264AAA
:100350009342C0DD802021002A8E4000520A5202C2
:10036000024324312A860133EB610223AB628B7C8A
:10037000462BB0D1CB7C412BADD10B7D0020542B33
:10038000A9D170BD290002223131087802430A70D8
:10039000E26AFF2A9FD8218D00299CD128002100E4
:1003A000303040310270DEE72300FF34BF33FF33CB
:1003B000FF341A79002A04D059891A890904114393
:1003C00076E71033A342F4D18DE7C0462C1100200C
:1003D00008090020454649205041525455AA0000C2
:1003E00028110020F4FF0000F40F000030B50400D5
:1003F0001800591A88420FD0002807DD13780132FF
:1004000023701B0A637001380234F3E703005D1E9A
:10041000AB415B429BB2F3E730BD03001A002D32C3
:100420001278881E9040596A40187047313003781E
:1004300088009B0700D44800704710B50400FFF700
:10044000F5FFA369400AC01810BD10B50400FFF7FE
:10045000F4FF01002000FFF7F5FE431C06D13F2208
:10046000637D93431A0001231343637510BD10B5D8
:10047000816A0400FFF7E9FF431C06D13F22637D38
:1004800093431A0002231343637510BDF8B5042586
:100490000B000A69097D8468294202D0A943013A08
:1004A000197505002D352D78610AE940520A0F00B3
:1004B000EA40914207D21A6808215A6000221D7D45
:1004C0001A618D431D75BA4203D11C6100231800C7
:1004D000F8BD5D68D9792D010909BE1A2D09B1420F
:1004E00008D3C91B751952182D0112072D092A436B
:1004F0005A60EAE702002C3214786402A2B24C1C63
:1005000054431A694919A4180422640A64021C613C
:100510001C7D596022431A7500231207D7D4FFF7B8
:1005200094FF0300D3E7000070B505001400FFF747
:100530007DFF0D4BC0051B78C00D5B0231351B18CC
:100540002A780A481B18D20706D51C800122084BBE
:1005500000201B681A7170BD1A682101120F090969
:1005600012070A431A60F1E72C1100200809002045
:100570002811002010B50400FFF758FF2200134B8C
:10058000C0051B78313212495B02C00D12781B186E
:100590005B18D2070CD518889A1C0E4B98420DD9BF
:1005A0000D484A40D20510D18023DB0518430CE0EA
:1005B0001A0001CA030118099033F2D8E36998427E
:1005C00001D80128EDD11520404210BD2C1100208A
:1005D00008090020F7FF0000FFFFFF0FF7B50D002F
:1005E00000244B681F4F1E0101903609310001980D
:1005F000FFF7C0FF00280DDB02011309002A2ED0EF
:10060000194A93420DD908232A7D13432B75002CD8
:1006100023D100200F22EB79240113401C43EC71FD
:10062000FEBD002C13D104211E002A7D6B608A437D
:100630002A7501344023000E03420ED13100019887
:10064000FFF7FBFE3B681B689842CFD005E0013600
:10065000B34202D10134102CECD1013CD9E7152072
:100660004042DDE728110020F7FFFF0F70B50500BD
:100670001800934217DC1A00AA18AA4216D00C7868
:100680002B782600613E0231192E01D8203CE4B2BD
:100690001E00613E192E01D8203BDBB201359C4281
:1006A000EBD0002008E001204042E5E7431C03D1E5
:1006B000087843425841404270BD70B505001000B3
:1006C0008A18013A1478202C03D101380028F8D177
:1006D00070BD0024A042FBD00A5D002B05D016009F
:1006E000413E192E01D82032D2B22A550134F1E709
:1006F0000100030000200B314208C00110431A78AA
:1007000001338018C0B28B42F6D1704731230B758C
:1007100003003C331B784B75030031331B789B0778
:1007200004D5303003780B6011230B757047F7B593
:100730000B7807000E000192E52B00D126E1002B7B
:100740000CD1037C7F2B04D8837D002B04D1FF3395
:10075000BB750F204042C5E00133F9E7CA7A3F215B
:100760000A400F2A00D08DE01D0001318D43023A6E
:10077000013D5543427B521B00920B4251D0019BDD
:10078000002B44D000234373737BFB74BB68711C44
:100790005C19019B002B56D03A7B0023AA4200DD56
:1007A000531B00220878002825D0002B02D020708F
:1007B000013B013401320231052AF3D11A20310004
:1007C00084460E31B4440878002814D0002B02D09F
:1007D0002070013B01340231501C8C452AD1317FFD
:1007E00000292ED0002B02D02170013B0134B17FB3
:1007F000002921D102327B7B9A187A73002D00D117
:10080000FF3530784006C00F0230BD746AE0009BAF
:10081000002B02D102200025F7E7009B0D2BB3DD52
:10082000F8E7C27C737B9A42F4D1837C0D3BAB42E8
:10083000F0D1ABE70200C6E7002B00D021700332F5
:10084000D9E70200D7E705232000009AFFF70EFF43
:10085000002814DD3100009B24181B1A009320008F
:100860000623009A0E31FFF701FF002807DD310053
:10087000009B1C311A1A02232018FFF7F7FE0028EC
:10088000BCD1C7E7837CFF2B22D0019B0822BC6828
:10089000002B35D0337B310013402000FFF70DFFD4
:1008A0002E2322181370541C31001022337B0500B4
:1008B0001340200008310D3AFFF7FFFE031E00D160
:1008C000013B002001355AB2ED18A0547D7309E0B8
:1008D0003000FFF70DFFFB7C8342D6D1019B002B3C
:1008E00001D10020FEBD797B3B7B0020BA68994294
:1008F00001D85054F6E7D0543B7B0C2BF1D8C4E719
:1009000008239C463000797BB4440378009320236D
:10091000002908D023781D00613D192D17D8203BF0
:10092000DBB201390134009DAB422BD1013A0130D9
:10093000002AEAD1844517D1002906D023782E2B2E
:1009400014D1013901340332DFE70322DDE72E2B16
:10095000E7D1082AE5D00E3B072AE4D1631E1B78B5
:100960002E2BDED02023DEE70029BAD03000FFF79F
:10097000BFFEFB7D834200D04CE740233A7C13430B
:100980003B7447E7042A00DD44E7EFE7012042E734
:1009900008220B7D70B5934304000D000B759B0678
:1009A00010D503002F331978436A591A7F2000238A
:1009B000227CA3740240A37522742000EB82FFF70F
:1009C00041FC70BD09686960002903D0FFF725FD6F
:1009D0000100EBE715204042F3E770B50600087D03
:1009E000CC7D83060D000134DA0F002B0BDA3300C7
:1009F0002F331978A14229DD736A591A3000611822
:100A0000FFF720FC11E04B68190133002C331B78F1
:100A10000909A34215DCEB791B090AD10007C40FB1
:100A2000002813DB3000FFF710FD0023EC75AB75D9
:100A300070BD14000131013B08011B07000903438D
:100A40006B603000FFF7E9FC0100D7E70F20404260
:100A5000EEE7010030B58B68007B00281AD01C78C7
:100A60005C2C01D02F2C04D101330138F5E71000A4
:100A7000F3E702008B60013A002A05D05D7801336C
:100A80005C2D01D02F2DF6D10A73801A012801D1D7
:100A90002E2CECD030BD0000F0B50D0085B00392D7
:100AA000437B876800910B222021280002930CF0E1
:100AB000F2F93B78202B03D11420404205B0F0BD61
:100AC000E52B00D189E000247A1C2E2B09D1029B52
:100AD000013B0293002B00D190E07B7801241700AA
:100AE000F2E708223B0001921E7801372E2E45D1F5
:100AF000019A009B94462A00634408320092934274
:100B000034D920232B726B72AB721F3B1C4306231C
:100B10009C43033B0193029B013B0293002B23D197
:100B2000630703D5A3075DD520231C4301232600BB
:100B30001E401C4212D0039BA91D092B04D9039B04
:100B4000291D632B00D8691D7E230B702C7A0A2285
:100B5000039801310CF066F92C723400182321201F
:100B600023402B732040A9E73B00BDE76307CED5A8
:100B7000A30701D52023C9E70823C7E71F2E9BD968
:100B8000202E02D101231C43C5E73300613B192B02
:100B90000FD80423203EF6B21C43019B002BF1D05A
:100BA000009B1E70019B013B0193009B013300934E
:100BB000B1E73300413B192B01D80223ECE73100A8
:100BC0000F480CF02EFB0028E7D00E4B984200D3C4
:100BD00072E701235F261C43DFE708230526002474
:100BE0000193DDE7019A009B94462A006344083292
:100BF000934201D9102398E7082396E740205DE748
:100C000069D4000073D400007FB50D00694604006C
:100C10001600FFF741FF002810DB09D1A8746846D1
:100C2000FFF766FD2900E0752000FFF7B1FE05E043
:100C3000AE74012EF3DD01231840F0D104B070BD75
:100C4000F0B585B001930B7D05000C0016009B06E6
:100C50003DD503002F3318786B6A181A2B00E77DF7
:100C60003C333F1819783800FFF786FA390000281E
:100C700000D1E8E08D4B1A788D4B52029619F61888
:100C800031002800019AFFF752FD0090002874DB24
:100C90002F7C002800D0E0E00E22F37A134201D02E
:100CA000BA0607D5019A002A29D01022134214D07F
:100CB000174218D1A37D20360133A3757C4B7340B6
:100CC000DB05DDD121002800FFF787FE54E04B68EB
:100CD00019010909FFF7A1FBC0E708221342E7D079
:100CE00018231F42E6D11C236A7C013A5A43714BF8
:100CF0009B1862685A60A27D9A75E27DDA756E4B28
:100D00001E60207D738B8207A3802380920FB18A9F
:100D1000029203229043029AE180104361801943BA
:100D2000039048424841830013433F22C0000343DD
:100D3000039813409043102203432375F07A104226
:100D400026D013432375002903D121002800FFF783
:100D5000DDFC019B002B13D1AA686B7B2800D31804
:100D6000AB60FFF776FEC0B26873002808D001229E
:100D700021002800FFF748FF0090009805B0F0BD63
:100D8000FB060BD507233B40032B14D1112306E0B0
:100D90000823184206D010331F42F3D00F235B42C2
:100DA0000093EAE7019A002A02D12A7B002AF5D1B2
:100DB0001F42E7D1F2E704233A001A401F4246D00F
:100DC000227DD006C10F03985307170701919106A2
:100DD000DB0FFF0FC90F800600D5012103208740DC
:100DE0009B0003431F43019B490118013F233843E4
:100DF0009A4301430A432275AB7CFF2B03D1A268BF
:100E00006260228AE282328B6282F28A2282FF2B25
:100E10001ED10722F369A3602B7C1340012BACD1B8
:100E200021680029A9D0227D14332B7537339A43CA
:100E3000134323750023280023606360A360A96027
:100E4000FFF7FBFA01002800FFF7FCF994E72261A5
:100E50001A4B1B681B68A361DBE704230421AA7DEE
:100E60003B400F420ED0009B032B00D022E763686B
:100E7000A360E38A2382114B1B681B68A361531C88
:100E8000AB7517E779B2002900DA13E70099012959
:100E9000F6D1002AEBD00D235343697B8B42EEDB66
:100EA00080235B421F432F74E9E7C0462C110020CA
:100EB00008090020B00700200009002028110020A8
:100EC0008B7D10B55A01102B02D1FFF786FD10BDA6
:100ED0000123FFF7B5FEFAE770B58A7C04000D0028
:100EE000002A0CD04021037C0B4213D1607B0D21E2
:100EF0000C300BF02BF9402382B21343A374237DF3
:100F000002332375A37D002B0FD12B7D9B0634D597
:100F1000122037E0FF2A34D08B43037429000132BA
:100F2000FFF772FE0028E1DA70BDFF2B1DD1164BD2
:100F30001B681B68AB6101239A4211DB287DE97DA8
:100F4000800617D520002F300078411A022907DCCF
:100F5000A87D1B1A0F33022900D110339A42D4DA2C
:100F60002000A969FFF76EF9DEE7A9686960298AA0
:100F7000E982E1E720002C30E6E72000FFF777FA6E
:100F8000D2E714204042CFE728110020F7B58B7D2F
:100F900004000193019A0E005B01102A06D1310072
:100FA0002000FFF71AFD00900098FEBD724A877C72
:100FB00015786D02ED18714BED182B78E52B02D0EA
:100FC000002B00D0D1E001226D4B1B681A71002F5D
:100FD00032D00F23EB7200232F702B736B83E37DD2
:100FE00005216B7340239F43013F333B7B43A26842
:100FF000681CD2180092627BD31A009AFFF7F6F9A8
:1010000003002800009A062105320E30FFF7EEF9A2
:1010100003002800009A02210B321C30FFF7E6F98A
:10102000019B203501330193544B6B40DB05C4D148
:10103000019BA774B375B2E7B27C29002000FFF7CB
:101040002BFD402302001A400092184200D090E08D
:101050002800203B1322EB7239000D300BF01BFFF0
:1010600006F054FAE88200142883327D3B00920691
:1010700006D42200303233681278934200D13B000C
:101080001C2700213A00636030000BF004FF2300AE
:101090000F223C331B7820007375019BB375384BCE
:1010A0001B681B68B361337D93431A000D23134300
:1010B0003375A268637BD318A360FFF7CAFCC0B284
:1010C000237D607300280BD0023B23751023327DF3
:1010D0002000134333753023EB72FFF7C8F962E742
:1010E000062B3CD13075667C264B711E4F43D819B8
:1010F0004388AB82234BFB5A87696B8383683A0032
:10110000EB61438A2B83038AEB82FF231A409446C8
:10111000626A007D13406246D31A820619D5200008
:101120002F300078C3181C204143164A5218D3753B
:10113000137DDB0601D53023EB720122104B390001
:101140001B6820001A710823E6732375FFF77AF8ED
:1011500029E720002C30007801380340E3E7237CA6
:10116000DB0600D420E70223AFE716235B4200939F
:101170001AE71423FAE7C0462C11002008090020C2
:1011800028110020B0070020F0B5037D040087B0CF
:10119000012B50D903681B6998470500431C4AD0AE
:1011A000607D402302001A40002D03DA002A14D18A
:1011B000258232E2002A19D09843BF4B60751A7815
:1011C000BE4B5202D218BE4B200019682368096832
:1011D0009D680123A847051E2DDA7F22637D934376
:1011E0006375B74B803A1B681A60E1E7E37B8006C2
:1011F000013B01931C23019FB24E5F43800E0138D7
:10120000BF19042814D80AF097FF05000B009E00B0
:10121000AF00460139002000FFF7E0F9050007E0C4
:10122000A56A29002000FFF7A5F9002805DA0500C6
:101230006B1C00D016E107B0F0BD030169D1290095
:10124000A14A2000FFF770F91C22019B0C265A438B
:1012500013009C4810331B181979B14319711358A6
:101260008118002B46D10E7D403333430B75DB06CE
:1012700015504D60DD0F002B1BDA3F22637DA16A04
:1012800093431A0004231343637523002C331D7802
:101290002000013DEDB2A573FFF7BFF81C22019BB2
:1012A0002D185A43874B20009B189D60FEF7A4FF22
:1012B000B4E73F22637D93436375227D901E162819
:1012C000B9D80AF039FFF500030103011E011E0120
:1012D000A902A90223012301230127023A020A03DA
:1012E0000E031F036502650250023F02EE02EE028A
:1012F000470380024968200009010909FFF7A5F8A2
:101300003F22637D050093431A0003231343637553
:101310008EE7E3690135AB420ED12200042331325E
:101320001178194200D028E30B4313700223A36203
:101330002000FFF79CF871E74023060EA5623342B8
:1013400000D16EE7F4E7019A20005343F618736862
:10135000A26A19010909FFF7E7F8337D0500DB06EA
:101360008BD4A36A736063E7019A5343F3189B68B5
:101370000393A37B029323002C331B78029A013B37
:10138000DBB29A4209D180224B4B002118784B4B9B
:101390004002C01892000BF07EFD2200484B3C3208
:1013A0001B68127803995A71012219601A71029B05
:1013B000002B5FD11C263F21019B029A5E43414BCB
:1013C0009B199A60627D8A4362751A7D520646D5E2
:1013D000394B1D78394B6D02ED1806F097F8394BF3
:1013E0006A1CF6582E2320212B7002900592681C4F
:1013F0000A220BF050FD029A330CEA8212142A835F
:1014000003921022AB822E23EA72681C6E83202185
:101410006668063AC37720300BF03DFD10212E227E
:101420000298330CE8860398AB866E8728872B35A5
:10143000297005994B1CDA77237D022B05D03F23B9
:10144000627D9A433A3B134363751C22019B5A43C6
:101450001C4B9B1820009969FEF7F4FEDEE6A27D86
:10146000002AF7D13F22637D93436375002D00DB93
:1014700023E79DE6104B20001978FEF79FFE1C2302
:10148000019A05005343F618039B013BB360029B8E
:10149000013BA373CCE63800FEF750FE3F22637D8C
:1014A00039009343200063753E3AFFF7ADFBB5E684
:1014B0003800FEF743FE7BE62C11002008090020CF
:1014C00028110020B0070020FFFFFF0F0023390084
:1014D0001A002000FFF7B4FB0500431C00D1AAE668
:1014E00003000F3300D063E6237C5A0700D15FE688
:1014F0005B0700D55CE639002000FFF7EDFC050036
:10150000E0E039002000FFF741FDF8E71C230199D6
:101510004B43BA49CB18197D490700D58EE021000D
:101520002C3109781B6901395B0A19400291092A9B
:101530000AD10A2380272375BF00A368DB19A360A3
:10154000A389DB1BA38133E01C25019B20005D43A5
:10155000AA4B5D196B6819010909FEF75EFF029B32
:10156000C7182B693800DE0523003C331978F60DC7
:101570000393FEF701FE002800D185E08023A789B0
:101580009B009B1B9F4200D91F009D4B227D18781A
:101590009C4B400286199C483618A06800283FD111
:1015A0009A49A0810E600B2A02D11B680A3A1A716F
:1015B000238A019ADB1923821C2353438F4AD318B1
:1015C0001A69BF181F61227DF905C90D0B2A03D1C5
:1015D0009A68974200D99F608A4B1B68002950D1B6
:1015E0009971029B0133029323002C331B78029ADA
:1015F00093420FD81C23019A5343804AD318DA79B7
:1016000010092FD1A289002A18D1187D0432024373
:101610001A750291A389002B96D1012323750AE63E
:101620000A2A04D13A0031000BF019FC85E70122A7
:101630001B6801001A7130003A00F5E71C23019A7B
:1016400053436E4AD3181A7D120706D5237D0A2B01
:10165000E3D02000FEF70BFF51E720005968FEF7AA
:10166000F4FE4CE70F25013800012A400243DA71ED
:101670005A6810011030120F0009120702435A6015
:10168000C7E7E27B9A71C5E7002E3ED18026A38989
:10169000B600B34224D3A268002A25D0217D236856
:1016A0000B2913D120001B699847051E0ADB23680C
:1016B0003900DD6820000123A268A8473700051E15
:1016C00000DB3AE76B1C00D072E5B4E509219D68A8
:1016D0002175012339002000A847051EF2DBAAE589
:1016E0002A69AB689A4210D3237D0B2B0DD12000C1
:1016F000FEF782FD0500431C00D059E5414B039ADB
:101700001B6812781F605A7195E539002000FEF7BA
:1017100099FDF4E639002000FFF7D2FB051E0ADA36
:10172000431C00D187E5002302003B750F3200D037
:101730003EE5238271E7637BFBE739002000FEF77B
:10174000A5FEDCE6210000232C4A3C31107D01334C
:10175000400603D5567D0878864214D01C320C2BE7
:10176000F4D11323237522000021294B3C32187930
:10177000002803D016785879864220D001310833EA
:101780000429F4D114E5E373122391692375BDE7AD
:101790003800FEF7D3FC060005F0B8FE1C22019BC2
:1017A000F0825A43154B001430839B189B68F361F9
:1017B000237D122B00D1FBE400233B75D1E72000F1
:1017C000FEF7FCFC9BE60E4B0F4A1B785B029B1856
:1017D000198C104A914200D0D3E062685E8F91B2BA
:1017E000100C8E4202D19E8E8642E5D0012259878E
:1017F0009886044B1B681A71DEE7C046B0070020CC
:101800002C110020281100200809002000090020C8
:10181000081100202E2E00001C23012601995B4A8E
:101820004B435B49D3189B7D09785B0149025B18E8
:101830005849594809681B180E713F218C46E5210B
:1018400066461970D97A31400F2909D12033190021
:101850004140C905F3D139002000FFF7BEF84EE63C
:10186000217D1C2308290DD101994B43D118097DF5
:10187000C906A1D5182120002175D158FEF7CDFD4C
:10188000010043E701994B43D3581B011E09002B6C
:1018900092D01623237531002000A660FEF7CDFDFF
:1018A000EEE7A368200019000193FEF763FE00280D
:1018B00001DA050006E703011E09002B04D1237D90
:1018C000162B00D074E477E7002220000199FEF780
:1018D0002BFE324B9E42F2D8DDE70F230021237509
:1018E00014E72000FEF7CEFC051E00D0EAE62C4BE4
:1018F0001B68002B00D15BE422003C3201211078F0
:10190000984755E4224B244A1B7800215B029B1820
:1019100080222089920066899D185F681A683A4380
:101920009F683A43DF683A4306D01F6A9A6AD21B1F
:101930008A4201D91100049701389B19002803DD60
:101940001A0080329542E8D800291CD00F23049950
:101950002375DBE61C22019B5A430C4B9B180C4A57
:101960009B7D12785B0152029B180B4A9B18DA8A06
:1019700022811B8B6381FFF71BFC13256D42FFF750
:1019800017FC1525FAE70B25F8E7C046B00700203D
:101990002C1100202811002008090020F7FFFF0F5C
:1019A0000409002070B504000A4DA4002868FFF760
:1019B000EBFB6868FFF7E8FB63591A7D101E05D042
:1019C000012A04D100221A751020185E70BD012072
:1019D0004042FBE784DF00000300002083420CD07C
:1019E0000C2B0BD81C22013B5343074A9B181A7D32
:1019F0005206D10F824204DB197570470E20404217
:101A0000FBE71720FBE7C046B0070020030010B536
:101A100000282CD01C22411E4A4317498A18117DE8
:101A20004906C80F00290EDA517D1448890008586C
:101A3000017D00291DD1C3731123018203759169B2
:101A4000FEF700FC10BD0E4A91798B4200D19071D7
:101A5000917B8B4201D100219173917D8B4201D109
:101A600000219175917F8B4201D100239377002053
:101A7000E8E701204042E5E7B007002084DF0000EE
:101A80000811002010B50400002084420DD00C2C59
:101A90000CD82000FFF7BAFF002806DB1C20013C11
:101AA0004443044824180020207510BD0E204042F5
:101AB000FBE7C046B007002010B504001C23080057
:101AC000611E4B4315495B18197D890722D0197D8A
:101AD000C9061FD4002A08D0022A15D19A68002806
:101AE00002DA4142914213D880185A7D0C49920083
:101AF0005258117D00290DD19B6898420AD80D23B8
:101B0000D4731375906010BD012A03D11A69E6E7FA
:101B10000020EAE701204042F5E7C046B007002078
:101B200084DF0000431E1C205843064BC018037D71
:101B30009B0704D0037DDB0601D480687047012039
:101B40004042FBE7B0070020431E1C2058430B4BCC
:101B500010B5C018037D9B070DD0437D084A9B003C
:101B60009C5881692000FEF76DFB431C02D11723AE
:101B70000020237510BD0E204042FBE7B007002077
:101B800084DF0000F0B51C24451E6C431E4D641913
:101B90000325267D2E40012E31D10D35AC46257D05
:101BA000A444ED062BD4657D184FAD00ED592F7D73
:101BB000002F27D1A960E8732F820A2B11D1A168C9
:101BC0002069814214D9091A8A4200D90A00802169
:101BD00049028A420FD301225242AA8100202B756A
:101BE000F0BD614608794021014360460171EEE78E
:101BF000AF813300F2E7AA81002AEFD1F9E70E2086
:101C00004042EDE70120FBE7B007002084DF000041
:101C100010B50A23FFF7B6FF10BD0000164970B5D6
:101C20000A00012403250B7D2B4205D001341C3111
:101C30000D2CF8D10D2009E0002813DD1C230138FC
:101C4000584313181E7D2E4202D10E20404208E058
:101C50001D7DED06F9D512580E750A605B7D4B753A
:101C6000200070BD431CF0DB044B40428000C05894
:101C7000FEF74CFDF4E7C046B007002084DF00000B
:101C8000F0B5060085B008001D000292FFF7C6FF00
:101C9000071E45DB6B1C03D130000BF0D0FA0500AA
:101CA0001C237A1E53432F4A9B180193012D3ADDC2
:101CB00073783A2B37D132781300413B192B00D976
:101CC000203B012B45D8284A9B009C5801992000B5
:101CD000023D0236FEF71AFD237D0393002B3BD114
:101CE0002300032231331B78134237D0029B20009C
:101CF0002573A660E7732374FEF7ABFEC0B2607372
:101D0000002816D104230299029A19401A4227D1B9
:101D10000722029B1340032B22D00123218223752B
:101D2000380005B0F0BD019B0F4A5B7D9B009C58BD
:101D3000D2E703230122237520000199FEF764FFF7
:101D4000431CEDD0039B23750023019A07001375F4
:101D5000E6E70C204042F7E70120FBE70320F9E724
:101D60001420F7E7B007002084DF000070B50C00F6
:101D7000FFF754FF00280FDB1C22431E5A431100BB
:101D80000726064B1031C9180D799B18B5432E0054
:101D9000062535430D719C7470BDC046B007002008
:101DA000F0B585B0009003910192002844D01C2525
:101DB0000322441E6C43244BE418237D1340022B62
:101DC0003AD1019B0C2B3ADD637D204A9B009F5842
:101DD0003B7D0293002B34D1FFF720FF061E24DB4E
:101DE000431E5D43184B019AED186368013A6B601E
:101DF000A37DAB75E37DEB75039B3A73BB60009BE2
:101E000004227B74A37CF8733B740C233B75237D05
:101E100013420DD09343237529003800FEF7B8FD17
:101E2000431C02D00600029B2B75300005B0F0BDAC
:101E3000AB7D0133AB75F8E70E267642F5E7102649
:101E4000FBE70126F9E7C046B007002084DF000069
:101E500070B504001000627500221D00FFF72CFE13
:101E6000002802DA2368984770BD00202575FBE73B
:101E70000B4B0C4A10B5DA824022C0B218749A7625
:101E8000C04609489A75C02458838020C9B2987604
:101E9000DC7519749A76C0469A75D87610BDC0461E
:101EA0008000006080C0FFFF8080FFFF0D4B0E4A66
:101EB000C0B2DA82402218749A76C0460B499A75ED
:101EC000812059830021C00119808031D975588340
:101ED0009A76FFE7581CC07F9A75413AC0B2D9760E
:101EE0001A8070478000006080C0FFFF8080FFFF85
:101EF0008022C021054BC0B29A76D97580391874FA
:101F00009976C0469975DA767047C04680000060C1
:101F100010B540228024094B002119800849DA7647
:101F2000D9829A76FFE7012006494042C97F9A7517
:101F3000DC7618800907EFD410BDC0468000006031
:101F40008080FFFF8100006010B5812410210C20EB
:101F5000FFF78EFF094A0A4B1278E401002119802D
:101F60004031DA755C839976FFE70648C07F997542
:101F70004139DA761980C106F0D510BD28D40000A9
:101F8000800000608100006070B50D000400FFF764
:101F90006FFF290A601CFFF76BFF70BD70B505006D
:101FA000140003889B205943FFF7EEFF2988AF20D8
:101FB0006143FFF7E9FF10219020FFF759FFFFF77A
:101FC000A7FF70BD70B5436804001D7A5A7A4D1B97
:101FD000EDB2AA422CD3997A99206943FFF7D4FF36
:101FE00061680B7A5B19202B04D123002C331E78F7
:101FF000002E01D14D19EE7AA268138892889B18A1
:10200000228D9B1A002B13DD9E4200DDDEB23100D3
:10201000B120FFF7B9FFAD20218DFFF7B5FF238D6C
:1020200010219E1990202685FFF722FFFFF770FFF1
:1020300070BD70B50D000400FFF7A6FF290CA01CB1
:10204000FFF7A2FF70BD70B515000400FFF79CFFFD
:102050002900A01CFFF798FF70BD70B50D000400AB
:10206000090CFFF705FF290A601CFFF701FF290093
:10207000A01CFFF7FDFE70BDF7B50C0040258027C2
:102080000D4B01920D4EDE82E6B21E749D76C04667
:10209000C0220B4E9D755E83461A365D9F76DA75BB
:1020A0001E749D76C046019A013456189D75361BE4
:1020B000DF76002EE6DCF7BD8000006080C0FFFF09
:1020C0008080FFFFF8B504005E2017000E00FFF7C8
:1020D000EDFE052105005E20FFF7CAFE21005F200E
:1020E000FFF7A7FF104B114A4024DA8204221A742A
:1020F0009C76C0460E4A9C75C0215A838022BE1928
:10210000F01B002809DD38889A76D97518829C76EC
:10211000C0469C750237DA76F2E7FFF7F9FEE9B2BE
:102120005E20FFF7A5FEF8BD8000006080C0FFFFC5
:102130008080FFFFF7B51C000500631E9C41102640
:102140002F0064012643BB20009101210192FFF77B
:102150008FFE3100B920FFF78BFE0621B820FFF774
:1021600087FE2100B920FFF783FE0421BA20FFF784
:102170007FFE3100B920FFF77BFE0221B820FFF778
:1021800077FE280CFFF7B4FE280AFFF7B1FE2800FF
:10219000FFF7AEFE009E019BB8205B1BD95D013EA0
:1021A000FFF766FE0137002E02DDFF231F42F2D14A
:1021B0000425BA20FFF77AFE2842FAD02100B92080
:1021C000FFF756FE009B981BFEBD8023F7B51B0250
:1021D00005001400994201DB42043FD080222027F1
:1021E0002B051B0D5201D31A0193621E9441102638
:1021F00064010121BB202643FFF73AFE3100B920DC
:10220000FFF736FE0621B820FFF732FE2100B92085
:10221000FFF72EFE0421BA20FFF72AFE3100B92075
:10222000FFF726FE3900B820FFF722FE290CB82060
:10223000FFF71EFE290AB820FFF71AFE2900B82072
:10224000FFF716FE0425BA20FFF730FE2842FAD029
:102250002100B920FFF70CFE0198FEBD5227019323
:10226000C3E710B50622A7210400FFF705FF92205F
:10227000FFF71CFE03239843A37B1843C0B2FFF76C
:1022800037FE10BD10B506220C009321FFF7F4FEB7
:102290009220FFF70BFE9F21640108402043FFF7C7
:1022A00027FE10BD70B51E0005000C0010009179CE
:1022B000FFF7E8FF3100049A9920FFF7C4FE2800D9
:1022C000FFF7CFFF08222000AD21FFF7D5FEC22186
:1022D0009120FFF7CDFD10219020FFF7C9FDFFF7FA
:1022E00017FE70BD70B515000C00FFF7BAFF29008E
:1022F000D220FFF7B2FE0C219120FFF7B9FD082292
:102300002000AD21FFF7B8FE10219020FFF7B0FDAF
:10231000FFF7FEFD70BD000070B54360049B040034
:10232000C360059B150001608260036114220021D7
:1023300014300AF0B0FD0222064BE4616361631DB4
:10234000DA772B88200023856B8863850023A3859B
:1023500070BDC046C51F000083681A8802855B886F
:102360004385704710B50A2902D1FFF7F5FF10BD6C
:10237000FFF728FEFBE7000037B504000E4D0F4BBA
:102380002800AB60FFF7E8FF2A69A9682868FFF713
:10239000A9FF2800FFF7E0FF094B0A4A1C70023C26
:1023A00063426341948B0022634300920649074ACB
:1023B0000748FFF777FF37BD800300204CDF0000A0
:1023C000FA03002014DF00002CDF00001CDC0000FA
:1023D000F02C002010B504000068FFF742FFAF208A
:1023E000618DFFF7D1FD01216068FFF74BFF0021F0
:1023F0009B20FFF7C9FD6368B320D988FFF7C4FDB0
:10240000D220E168FFF729FE23002D331B78002B33
:102410000BD0E1680F24C943D520FFF71EFEF02141
:1024200091202143FFF724FD10BD21690E24F3E71D
:102430000EB477B5040007AD40CDFFF7CBFF200009
:102440002A0031001430019508F0C0FB7EBC08BCA6
:1024500003B0184770B505000C00FFF7BBFF01344F
:10246000631E1978002903D02800FFF7ABFDF6E7BB
:1024700070BD000070B51D004360049B0400C36084
:10248000059B160001608260036114220021143054
:102490000AF001FD02220A4BE4616361631DDA77F1
:1024A00033882200238573882C3263850023A3851B
:1024B0002B7A2000ED1A3035EB7A137070BDC046D0
:1024C00065230000F7B504000F001E001D000192F7
:1024D000B919491B002D0DDD019BA28CF3185B1B64
:1024E000534322002387236820001B683632984715
:1024F000013DEDE7F7BD00000023F0B589B0040011
:102500000393994204DBC36903938B4200DD03917B
:10251000261D3000A17CFFF7B5FE00219920FFF7B2
:1025200033FD3000FFF79DFE0021AD20FFF72CFDAD
:10253000A28CB120618FFFF786FDC2219120FFF7A9
:1025400097FCA18C039809F08BFE256A2A23E75E8D
:10255000854262DDC71BFB43DB171F40EB1B059366
:102560002822A35E059A934210DD013B04939D1A35
:10257000002D0ADB20002900049A2430FFF70EFD0D
:10258000049B013D013B0493F2E7059B00223900C7
:102590002000FFF797FF27620021236AA58C618145
:1025A0005D43039B5D1B404BA5811B689E4258D138
:1025B0002A002620FFF747FD208A039B3E38584318
:1025C000A361E369E1695B08C01809F0BFFDE38915
:1025D000A58906AF343B3B80344B451907937D807A
:1025E000FFF7B2FC0023324A009339003000FFF7B6
:1025F00059FE3022A35EAB420CD04BDAEA1A3B2ADA
:1026000000DD3C22FA80390030002A4A7B80FFF747
:1026100069FE2586012009B0F0BD431B7A00934274
:10262000BADDC31B04935D1B2822A35EAB420CDD05
:102630002F0020007A1B39002430FFF7AFFC28223E
:10264000A35E0137BB42F4DC2B002822A15E049874
:10265000CA1A0918C91A2000FFF734FF049B236225
:102660009AE7154F3B689E4203D0144B1B689E426D
:10267000A2D11020FFF71AFCEF2318403B68F31A91
:102680005A1E93411B011843FFF732FC2A00002118
:1026900034208FE75A1B3B2A00DD3C2292B23C33A8
:1026A000FA809B1AAFE7C046AC07002032003C001E
:1026B0009CDD000031303100A40700209C07002081
:1026C000F7B52D4E0500300001910AF0B8FD002845
:1026D00005D0421EB35C2F2B01D05C2B45D12B00C3
:1026E0006C6D60331880206B00930AF0A8FDE086C3
:1026F0002000FFF731FE216B2000FFF7ABFE2068C2
:10270000278DFFF7AEFDD2202169FFF7A6FC0C2133
:102710009120FFF7ADFBA36839005A88AD20FFF781
:1027200092FCA368B120DA8819889B88C918C91B54
:10273000FFF789FC10219020FFF79AFBFFF7E8FBD9
:10274000622169564B1C0FD0009B019812221B88F6
:10275000002800D1023A30004942FFF791FA074BB6
:10276000002804DA1B689847F7BD1000AFE70F2276
:1027700058751A75F8E7C0460C060020AC2A0020F0
:10278000012270B515008D400400633003782B439F
:10279000DBB22500037000206235285601301FD1BE
:1027A0001800084106001640104208D1002B1DD029
:1027B0003100134203D1134102211A40891A002328
:1027C000EB568B420CD0E36D29700021144A117036
:1027D0008B4201D00220984700212000FFF770FFB4
:1027E000E36D002B01D00120984770BD0D49E284B4
:1027F000A1652E22A15E0222511AA28C4A43002A10
:102800000BDBE2618023DB0500212000A361236252
:10281000FFF772FE01214942D1E7E361F2E7C046CA
:102820000C06002054D4000037B5040005690822C6
:102830004D43416868460AF012FB237D2068AD0DC8
:10284000002B19D06B46DB881A00AB4200D92A0056
:102850009B1A95B26A466946D380E268FFF742FD4B
:102860006B466A465B88D580EB185380A268694640
:102870002068FFF737FD37BD6B469B88AB4200D918
:102880002B009DB26B46A26869469D80FFF72AFD2A
:102890006B466A461B88EB18138063689B885D1B38
:1028A0009580E268E3E7000070B519490B78012BC9
:1028B00016D0022B26D10024FFF78EF8154B0521E8
:1028C0001C705E20FFF7D4FA21005F20FFF7B1FBF8
:1028D0000420FFF7EBFA104B1B68D8680CF014FBD0
:1028E0000E4B1A68002AE6D00223D5680B70916857
:1028F000E0220B4C1204626002002000A560FFF78A
:10290000A7FA70BDFFF768F8064808F0E1F8F8E7A5
:10291000F9030020001000400C04002004040020F3
:10292000AC2A002029D40000F7B50F000500114C97
:102930000193A06020000092FFF70EFD0E4E3A00BA
:1029400031002000FFF774FD2B0020000833A36046
:10295000FFF702FD3100009A2000FFF769FD1035F6
:102960002000A560FFF7F8FC31002000019AFFF776
:102970005FFDF7BD8003002065D900008023F0B51E
:102980009B0014008BB0994200D0A9E05F4B4268D5
:1029900019685B680391049303688B4200D09FE041
:1029A000049B9A4200D09BE003690493022B00D859
:1029B00096E0C268836806920022C31803920699C3
:1029C000591805918021059F890041188F4200D335
:1029D00086E019684E4FB94256D04E4FB94209D0E1
:1029E0004D4FB94200D073E059689C4608910221CE
:1029F0000A430BE0D9680D00802189028D4200D97D
:102A00006EE059681D00079101210A43072A5ED133
:102A1000424F3B78022B43D1414BE9681D60414B4B
:102A20001B78002B03D162465268022A32D06246DC
:102A3000D2688918002B02D17368012B2CD0F3685F
:102A4000C9186246384B1A60384B1E60384E327DCA
:102A50007368002A22D0D8884B088005181809F01E
:102A600075FB0027334B3900306130001F60FFF7E2
:102A7000DBFEEB683048A9682200836015234760BD
:102A8000FFF7E6F90BB0F0BD59681E00099104216B
:102A90000A43BBE79C46CFE70026D2E79888DBE7EE
:102AA0002000FEF799FF3B78022B02D00220FFF7AF
:102AB00063FC0023214A009321492248FFF7F2FBDF
:102AC000099B089A07992048FFF72EFFDAE7059B34
:102AD000039901310391039F0499B94200D06EE735
:102AE0002000FEF779FF0D4B1B78032B02D003204B
:102AF000FFF742FC154C164B2000A360FFF72CFC9F
:102B000020001449FFF7A6FCBCE7C0464CD40000E7
:102B10005DF5B08E3064B4BC7447D73EFA03002034
:102B20000C040020F8030020080400200404002006
:102B30006803002000040020AC2A00207CDF000095
:102B400054DF0000F02C00205CDF00008003002038
:102B50004CDF000033D4000070B5037D0400002B6F
:102B600049D0427D002A13D01C23013A5343BF4A67
:102B70009B18587DFEF716FF0500431C3BD000282C
:102B800008DA0023A382236898470023A38232E057
:102B9000807DEFE7207D01381528F6D809F0CCFAC2
:102BA00016001A002C003200A100A800B200C300D9
:102BB000DC00F30008010F01420147014C015B01F9
:102BC0007C01AA01EE01F601FE010702607DFEF71D
:102BD000A9FFA0608022A6499200607DFFF718F847
:102BE000002380210122A374606803332375090246
:102BF000FFF7EBFAE08170BD0023A5812382043347
:102C00002375F8E7B920FFF751F905001020284394
:102C1000C0B2FFF76DF90521B820FFF729F90021AF
:102C2000B820FFF725F9B820FFF740F9B820FFF7E3
:102C30003DF9E9B20600B920FFF71AF901231E4257
:102C4000D9D1A189002902D0A268002A05DC00237D
:102C5000607DA382FFF728FECDE7E2896068002A45
:102C600003D180211A000902C2E7A67C228A804D86
:102C70007602B2185219FFF75DFAA36882B21B1AE6
:102C8000A36063681B186360238AD3182382A38917
:102C90009B1AA381E3899B1AE381764B1B78002B57
:102CA0000ED0754B1A6881188020744A1960136819
:102CB0004001CB1A834203D971481160FFF7B4FD7C
:102CC000A389002B00D096E701218022A37C607DA0
:102CD0005940A174490269189200FEF799FF032335
:102CE0008EE70023A17D6748A382FFF749FD82E7B5
:102CF0008022607D5E499200FEF78AFF0023A38157
:102D000007337DE7002D36D029005F4801F0C8FE6B
:102D100000282FDB0023A081281A554D636040193D
:102D2000A06008336CE7584D6168280001F038FE58
:102D3000031E01D060605EE72800A289A16801F04F
:102D4000EBFE051E17DB8022607D5049A5819200B5
:102D5000FEF75EFF0A2353E7002D0CD0A2894A48F4
:102D6000002A03D04A492B00891AE8E7130040499A
:102D70002A00E4E70500607DFEF72EFE29004248A8
:102D800001F01AFF01E7002DF5D0A3893F495A1938
:102D9000C91A3D48002301F0BFFE051EEBDB80226F
:102DA000A0813349607D9200FEF732FF092327E7B7
:102DB00001F040FF00236060A3600C3320E76389CB
:102DC00061682B4E072B08D1324D30004D1B2A0075
:102DD0000AF045F800237119638122892A48531C9F
:102DE00023810D0001F034FF6389011E08D15902CF
:102DF00071180B23607D6A1AFEF7C4FE0D23FFE6EF
:102E00005A1C5202B2189042E7D3802259026060E5
:102E10000B23607D71189200FEF7B4FE63890133C5
:102E20006381E8E6607DFEF72DFE0E23E8E60023D1
:102E3000A38201F053FFDEE61821607DFEF796FFC6
:102E40000500607DFEF71EFE00236381084B65755B
:102E500063601023D4E680226168607D09315200EE
:102E6000FEF79EFF1123A075CAE6C046B0070020FA
:102E700030110020F903002000040020FC03002092
:102E800068030020D82A0020642C00203013002082
:102E900030150020301F0020002D20D1607DFEF76E
:102EA0009BFD564D61892E22AB5EAA8CCB1A013355
:102EB0005343E984002B10DB5148EB614B00C01AEF
:102EC0000222504B0AF027F88023DB05002128005E
:102ED000AB612B62FFF710FB57E60023ECE7A07D08
:102EE0002581FEF71FFE65682860A07DFEF72CFE99
:102EF000122385E61C20A27D434E013A42439219DB
:102F0000527D4249920052586368926840495A6023
:102F100065893B4AED436D00AD18A27D591A013A0F
:102F200050433618327D89B2D206D00F002A23DAF8
:102F30005A7A2E2A1ED19A7A002A10D05A892E2A1D
:102F400018D12C3A1A72032229806389023D013379
:102F5000638123890D3393436268D3186360A07D36
:102F6000FEF73AFD61686A1A0C3A0C2A96DD607D1C
:102F7000093175E70122E5E71872E4E78022607DF8
:102F800024499200FEF744FE142339E60023627DB3
:102F900029002048A382FFF7F1FC2CE616232375B5
:102FA0008022607D1A499200FEF732FE23E6002D52
:102FB0000BD100230121627DA382174B1970174B9F
:102FC0001B68002B0FD1100044E62900104A6068EE
:102FD000FFF778F8A36862685B1B5519A36065600A
:102FE000002BE6DDDCE7DC68996880230C481B02D7
:102FF000436002238460FEF72BFFFCE5D82A002003
:103000003021002001010000B007002084DF000013
:103010003011002068010020F9030020080400207E
:10302000AC2A0020F7B5B64A012311680800184001
:10303000194209D11360B34B00900193B24AB34BCC
:10304000B349B448FFF716FA0125B34B1A682A4270
:103050000DD11D60B14BB24C0193B24B20000093D7
:10306000B14AB24BAA492D34FFF704FA2570012268
:10307000AF4B196811420AD11A608C230193AD4BF2
:10308000AD4A0093AD49A94BAD48FFF745F901247E
:10309000AC4B1A68224200D11C60AB4B1A6811007D
:1030A000214022420FD1A94D1C60A94EA94B00918D
:1030B000019332009D4B28009549FFF7DBF92B0067
:1030C0002D331C702E630125A34B1A682A4210D1A0
:1030D0001D60FF23A14CA24E0193904B3200009340
:1030E0002000924B9F49FFF7C5F923002D331D7037
:1030F000266301259C4B1A682A4210D11D608C233F
:103100009A4C9B4E01938B4B320000932000874BCF
:103110009849FFF7AFF923002D331D702663964BB6
:1031200001251A6816002E402A422AD1934C1D60B0
:103130008C4B200023607D4B10226360904B31004C
:10314000A360764B1830E360FF23236109F0A3FEF0
:1031500002228C498C4B21632B216361631DDA773A
:103160007F4BA1861A8CA11C22855A8CCE87DB8CC2
:10317000211D6285A685E461CA87A21D0834D58712
:10318000E387824B01261A6817003740324229D163
:103190007F4C1E607F4B20002360644B7E4D63603C
:1031A0005E4BA560E360FF231022236139001830D5
:1031B00009F071FE0222744BA7856361631DDA7703
:1031C000764A2B882263FF222385A2866B88A21C65
:1031D000D787221D6385D387A31DDE87EB88E46133
:1031E0000834E38701226E4B196811420AD11A6034
:1031F000FF230193494B6B4A009366494B4B6A4846
:10320000FFF738F9694A012311680800184019428C
:1032100009D11360414B00900193654A654B6649A3
:103220006648FFF779F80125654B1A682A420DD1E7
:103230001D60644B644C0193384B20000093634A3B
:103240005C4B33492D34FFF715F92570604B01268F
:103250001A6817003740324229D15E4C1E605E4B1F
:1032600020002360314B5D4D63602C4BA560E36013
:10327000FF23102223613900183009F00CFE0222CE
:10328000414BA7856361631DDA77444A2B8822632B
:10329000FF222385A2866B88A21CD787221D638507
:1032A000D387A31DDE87EB88E4610834E38701221E
:1032B0004B4B196811420AD11A60FF230193174B37
:1032C000484A00934449194B4748FFF725F8012223
:1032D000464B1968114211D11A60454B3E4A3F498D
:1032E0001A60FF2212029A600C4AC88FDA60414AC3
:1032F0005A608A8F8242924152421A75F7BDC04687
:103300006401002000FFFF002CDC00006CE00000E6
:10331000782B00206C07002060010020FFFFFF00D9
:103320003C0700208482840044DC00008CDF000025
:103330005C010020D6D3D600FCDB0000C42A0020AC
:103340000C0700205801002054010020980500209F
:10335000CCDC0000FFFFC600500100206405002007
:10336000B4DE00003C2C00204C0100203005002081
:10337000E4DE0000502C002048010020E80400207A
:10338000D4DE0000E0050020C51F0000440100203D
:10339000A0040020282C002064DE00000C06002081
:1033A000400100209CDE0000700400203C01002051
:1033B0009CDB000094E00000982A002040040020DC
:1033C000380100204A4D290010040020F4DC0000E0
:1033D00034010020B0030020F02C002014DF000096
:1033E0003001002034DF0000800300202C01002089
:1033F000680300204CDF000010B504000100024803
:1034000007F056FB200010BD7AD60000002310B54F
:10341000D41A002C03DDCC58C4500433F8E710BD97
:1034200070B51600144A040010609180D680134ACB
:1034300010200D001370FEF739FD10239843030090
:10344000802040421843C0B2FEF752FD29003200EE
:103450002A20FEF7F8FD1120FEF728FDF322A37BBA
:1034600010409B001843FEF743FD0E222E21200042
:10347000FEF702FE70BDC046A4070020FD26002016
:1034800070B51600124A040010609180D680114A6F
:1034900010200D001370FEF709FD50231843C0B231
:1034A000FEF726FD320029002A20FEF7CCFD112070
:1034B000FEF7FCFC03239843A37B1843C0B2FEF73E
:1034C00017FD0E222E212000FEF7D6FD70BDC0464E
:1034D0009C070020FC26002010B51020FEF7E6FC1B
:1034E00040239843FEF704FD0022014B1A6010BDF3
:1034F0009C07002010B50C00FEF7B3FE0822200048
:10350000AD21FEF7B9FDC2219120FEF7B1FC1021DB
:103510009020FEF7ADFCFEF7FBFC10BD70B5160069
:103520000D000400932130000A22FEF7A5FD922031
:10353000FEF7BCFC9F22B37B10405B011843FEF7F3
:10354000D7FC29002000FFF7D5FF70BD13B58C888C
:10355000634300240094FEF7A5FE13BD30B5446814
:103560000200257A637A491BC9B200208B4208D336
:103570006D18202D03D12C321078002801D161184C
:10358000C87A30BD10B50400026981680068FEF792
:10359000A9FE2000FEF7E0FE10BD70B504000D008E
:1035A0000068FEF75EFE2169D220FEF756FD0C2171
:1035B0009120FEF75DFCA36829005A88AD20FEF734
:1035C00042FDA368B120DA8819889B88C918491B75
:1035D000FEF739FD10219020FEF74AFCFEF798FC1B
:1035E00070BD4368197A5A1A5B1A30322D33D27A79
:1035F000DB7AD31A028D9B180385704770B50B7860
:1036000005000C002D2B01D1FFF7EBFF2800FEF782
:10361000E1FE0134631E1978002903D02800FEF76B
:10362000A1FEF6E770BDF8B5040016001F00069B6A
:103630000D008360FEF790FE2000FFF7A3FF00233C
:1036400000223000390008F01FFF030000208342F1
:1036500010D1002200233000390008F01BFF0028A1
:1036600002D02000FFF7BDFF32003B002900200000
:10367000FEF7DEFEF8BDF8B50400150083600F000C
:10368000FEF76AFE20002E00FFF77CFF002D09D018
:1036900002DA2000FFF7A5FF2A0039002000FEF71C
:1036A000C7FE06003000F8BD2E22835EC184C91A11
:1036B000838C01315943002901DBC161704700232C
:1036C000C361FBE770B50D00046A2821435E1B1936
:1036D000013BAB420DDB94420BDC2100AC4200DA33
:1036E0002900934200DD13005B1A01330A1BFEF729
:1036F000E9FE70BD70B5056A848C0B0061439D4284
:103700000CDC2826825F52199A4207DD82698A42C0
:1037100004DC038A1B1BC91A8A4201DAFEF7ECFE9D
:1037200070BD0000D0B51F00134B160054331B783A
:1037300004000022002B0FD0104B3000390008F09D
:10374000AAFA0F4A20626162300039000D4B08F07E
:10375000A2FAA062E162D0BD0B4B3000390008F044
:103760009AFA0022A062E16230003900074B08F0AB
:1037700092FA20626162EEE71C2A002000005940A4
:1037800067B3D96C369B68400088B34000D8A3402B
:10379000F7B504000F000026C38EC58F0193019B6F
:1037A000AB420BD9236B2000595DFFF7D7FE4308CE
:1037B0009B19BB4202DC36180135F0E72800FEBD3C
:1037C000F7B504000D00838F00938368009E1F8867
:1037D0009B88DB190193019B9B19AB4209D8E38FAE
:1037E00020005A1CE287226BD15CFFF7B7FE361827
:1037F000F1E7BB19AB420CD3002E0AD0E38F226B4A
:10380000013B9BB2E3872000D15CFFF7A7FE361A8D
:10381000EFE7009B9E420BD0E18F236B20005918ED
:10382000A6872785FEF716FE2000218DFFF7B5FE3F
:10383000A18FA31C6D1A2100ADB22585034ADD8737
:1038400020684031FEF74EFDF7BDC04600FFFF0087
:1038500070B50D0001000400028D831CDA87403131
:1038600002690068FEF73EFD29002000FFF7A8FF6F
:1038700070BDF8B5C68E04008E4200D90E0000253A
:103880002F006687B54207D0236B2000595DFFF7F4
:1038900065FE01353F18F5E7A36820001988C919AE
:1038A000FFF7D6FFF8BDF8B50025066B0400C56329
:1038B00030000F0009F0C3FC3900E0862000FFF75C
:1038C00067FF07000136731E1978002904D0200015
:1038D000FFF744FE2D18F5E7A36839001B882587FC
:1038E00020002385FFF7C5FFF8BD10B504000021B7
:1038F000FFF7BFFF2100228DA31CDA872068226911
:103900004031FEF7EFFC10BD10B504000800FFF7D2
:10391000ECFF0023074923700868984207D0CA8843
:103920008988FFF7ADFD0022034B1A6010BDFFF739
:10393000D3FDF8E7EC260020F82600200B00F0B5B8
:10394000203B040085B05E2B3FD8C68E838E0125B8
:10395000B34243D9CDB22900FFF700FE238F070001
:103960001B182387238D206B0193638F9E421ED9E2
:10397000C118F21A01330132C01809F079FA638FC5
:10398000226B2000D554618F236B5918FEF762FD1E
:10399000638FA18F01336387E38E0133E386019B3D
:1039A000C918C9192000FFF70BFF002516E0C55400
:1039B000226B638F2000D31800225A70FEF70AFD95
:1039C00029002000FEF7FEFAE2E70025AB2905D822
:1039D000A22906D8082913D00D290DD0280005B03A
:1039E000F0BDA33908000829DFD808F087FB63DEA3
:1039F000DE68DEDEDE3F5300FFF777FF0225EDE7EE
:103A00000025468FAE42E9D0076B731EFA18F95CA9
:103A10000192FFF7A3FD218DE28E0B1A02936B46F4
:103A20001B89039396421CD2921BB919019801324B
:103A300009F01EFA039B618F2385236B0139200057
:103A40005918FEF707FD218D2000FFF7A6FDE38E34
:103A5000A18F013BE386638F013B6387029BC918FB
:103A6000A0E7039B2385019B1D70ECE70025638F76
:103A7000AB42B3D0013B9BB2226B6387D15C200089
:103A8000FFF76CFD218D091AA08F09182000FFF7A0
:103A9000DFFEA3E7638FE28E00259A4200D89DE700
:103AA0005A1C6287226B2000D15CFFF757FD218DE5
:103AB0000918E9E700212000FFF7DBFE75E7E18E3A
:103AC000F9E700000E4B020070B50E481C688442F6
:103AD00014D00D4DAC4211D00C4DAC420ED00C4C5C
:103AE00060CB60C40B4B1A6001220B4B19600B4B6F
:103AF0001A700023E2321900FFF7C2FC70BDC04605
:103B00009C070020642B00203C2B0020502B002021
:103B1000EC260020F8260020F4260020E8260020CD
:103B200010B50400080011001A00012349425B424D
:103B3000FEF7A6F8002802DA2368984710BD029B1A
:103B4000607523750020F9E710B581654B1E99411A
:103B50000400FFF7A9FD8023DB0500212000A361FD
:103B60002362FEF7C9FC10BD030070B563331B78F8
:103B7000050018000841012204001440104223D11E
:103B8000002B1AD0134203D1134102241340E41A2C
:103B90002B00002262339A56A2420CD000221C70E5
:103BA0000A4B1A70EB6D934201D002209847002116
:103BB0002800FEF785FD200070BD0124280004497F
:103BC000FFF7C2FF6442E3E70C00E1E70C060020C8
:103BD00054D4000010B50A4C00290BD10122210059
:103BE000824063310B78200093430B706221615651
:103BF000FFF7BAFFE36D002B01D00120984710BDFD
:103C0000D82A002010B504002200104B10480F32B3
:103C100012D15A7B002A0FD01A7B002A0CD0052221
:103C20000C49DA72FFF790FF02230B4A0B490C484C
:103C3000FFF78CFC200010BD0622DA72E343094A2C
:103C40009B009958FFF780FFF4E7C046642C0020E2
:103C5000D82A002002D7000024DC00008CDE0000FF
:103C6000282C0020F0D8000003000A0070B50500E1
:103C700051CA51C3143111CA11C308000C0009F014
:103C8000DEFA421C280021001430FFF7BFFB280099
:103C900070BD0023036043608360C36003610375EC
:103CA00070470000F7B5C0241E4A64022388002B29
:103CB00003D093422FD04034F8E7E7B23D007B1C9D
:103CC000FF33194E01932B88184A013B9BB2934254
:103CD00023D829003000FFF7C7FF019B403540364D
:103CE0009D42F0D10026124D6308EB61114B2B80F1
:103CF0003A880C4B9A4209D00B4BB919F018FFF7D0
:103D0000B3FF2B7DDB07FCD50B4B2B80802340368C
:103D10005B009E42ECD12000FEBD01235B4233805C
:103D2000DBE7C046FFFF000030110020FDFF000070
:103D30000040004102A5FFFF04A5FFFF054B400026
:103D4000C35A054A0548934202D0C022520298182D
:103D50007047C04600230020FFFF0000CC05002074
:103D6000FA23F7B500911A4A8688040017005B0011
:103D70009E422AD2174B914202D0C02252028B1887
:103D800000251B8801932F000135BE4206D938005B
:103D9000FFF7D4FF019A03889342F4D9F21B0E4E29
:103DA0007B00680099195200801909F061F8009AA7
:103DB0007B009A5301232000A1885B42013189B224
:103DC0002381A1801030FFF76FFC3800FEBDC04694
:103DD000FFFF0000CC0500200023002070B50D007F
:103DE000104EC1880400C580B14203D00A001030D3
:103DF000FFF768FCB54214D02800FFF79FFF0A4B7D
:103E000001881A006C3211800122783310342900A5
:103E100020001A802A00FFF755FC29002000FFF738
:103E200069FC70BDFFFF00001C2A002070B5154D15
:103E300004002B88002B24D0002200236868A96886
:103E400008F022FB00280DD000220023E868296931
:103E500008F01AFB002805D06B88002B02D12B7DBF
:103E6000002B0ED008492000FFF77AFF0100050063
:103E70002000FFF7B3FF2000A288691C1030FFF775
:103E800021FC70BDCC050020FFFF0000F8B5050047
:103E90000E0000248788A74210D92000FFF74EFFAC
:103EA0000388B34208D121002800FFF797FF0123C0
:103EB0005B422B812000F8BD0134ECE7004CF9E7B0
:103EC000FFFF00000E4B0122DB8E10B5002B07D048
:103ED0000C4CE35C2F2B03D05C3B5A425341DAB2CB
:103EE000002902D1437B934209D003234273002A65
:103EF00000D1037B044A05490548FFF727FB10BDA5
:103F0000A00400200B06002024DC00008CDE000052
:103F1000282C002070B50C4D2800FFF70FFD0B4E2C
:103F2000040000213000FFF7CDFF022C0AD1290048
:103F30000748FFF7E9FC737B002B03D000210548FD
:103F4000FEF7BEFB70BDC046A0040020642C00201C
:103F50006F2C0020D82A0020002110B50400C17267
:103F60000348FFF7F1FD01212000FFF7ABFF10BD73
:103F7000D82A002070B5C37A04000D00042B01D9A3
:103F8000FFF7EAFF03232900E3720448FFF78BFCE5
:103F900000210348FFF796FD70BDC046A004002035
:103FA000153F0000F8B50F4B62241A0063321778F2
:103FB0001C570223FA0701D5634263410A4E0B4D99
:103FC000320028000A49FFF7C1FA02231F4202D03B
:103FD000013C63426341320028000649FFF7B6FA0C
:103FE000F8BDC046D82A002024DD0000282C00207F
:103FF0006CDE000074DE0000010070B5012825D0E1
:10400000022812D0002806D1124CE57A2000042D97
:1040100002D8FFF757FF70BDFFF79EFF052DFAD1BD
:1040200020000D49FFF7A6FFF5E70A4CE37A032BC2
:1040300003D10A490A48FFF767FC0A4B62331B7831
:104040005BB2013302D02000FFF786FFFFF7AAFF23
:10405000E1E7C046642C002010270000A0040020E7
:104060006F2C0020D82A0020002337B51A00190031
:104070001E48FFF7D5F9E4201D4A1E4B1E4C1A605E
:104080001E4BFF3063651E4BA18CE365208208F058
:104090005DF8002375221900E0851A48FFF7F0F952
:1040A0000321194A1368526831331B780192313267
:1040B00012780B40581E83410A4201D0022213435A
:1040C0002200622563321370104B114A20001A60DF
:1040D00065572900FFF748FD854205D1FFF762FFCC
:1040E00000212000FEF7ECFA37BDC046282C002046
:1040F000053C0000AC2A0020D82A0020A0040020A3
:10410000F93F0000DC2A002084DF000004090020C1
:10411000D53B000010B5020002490348FEF788F9BC
:1041200010BDC0466CD900004004002010B504004A
:104130007B20FDF788FF601E84410748074B6142E2
:104140000140C918D220FDF788FFC0217620FDF775
:104150008FFEFDF7DDFE10BD01304100FFCF840072
:10416000094B10B51C0054336B3424781B78A342E0
:1041700005D0944204D1054A054B07F08CFD10BDD3
:10418000044A054BF9E7C0461C2A00200A8542A1D3
:104190005028A43F6666666666663940F8B50F002B
:1041A00019000D4B060054331B781000002B03D070
:1041B00000220A4B07F06FFD32003B0004000D00A7
:1041C00008F072F9002801D134003D0029000022D6
:1041D0002000FFF7C5FFF8BD1C2A00200000244086
:1041E000F7B5274E0400330054331B780D00254FDC
:1041F000002B00D1244F01226868A968FFF7B0FFA7
:104200000B00216B02000831009154363900200068
:10421000FFF709FA33781D4E002B00D11C4EE868D9
:1042200029690122FFF79CFF0B00216B0200183166
:10423000009120003100FFF7F6F9164E2A88310070
:10424000236B2000FFF717FA236B6A8831002000E8
:104250001033FFF710FA236B20002033A3602600F1
:10426000FEF77AF82000FFF78DF9002329002C369D
:104270003778200033701431FEF7ECF83770F7BD53
:104280001C2A002089D600008FD6000095D6000099
:104290009BD60000A1D6000010B5C37A0400032B02
:1042A00003D110490B30FFF72FFB0F4B0F4A10487B
:1042B0001A6000231A001900FFF7B2F8002320004B
:1042C000190014307522FFF7DBF8E088094B0A4922
:1042D000984202D0FFF732FD01000848FFF780FF47
:1042E00010BDC046A0040020AC2A0020F933000015
:1042F0003C2C0020FFFF0000CC050020980500208A
:10430000F7B5194F0C00BB881600051D8B4215DD53
:10431000FB888B4202D1154B154ADA602000FFF76B
:104320000DFD124C01002000FFF75AFF3100114B28
:10433000114AE3602800FFF7F1F8F7BD8C22310045
:104340002800FDF7CFFFBB889C42F6D1002CF4D0AB
:1043500008223100684608F082FD6A46012369465A
:10436000D380054AE6E7C046642C002030050020D3
:10437000FFFFFF00D6D3D600502C002010B503005D
:10438000024A03490348FFF7E1F810BD5CDE000074
:10439000DCDE00003C2C002070B51B4DC3880400FF
:1043A000AB422FD00289194EAA4227D0C023002049
:1043B0005B02D052164B174A1A8001235B422381BD
:1043C000FFF7DCFF802223689202934202D21B880F
:1043D000AB4203D02000FFF765FC20600E49206847
:1043E000FFF742FC0A4B0B4A0C491A80E28823680B
:1043F000520059184033B152236003E05B00F35A76
:10440000AB42DFD070BDC046FFFF0000002300209C
:104410000040004104A5FFFFCC0500200080FFFF05
:1044200010B504490400FFF79BFCE0802000FFF773
:10443000B3FF10BDFFFF0000002313B5040001927D
:1044400000930A00024B0349FEF714F8200016BD42
:104450008CDF0000782B0020F8B5184F184E3B7801
:10446000022B1AD1174B1B783D2B16D1164B1D680A
:104470005C681648FFF786F80023154A3B701370F6
:1044800020227370134B327013481F3A64001A7065
:10449000FFF778F828006108F8BD300006F002FB4D
:1044A000084B05001B780C003D2B04D10B000200CB
:1044B00005490A604B6002233B70DAE74521002082
:1044C0009200002090000020C8220020B42100208B
:1044D000442100209100002084210020F7B5040031
:1044E000FC224F007F080D00200039001F4B1206F0
:1044F00007F0E4FF1E4E002807D1200039001D4AB6
:104500001D4B07F0C7FF00280ED00022002320001B
:10451000290007F0B9FF194A00281ED030230120D6
:10452000337000233354FEBD002220003900144BA9
:1045300007F0CEFF134A00280FD12B0022000B21D9
:10454000009201933000104A06F0DCFA03001800D4
:10455000013BF25C302AFAD0E3E72000290000900A
:1045600001910B21300006F0CDFADCE783D79741AB
:1045700046210020F168E388B5F8E43EA5D60000A6
:104580000000F03FAAD60000AFD60000F8B5002228
:10459000002304000D0007F077FF002821D1290037
:1045A0002000FFF79BFF0F490F4E0B78421C300095
:1045B0002D2B02D020230D48337008F050FC0C4FF7
:1045C0003800FEF7DFFF31003800FFF717F8094B1E
:1045D0001B783D2B02D1084B1C605D600222074B0B
:1045E0001A70F8BD462100209200002093000020A0
:1045F000B421002090000020C82200204521002086
:10460000F0B58BB00790AE4BC088AE4E984202D04A
:10461000FFF794FB0600AC4F31003800FFF7E0FDD8
:104620003100AA48FFF7DCFDA94B1A00186E596E3D
:104630006B32543312781B78934206D0002A00D193
:104640002EE1A44AA44B07F026FBA44B02000093E2
:1046500038000B00A249FEF7E6FF9D4CA14D230058
:1046600054331B78002B00D19F4DA06DE16D0122CA
:10467000FFF776FD0B009D4902000091924829004A
:10468000FEF7D1FFB3687768029300220023380059
:10469000029907F0F9FE002839D1236E0022049315
:1046A000656E00232900049807F0EEFE002800D074
:1046B000FBE08F4A8F4B2900049807F0ECFA029B2D
:1046C0003A0007F011FA029003916B34237800242A
:1046D000002B00D0E7E0884D7D4B6833188808F048
:1046E0002FFA22002B00070004910298039907F08B
:1046F000D2FA049B040002930D0002000B00380064
:10470000029907F0D1FE002801D1270002950299F5
:10471000380007F073FF794D6B4C02002900200030
:10472000774BFEF7A8FF6A4B0122986DD96DFFF712
:1047300017FD04900591708808F0D2F9049A059B42
:10474000089009913800029907F0A5FA02000B00C1
:104750000898099907F09FFA07F050FF694B02008B
:1047600029002000FEF787FF0F2250216648FDF741
:1047700083FC0F2277201100FDF765FC079B0125C4
:104780009C7A022723002B40180019215F4A2740FA
:104790000893FFF7CBFC3800431E9841AF215B4ADA
:1047A000C0B2FFF7C3FC0423234018000493F52292
:1047B000431E98416421C0B25200FFF7B7FC0823A2
:1047C0002340180007939122431E98416421C0B2F0
:1047D0009200FFF7ABFC4E4B0022B168706807F007
:1047E0005AFA2A00FFF7BCFC089B0D000290002B30
:1047F0005DD1391E03D0802307001B06E9183A005B
:104800000B004448FEF78EFF314F3B006A331B78A4
:10481000002B02D080231B06ED18079B002B48D0ED
:1048200080231B06ED182B00029A3B48FEF77AFF07
:104830000122F0683169FFF793FC3B006A331B7873
:10484000002B02D080231B06C9183B0057331B786E
:10485000002B01D118001900002502000B002F4881
:104860005637FEF75FFF3B78AB4209D000220023AA
:104870007068B16807F008FEA84201D1C6252D0472
:104880000023A20700D02B00254A53600C231C40B4
:10489000631E9C41234B644225405D600BB0F0BD1C
:1048A000214A224BCFE6224D16E7049F2EE7029FB6
:1048B000A5E7049B002BB6D11D000293B3E7C046C9
:1048C000FFFF0000CC0500209805002064050020B3
:1048D0001C2A002091F2A3FC283F0A4004DD0000BE
:1048E00027DA00009BD60000B4D600000CDD0000E3
:1048F00083C8C96D305FD43F00002840BAD600009D
:1049000014DD00001CDD0000782B002017020000E1
:104910000000E03F5C2D0020F02D0020842E0020C0
:10492000042D0020982D0020FC87F4DBD781D33F95
:1049300000408F4070B50D00054C2000FFF72CFDA6
:1049400029002000FFF74AFA2000FFF759FE70BD4A
:10495000642C002070B50D4D2800FEF7EFFF0228F3
:104960000ED10B4C0B4BE18899420AD12000FFF786
:104970005DFA2000FFF744FE29000748FEF7C4FF58
:1049800070BD0A000548FEF79DFEF2E7E80400202E
:10499000642C0020FFFF00006F2C0020742C0020EE
:1049A00070B5002901D1C021490280250131FF31B4
:1049B000AD024A1EFF3A140013001E68013606D0ED
:1049C000084B5208DA61084A1A80200070BD04338F
:1049D0008B42F2D1591CFF31AB42EAD3FFF720FDE5
:1049E0000024F2E70040004102A5FFFF13B50022BA
:1049F0000800019101A908F0D5FC019B264C2080FC
:104A0000581C01901B782C2B02D00220404216BD6E
:104A100001A906F0B3F8019B6060581CA1600190E9
:104A20001B782C2BF1D101A906F0A8F8019BE060BE
:104A3000581C216101901B782C2BE6D1002201A982
:104A400008F0B0FC019B6080591C01911A782C2A57
:104A5000DBD15A781148222A19D10021023301935F
:104A6000019A531C01931378222B04D15378222BE3
:104A70000BD1023201924354002B02D001312A297A
:104A8000EED100203F342070C1E70023F3E72B2252
:104A900008F0DCFBF5E7C046CC050020E00500206F
:104AA000F8B51A4F0A0006000D0038000D2108F075
:104AB000BDF9041E03D101256D422800F8BDC21BBB
:104AC000272AF8D13800124908F0BBF9071EF2D1A5
:104AD0000134283D2A000D21200008F0A7F9002804
:104AE000E9D007700130001B2D1A21003000FFF7BC
:104AF0007DFF0028DFDB074B1A00543212786B333E
:104B00001A70C0235B023360B780D6E730110020F3
:104B100073D700001C2A0020F0B585B006000D00F8
:104B200014000393002B27D0224F1A000D213800C8
:104B300008F07CF9002839D000230370C01B431C07
:104B40000193EB1A220029001800029308F090F953
:104B5000029B3900019A181908F081F93000029976
:104B6000FFF744FF00281FDB3000FFF759FC019BD3
:104B7000019ADD19039B9C1A22000D21280008F0E0
:104B800055F900280FD00023471B0370290030007F
:104B90000137FFF72BFF002806DB3000FFF740FC52
:104BA000ED19E41BE8E7200005B0F0BD012040420C
:104BB000FAE7C0463011002070B504008B1C08D005
:104BC0004B1C0CD106231649C3721648FEF7BCFFD6
:104BD00070BD06231449C3721248FEF7B5FF134D8A
:104BE00001222B0078331A8080232000DB05A3628A
:104BF000236300211030FDF77FFC0D48FFF749F8D3
:104C000001235B42E3806C3529882000FFF73EF9E1
:104C10002000FFF7F5FC2000FFF73EFBD8E7C04679
:104C200055D70000D82A00202ED700001C2A0020CB
:104C3000CC05002010B529220249034808F00FF9DD
:104C4000024810BD73D70000301100205911002018
:104C5000F0B583880D00002087B0934229D9100059
:104C6000FFF76CF8040001226068A168FFF778FA8A
:104C7000012206000F00E0682169FFF771FA6388DE
:104C8000228802900391009601972800114904930D
:104C900005F05AFF22262D1814343100200008F0A8
:104CA000C0FA002807D1220028000B4905F04CFF6C
:104CB000281807B0F0BD0023001B421CE15CE9543A
:104CC000190001338842F9D1A4180230AA181670CD
:104CD0002D18E2E7BED60000D0D6000010B50021A6
:104CE0000148FDF7EDFC10BDD82A00200068C00384
:104CF000C00E0C2801D90C3870470028FCD10C30AC
:104D0000FAE70000F0B587B004900591037B002B13
:104D100000D187E01626444C05AD2000FDF71CFBB2
:104D20002800FFF7E3FF172729786E448906890ECC
:104D300033783288039129886F440905890E0190E0
:104D4000029139783948890809189B069205DB0ECB
:104D5000120F009120003649FDF76AFB2300002264
:104D60002C331A70059B3349DB03DB0E0B2B00D869
:104D700031492000FEF742FC20003021FEF7EEFB17
:104D80002C34049B2070DB7A042B4BD12B4C2C4B06
:104D90002000A360FDF7E0FA30888005000FFFF7E0
:104DA000B9F9284B2000A360FDF7D6FA30788006C9
:104DB000C00EFFF7AFF9244B2000A360FDF7CCFA3B
:104DC000387880081430FFF7A5F9204B2000A36045
:104DD000FDF7C2FA2800FFF789FFFFF79BF91C4B8C
:104DE0002000A360FDF7B8FA28880005800EFFF7C1
:104DF00091F9184B2000A360FDF7AEFA28788006E1
:104E0000800EFFF787F9144B2000A360FDF7A4FA8A
:104E1000059B1249DB03DB0E0B2B00D81049200049
:104E2000FDF718FB07B0F0BD70040020E407000098
:104E3000DED60000D6D60000DAD6000040040020FE
:104E40009CDB0000A4DB0000ACDB0000B4DB000056
:104E5000BCDB0000C4DB0000CCDB0000D7D60000C8
:104E6000DBD60000F0B585B00392C67A04000D00D1
:104E7000012E40D1072909D0092900D093E0002054
:104E8000BE4BE0721870FFF779FA8CE0C5882800F5
:104E9000FEF754FFBA4B2E00984226D1FEF7F9FEDA
:104EA000A288B84B013A92B26800A280811C521BC2
:104EB000C918C018520007F0DBFFA388AB4204D822
:104EC0006E1E31002000FEF789FF250010352800F6
:104ED000A188FEF7E9FBA288280031000132FEF725
:104EE000F1FB2000FFF78CFBC9E70023A64A0380F3
:104EF000A64B1A80D4E7002957D1A54B1B78002B6D
:104F000051D0FFF7A9FA0022A24B06000F0007F0CC
:104F1000CBFA002801D100269E4F3900300007F05F
:104F20006DFB05002000FFF737FA29002000FEF78F
:104F3000ADFF994A030090421DD19849984A0968EB
:104F4000914223D1E0888E4E984218D0002D16D180
:104F50008C4A41008A5A9A4205D0FEF7EFFE0100C2
:104F60003000FEF781FE20008B493580FEF736FFCA
:104F70002000FEF75BFF2000FFF742FB13E03388C1
:104F8000002BF0D03000FEF784FEECE7854C864B1A
:104F90002000A360FDF7E0F92000FEF7F3FA2000FF
:104FA0008249FEF72BFB05B0F0BD062900D933E19D
:104FB000774B1B78002B14D1042912D0C088764A75
:104FC0006F4B904202D0FEF7B9FE0300681E052821
:104FD000E9D807F0A7F8C300BD00C900E8FF0D013C
:104FE000CD00FFF739FA07000E00042D1FD8E08826
:104FF000694A90421BD0634943005B5A934216D0E2
:10500000FEF79CFE01005E48FEF72EFE634A644BED
:1050100012689A4213D1E3885A4A5B009A5A594956
:1050200022810122022052425A52FFF7A7F9A81EFC
:1050300004282CD807F06CF810353F66590000237F
:105040004F4A5B481380026B1370FEF79BFA2000F7
:105050005149FEF7C3FEEAE7002238003100554B04
:1050600007F022FA002801D10027524E3800310003
:1050700007F000FD424B5880E188474B994200D130
:1050800076E720000A001030FEF71CFB73E74A4B5E
:1050900038003100494AFFF781F8394B5860996070
:1050A000EAE7474B38003100464AFFF777F8344BC0
:1050B000D8601961E0E7444B3D4D198C039B591AA8
:1050C000E37A022B09D002232800E372FEF7EBFB00
:1050D00000213E48FEF7F6FC65E72800FEF758FB86
:1050E00001002800FEF7C5FB5DE7394A394B38005F
:1050F0003100FFF753F80122374B9865D9657833B3
:105100001A80B9E7002238003100344B07F0CCF99F
:10511000002801D10700314E2F4D2B002A006B33A0
:1051200054321B7812789A4209D0002B0DD12C4AA8
:105130002C4B3800310006F0AEFD07000E000122B6
:105140002F666E6678352A8096E7274A274BF0E768
:10515000588807F0F5FCFFF719FA24E70122586890
:105160009968FEF7FDFFF6E70122D8681969F8E7AC
:10517000194B0122986DD96DF3E7C046FD2600203A
:10518000CC0500200023002004A5FFFF00400041C3
:105190004521002000388F40FFFF0000A4070020B9
:1051A0003C2C002098050020CCDC0000F9D6000043
:1051B000E804002000C058407CFF2340736891ED54
:1051C000EFFF58400E2DB29DB4DE0000554900009F
:1051D0001EA7E8482EFFEF3F1C2A00208087C3400F
:1051E00091F2A3FC283F0A40FC87F4DBD781D33F30
:1051F000BC4B1A00186E596E6B32543312781B7800
:105200009342A8D0002A04D0B74AB84B06F043FD19
:10521000A1E7B74AB74BF9E7C81F0D2800D9C2E686
:1052200006F08AFF0E00260055006300D0000A0138
:105230008800C2003E014701150122012A01350103
:105240002000FFF7A9F8E37A022B04D12000AA4935
:105250000B30FEF759FB1020FCF728FE8023984303
:10526000FCF746FE0022A54B1A60FEF735F99AE6D8
:10527000E388A34A934203D1A248FEF70AFD7AE6E7
:10528000A14D5B005B5B93421FD122899A421CD0E7
:105290009C48FEF7FEFCE38822895B005A530123F9
:1052A0002000E1885B4223810A001030FEF70AFAF1
:1052B0000020FFF763F8E37A022B00D05BE62000C2
:1052C0008D490B30FEF720FB55E60120D8E5200084
:1052D000FFF762F8E37A022B04D1200086490B30F5
:1052E000FEF712FBFEF7C0FE5DE6E088844B9842B5
:1052F00014D0854D4200525B9A420FD0FEF71EFD3E
:1053000001008048FEF7B0FCE38802205B005A5B96
:105310002281012252425A53FFF730F80025764E7F
:10532000336B30001D70FEF72DF902232900300089
:10533000E372CBE60027042E00D934E60123734E36
:10534000734D3200280073497B402773FEF7FEF847
:105350003B00320028007049FEF7F8F8637B002B11
:1053600005D13B0028006D4A6D49FEF7EFF8FF229A
:105370006C4E002F1AD0310000262800FCF7B2FF37
:1053800033002800684A69490096FCF78BFF330018
:105390002800674A67490096FCF784FF664B2000A7
:1053A0001969FFF7AFFCFEE50127C4E72800614952
:1053B000FCF798FF3B0031002800604A0097FCF79B
:1053C00071FFF0E5032E0BD120005D490B30FEF795
:1053D0009BFA637B5B4D002B0FD00021280009E076
:1053E000042EF6D92000FEF7B7FD052E00D0DAE531
:1053F00001215448FDF764F9D5E5237B524E534C07
:10540000002B13D02E21200007F00BFF002803D122
:1054100020004F4907F0F8FE0B236222AA560093A2
:10542000023B21003000FEF77BFBBCE50623622235
:10543000AA5600930233F4E7042E04D9454920000C
:10544000FEF798FDAFE52000FEF726FFABE5424BE7
:105450001988039B591A032EF1D1394C2000FEF70D
:1054600097F9010020003DE600253548036B1D70CB
:10547000FEF788F82900E2E7324800210300633391
:105480001B78DB0700D48EE5FEF76EFB8BE52D481D
:10549000030063331B789B0700D484E50121F3E705
:1054A000052E00D17FE5237B002B00D17BE5042E68
:1054B00008D10023752219002848FDF7E1FF0023D9
:1054C000E37270E5032E04D120001D490B30FEF776
:1054D0001BFA0023752219002148FDF7D1FF042390
:1054E000E3725BE71C2A002091F2A3FC283F0A40EC
:1054F000FC87F4DBD781D33FE8040020A407002019
:10550000FFFF0000CC0500200023002024DD000068
:10551000282C00207CDE000084DE000024DC00005B
:105520008CDE0000ACDE000054DE000094DE0000E3
:105530004CDE0000A4DE0000001400400CDC000083
:10554000A0040020D82A0020AC2A00200C0600204D
:10555000FDD600001027000064DE0000DC2A0020D9
:10556000982A002037B5050006281ED0FEF774FFE4
:1055700007F044F80300052D09D1464A904201D8AE
:10558000133A8318444A9A183F2A02D937BD3B2858
:10559000FCD8424C22690192062D10D8280006F052
:1055A000B7FD0616203C465059000023F1E73F2185
:1055B0000B40180001AA13788B4303431370019B1F
:1055C0002361A37ADB09FCD1354B6380DEE73F2002
:1055D00001AA18403349138880010B40034313800C
:1055E000EDE7019A1F20D5032F49ED0E0B2D0BD9A6
:1055F0001D0005400B2B02D80C331D0005402D0368
:105600000A4015430195DAE70C2B00D1002318401E
:1056100000030A4002430192D1E76A461F203E215F
:105620001840937940008B4303439371C7E76A4660
:105630000F201E491840D38880010B400343D380BC
:10564000BDE76A460321D0791C339B000840034321
:10565000D371B4E701A8FFF749FB019B1F25D903CC
:10566000114AC90E0B290BD8010029400B2802D87A
:1056700001000C31294009031340194301919EE7B1
:105680000C2800D10020284000031340184301904B
:1056900095E7C046E30700001CF8FFFF0014004038
:1056A00010C0FFFF3FF0FFFFFF0FFEFF3FFCFFFFBB
:1056B000F7B5E64A0123116808001840194209D1DC
:1056C0001360E34B00900193E24AE34BE349E44863
:1056D000FCF7D0FE0125E34B1A682A420DD11D606C
:1056E000E14BE24C0193E24B20000093E14AE24B94
:1056F000DA492D34FCF7BEFE25700122DF4B196814
:1057000011420AD11A608C230193DD4BDD4A0093CC
:10571000DD49D94BDD48FCF7FFFD0124DC4B1A685D
:10572000224200D11C60DB4B1A681100214022424A
:105730000FD1D94D1C60D94ED94B00910193320045
:10574000CD4B2800C549FCF795FE2B002D331C706E
:105750002E630125D34B1A682A4210D11D60FF2306
:10576000D14CD24E0193C04B320000932000C24B6B
:10577000CF49FCF77FFE23002D331D7026630125E2
:10578000CC4B1A682A4210D11D608C23CA4CCB4ED8
:105790000193BB4B320000932000B74BC849FCF784
:1057A00069FE23002D331D702663C64B01251A6840
:1057B00016002E402A422AD1C34C1D60BC4B20004B
:1057C0002360AD4B10226360C04B3100A360A64B39
:1057D0001830E360FF23236107F05DFB0222BC4920
:1057E000BC4B21632B216361631DDA77AF4BA1862C
:1057F0001A8CA11C22855A8CCE87DB8C211D6285D8
:10580000A685E461CA87A21D0834D587E387B24B19
:1058100001261A6817003740324229D1AF4C1E606A
:10582000AF4B20002360944BAE4D63608E4BA56060
:10583000E360FF23102223613900183007F02BFBAF
:105840000222A44BA7856361631DDA77A64A2B88E1
:105850002263FF222385A2866B88A21CD787221D84
:105860006385D387A31DDE87EB88E4610834E38773
:1058700001229E4B196811420AD11A60FF2301933D
:10588000794B9B4A009396497B4B9A48FCF7F2FD73
:10589000994A0123116808001840194209D1136080
:1058A000714B00900193954A954B96499648FCF7A9
:1058B00033FD0125954B1A682A420DD11D60944B8A
:1058C000944C0193684B20000093934A8C4B63499E
:1058D0002D34FCF7CFFD2570904B01221868010094
:1058E000114010420BD180201A608D4BC00098806F
:1058F0005881A938FF38196098819A731961894BCA
:1059000001261A6817003740324229D1864C1E60A2
:10591000864B20002360584B854D6360524BA56039
:10592000E360FF23102223613900183007F0B3FA37
:105930000222684BA7856361631DDA776A4A2B8868
:105940002263FF222385A2866B88A21CD787221D93
:105950006385D387A31DDE87EB88E4610834E38782
:105960000122744B196811420AD11A60FF23019376
:105970003D4B714A00936D493F4B7048FCF7CCFC9E
:1059800001226F4B1968114211D11A606D4B674AA1
:1059900067491A60FF2212029A60334AC88FDA60A0
:1059A000694A5A608A8F8242924152421A75012294
:1059B000664B1968114214D11A606549654A6648F8
:1059C000FEF73AFD654A66496648FEF735FD614ACD
:1059D00065496648FEF730FD604A65496548FEF74F
:1059E0002BFD654A0123116808001840194209D1AE
:1059F00013601D4B00900193604A614B1749614849
:105A0000FCF738FD604A012311680D001D40194262
:105A100000D0C5E05D4C13602000104B5C4E23604D
:105A2000154B10226360104B29002361A660E560CE
:105A3000183007F030FA0222564BE4616361631DAF
:105A4000DA773388A5852385A6E0C0466401002067
:105A500000FFFF002CDC00006CE00000782B002031
:105A60006C07002060010020FFFFFF003C070020C2
:105A70008482840044DC00008CDF00005C01002094
:105A8000D6D3D600FCDB0000C42A00200C0700207F
:105A9000580100205401002098050020CCDC0000B3
:105AA000FFFFC6005001002064050020B4DE0000A6
:105AB0003C2C00204C01002030050020E4DE0000DA
:105AC000502C002048010020E8040020D4DE000013
:105AD000E0050020C51F000044010020A0040020B4
