:10000000C0340020415B0000119E00003D5B0000F9
:1000100000000000000000000000000000000000E0
:100020000000000000000000000000003D5B000038
:1000300000000000000000003D5B00003D5B000090
:100040003D5B00003D5B00003D5B00003D5B000050
:10005000B19E00003D5B00003D5B0000D5AB0000A1
:100060003D5B0000159D0000799D00003D5B000098
:100070003D5B00003D5B00003D5B00003D5B000020
:100080003D5B00003D5B00003D5B00003D5B000010
:100090003D5B00003D5B00003D5B00003D5B000000
:1000A0003D5B00003D5B00003D5B00003D5B0000F0
:1000B000000000003D5B000010B5064C2378002BCB
:1000C00007D1054B002B02D0044800E000BF0123FC
:1000D000237010BDA801002000000000A4F400005F
:1000E000044B10B5002B03D00349044800E000BFC7
:1000F00010BDC04600000000AC010020A4F40000C8
:1001000010B50D4A0B8801889B1889180C7A1A7A49
:10011000A24205D10933180009310DF073FA10BD60
:100120000120022A05D0022CF9D08242F7D10238F0
:10013000F5E74042F3E7C046C81100200300402124
:100140000A4A807D1278400152028018084A8018BD
:100150001A7D8A431A751B681B011A094283012202
:100160001B0D8382034B1B681A717047C41100205A
:10017000A0090020C01100200C4A30B50023140053
:10018000156885420CD155798D4209D1084A094834
:100190001370DA00A418084A5B021460181830BD06
:1001A00001330832042BEBD10020F8E7A011002026
:1001B000C4110020A0090020C01100200C4BCAB2BD
:1001C00070B5D400E4182379002B05D10023012059
:1001D0002371A371404270BD064903685202DD6875
:1001E000521801232168A8470028F4DBEEE7C04637
:1001F000A0110020A0090020F8B5030004220E4C35
:100200003C331D7821780D4E0131013A032900D984
:100210000021CB009B191F79002F02D05F79AF42DC
:10022000F2D19F79002F01D0002AEDDA044A217023
:100230001360FFF7C3FFF8BDC4110020A011002018
:10024000C011002070B506000D003C360400317866
:100250002800FFF791FF00280ED12000FFF7CCFF08
:10026000431C08D1064B32781B681D605A7140232D
:10027000627D1343637570BD01204042FBE7C046B9
:10028000C011002070B5514B05001C78504B640222
:10029000E41822684F4B9A420ED14F4B62689A4243
:1002A0000AD1236DA16C0381636D43811023037513
:1002B0002800FFF7C7FF64E0FF235B00E25A474BCB
:1002C0009A4210D18022237BE17A1B02444E920095
:1002D0000B4393420AD02B00002231331A7033684B
:1002E0001B68934260D00B2040424AE02B00607BA9
:1002F0002C3318700CF00EFB2B002D331870236973
:100300001A028023120C5B019A42E4D22B001211D4
:100310002F331A70217C013B1970E38A002B00D126
:10032000636A2B624B4331689A180968E38959184C
:10033000A961511869629A18237DE17C1B020B4365
:1003400000D1236A9B1A274A034193421ADC264AAA
:100350009342C0DD802021002A8E4000520A5202C2
:10036000024324312A860133EB610223AB628B7C8A
:10037000462BB0D1CB7C412BADD10B7D0020542B33
:10038000A9D170BD290002223131087802430A70D8
:10039000E26AFF2A9FD8218D00299CD128002100E4
:1003A000303040310270DEE72300FF34BF33FF33CB
:1003B000FF341A79002A04D059891A890904114393
:1003C00076E71033A342F4D18DE7C046C411002074
:1003D000A0090020454649205041525455AA00002A
:1003E000C0110020F4FF0000F40F000030B504003D
:1003F0001800591A88420FD0002807DD13780132FF
:1004000023701B0A637001380234F3E703005D1E9A
:10041000AB415B429BB2F3E730BD03001A002D32C3
:100420001278881E9040596A40187047313003781E
:1004300088009B0700D44800704710B50400FFF700
:10044000F5FFA369400AC01810BD10B50400FFF7FE
:10045000F4FF01002000FFF7F5FE431C06D13F2208
:10046000637D93431A0001231343637510BD10B5D8
:10047000816A0400FFF7E9FF431C06D13F22637D38
:1004800093431A0002231343637510BDF8B5042586
:100490000B000A69097D8468294202D0A943013A08
:1004A000197505002D352D78610AE940520A0F00B3
:1004B000EA40914207D21A6808215A6000221D7D45
:1004C0001A618D431D75BA4203D11C6100231800C7
:1004D000F8BD5D68D9792D010909BE1A2D09B1420F
:1004E00008D3C91B751952182D0112072D092A436B
:1004F0005A60EAE702002C3214786402A2B24C1C63
:1005000054431A694919A4180422640A64021C613C
:100510001C7D596022431A7500231207D7D4FFF7B8
:1005200094FF0300D3E7000070B505001400FFF747
:100530007DFF0D4BC0051B78C00D5B0231351B18CC
:100540002A780A481B18D20706D51C800122084BBE
:1005500000201B681A7170BD1A682101120F090969
:1005600012070A431A60F1E7C4110020A009002015
:10057000C011002010B50400FFF758FF2200134BF4
:10058000C0051B78313212495B02C00D12781B186E
:100590005B18D2070CD518889A1C0E4B98420DD9BF
:1005A0000D484A40D20510D18023DB0518430CE0EA
:1005B0001A0001CA030118099033F2D8E36998427E
:1005C00001D80128EDD11520404210BDC4110020F2
:1005D000A0090020F7FF0000FFFFFF0FF7B50D0097
:1005E00000244B681F4F1E0101903609310001980D
:1005F000FFF7C0FF00280DDB02011309002A2ED0EF
:10060000194A93420DD908232A7D13432B75002CD8
:1006100023D100200F22EB79240113401C43EC71FD
:10062000FEBD002C13D104211E002A7D6B608A437D
:100630002A7501344023000E03420ED13100019887
:10064000FFF7FBFE3B681B689842CFD005E0013600
:10065000B34202D10134102CECD1013CD9E7152072
:100660004042DDE7C0110020F7FFFF0F70B5050025
:100670001800934217DC1A00AA18AA4216D00C7868
:100680002B782600613E0231192E01D8203CE4B2BD
:100690001E00613E192E01D8203BDBB201359C4281
:1006A000EBD0002008E001204042E5E7431C03D1E5
:1006B000087843425841404270BD70B505001000B3
:1006C0008A18013A1478202C03D101380028F8D177
:1006D00070BD0024A042FBD00A5D002B05D016009F
:1006E000413E192E01D82032D2B22A550134F1E709
:1006F0000100030000200B314208C00110431A78AA
:1007000001338018C0B28B42F6D1704731230B758C
:1007100003003C331B784B75030031331B789B0778
:1007200004D5303003780B6011230B757047F7B593
:100730000B7807000E000192E52B00D126E1002B7B
:100740000CD1037C7F2B04D8837D002B04D1FF3395
:10075000BB750F204042C5E00133F9E7CA7A3F215B
:100760000A400F2A00D08DE01D0001318D43023A6E
:10077000013D5543427B521B00920B4251D0019BDD
:10078000002B44D000234373737BFB74BB68711C44
:100790005C19019B002B56D03A7B0023AA4200DD56
:1007A000531B00220878002825D0002B02D020708F
:1007B000013B013401320231052AF3D11A20310004
:1007C00084460E31B4440878002814D0002B02D09F
:1007D0002070013B01340231501C8C452AD1317FFD
:1007E00000292ED0002B02D02170013B0134B17FB3
:1007F000002921D102327B7B9A187A73002D00D117
:10080000FF3530784006C00F0230BD746AE0009BAF
:10081000002B02D102200025F7E7009B0D2BB3DD52
:10082000F8E7C27C737B9A42F4D1837C0D3BAB42E8
:10083000F0D1ABE70200C6E7002B00D021700332F5
:10084000D9E70200D7E705232000009AFFF70EFF43
:10085000002814DD3100009B24181B1A009320008F
:100860000623009A0E31FFF701FF002807DD310053
:10087000009B1C311A1A02232018FFF7F7FE0028EC
:10088000BCD1C7E7837CFF2B22D0019B0822BC6828
:10089000002B35D0337B310013402000FFF70DFFD4
:1008A0002E2322181370541C31001022337B0500B4
:1008B0001340200008310D3AFFF7FFFE031E00D160
:1008C000013B002001355AB2ED18A0547D7309E0B8
:1008D0003000FFF70DFFFB7C8342D6D1019B002B3C
:1008E00001D10020FEBD797B3B7B0020BA68994294
:1008F00001D85054F6E7D0543B7B0C2BF1D8C4E719
:1009000008239C463000797BB4440378009320236D
:10091000002908D023781D00613D192D17D8203BF0
:10092000DBB201390134009DAB422BD1013A0130D9
:10093000002AEAD1844517D1002906D023782E2B2E
:1009400014D1013901340332DFE70322DDE72E2B16
:10095000E7D1082AE5D00E3B072AE4D1631E1B78B5
:100960002E2BDED02023DEE70029BAD03000FFF79F
:10097000BFFEFB7D834200D04CE740233A7C13430B
:100980003B7447E7042A00DD44E7EFE7012042E734
:1009900008220B7D70B5934304000D000B759B0678
:1009A00010D503002F331978436A591A7F2000238A
:1009B000227CA3740240A37522742000EB82FFF70F
:1009C00041FC70BD09686960002903D0FFF725FD6F
:1009D0000100EBE715204042F3E770B50600087D03
:1009E000CC7D83060D000134DA0F002B0BDA3300C7
:1009F0002F331978A14229DD736A591A3000611822
:100A0000FFF720FC11E04B68190133002C331B78F1
:100A10000909A34215DCEB791B090AD10007C40FB1
:100A2000002813DB3000FFF710FD0023EC75AB75D9
:100A300070BD14000131013B08011B07000903438D
:100A40006B603000FFF7E9FC0100D7E70F20404260
:100A5000EEE7010030B58B68007B00281AD01C78C7
:100A60005C2C01D02F2C04D101330138F5E71000A4
:100A7000F3E702008B60013A002A05D05D7801336C
:100A80005C2D01D02F2DF6D10A73801A012801D1D7
:100A90002E2CECD030BD0000F0B50D0085B00392D7
:100AA000437B876800910B222021280002930CF0E1
:100AB0000AFC3B78202B03D11420404205B0F0BD46
:100AC000E52B00D189E000247A1C2E2B09D1029B52
:100AD000013B0293002B00D190E07B7801241700AA
:100AE000F2E708223B0001921E7801372E2E45D1F5
:100AF000019A009B94462A00634408320092934274
:100B000034D920232B726B72AB721F3B1C4306231C
:100B10009C43033B0193029B013B0293002B23D197
:100B2000630703D5A3075DD520231C4301232600BB
:100B30001E401C4212D0039BA91D092B04D9039B04
:100B4000291D632B00D8691D7E230B702C7A0A2285
:100B5000039801310CF07EFB2C7234001823212005
:100B600023402B732040A9E73B00BDE76307CED5A8
:100B7000A30701D52023C9E70823C7E71F2E9BD968
:100B8000202E02D101231C43C5E73300613B192B02
:100B90000FD80423203EF6B21C43019B002BF1D05A
:100BA000009B1E70019B013B0193009B013300934E
:100BB000B1E73300413B192B01D80223ECE73100A8
:100BC0000F480CF046FD0028E7D00E4B984200D3AA
:100BD00072E701235F261C43DFE708230526002474
:100BE0000193DDE7019A009B94462A006344083292
:100BF000934201D9102398E7082396E740205DE748
:100C000099D80000A3D800007FB50D006946040004
:100C10001600FFF741FF002810DB09D1A8746846D1
:100C2000FFF766FD2900E0752000FFF7B1FE05E043
:100C3000AE74012EF3DD01231840F0D104B070BD75
:100C4000F0B585B001930B7D05000C0016009B06E6
:100C50003DD503002F3318786B6A181A2B00E77DF7
:100C60003C333F1819783800FFF786FA390000281E
:100C700000D1E8E08D4B1A788D4B52029619F61888
:100C800031002800019AFFF752FD0090002874DB24
:100C90002F7C002800D0E0E00E22F37A134201D02E
:100CA000BA0607D5019A002A29D01022134214D07F
:100CB000174218D1A37D20360133A3757C4B7340B6
:100CC000DB05DDD121002800FFF787FE54E04B68EB
:100CD00019010909FFF7A1FBC0E708221342E7D079
:100CE00018231F42E6D11C236A7C013A5A43714BF8
:100CF0009B1862685A60A27D9A75E27DDA756E4B28
:100D00001E60207D738B8207A3802380920FB18A9F
:100D1000029203229043029AE180104361801943BA
:100D2000039048424841830013433F22C0000343DD
:100D3000039813409043102203432375F07A104226
:100D400026D013432375002903D121002800FFF783
:100D5000DDFC019B002B13D1AA686B7B2800D31804
:100D6000AB60FFF776FEC0B26873002808D001229E
:100D700021002800FFF748FF0090009805B0F0BD63
:100D8000FB060BD507233B40032B14D1112306E0B0
:100D90000823184206D010331F42F3D00F235B42C2
:100DA0000093EAE7019A002A02D12A7B002AF5D1B2
:100DB0001F42E7D1F2E704233A001A401F4246D00F
:100DC000227DD006C10F03985307170701919106A2
:100DD000DB0FFF0FC90F800600D5012103208740DC
:100DE0009B0003431F43019B490118013F233843E4
:100DF0009A4301430A432275AB7CFF2B03D1A268BF
:100E00006260228AE282328B6282F28A2282FF2B25
:100E10001ED10722F369A3602B7C1340012BACD1B8
:100E200021680029A9D0227D14332B7537339A43CA
:100E3000134323750023280023606360A360A96027
:100E4000FFF7FBFA01002800FFF7FCF994E72261A5
:100E50001A4B1B681B68A361DBE704230421AA7DEE
:100E60003B400F420ED0009B032B00D022E763686B
:100E7000A360E38A2382114B1B681B68A361531C88
:100E8000AB7517E779B2002900DA13E70099012959
:100E9000F6D1002AEBD00D235343697B8B42EEDB66
:100EA00080235B421F432F74E9E7C046C411002032
:100EB000A00900204808002098090020C011002047
:100EC0008B7D10B55A01102B02D1FFF786FD10BDA6
:100ED0000123FFF7B5FEFAE770B58A7C04000D0028
:100EE000002A0CD04021037C0B4213D1607B0D21E2
:100EF0000C300BF043FB402382B21343A374237DD9
:100F000002332375A37D002B0FD12B7D9B0634D597
:100F1000122037E0FF2A34D08B43037429000132BA
:100F2000FFF772FE0028E1DA70BDFF2B1DD1164BD2
:100F30001B681B68AB6101239A4211DB287DE97DA8
:100F4000800617D520002F300078411A022907DCCF
:100F5000A87D1B1A0F33022900D110339A42D4DA2C
:100F60002000A969FFF76EF9DEE7A9686960298AA0
:100F7000E982E1E720002C30E6E72000FFF777FA6E
:100F8000D2E714204042CFE7C0110020F7B58B7D97
:100F900004000193019A0E005B01102A06D1310072
:100FA0002000FFF71AFD00900098FEBD724A877C72
:100FB00015786D02ED18714BED182B78E52B02D0EA
:100FC000002B00D0D1E001226D4B1B681A71002F5D
:100FD00032D00F23EB7200232F702B736B83E37DD2
:100FE00005216B7340239F43013F333B7B43A26842
:100FF000681CD2180092627BD31A009AFFF7F6F9A8
:1010000003002800009A062105320E30FFF7EEF9A2
:1010100003002800009A02210B321C30FFF7E6F98A
:10102000019B203501330193544B6B40DB05C4D148
:10103000019BA774B375B2E7B27C29002000FFF7CB
:101040002BFD402302001A400092184200D090E08D
:101050002800203B1322EB7239000D300CF033F9DD
:1010600007F0B2F8E88200142883327D3B00920634
:1010700006D42200303233681278934200D13B000C
:101080001C2700213A00636030000CF01CF923009B
:101090000F223C331B7820007375019BB375384BCE
:1010A0001B681B68B361337D93431A000D23134300
:1010B0003375A268637BD318A360FFF7CAFCC0B284
:1010C000237D607300280BD0023B23751023327DF3
:1010D0002000134333753023EB72FFF7C8F962E742
:1010E000062B3CD13075667C264B711E4F43D819B8
:1010F0004388AB82234BFB5A87696B8383683A0032
:10110000EB61438A2B83038AEB82FF231A409446C8
:10111000626A007D13406246D31A820619D5200008
:101120002F300078C3181C204143164A5218D3753B
:10113000137DDB0601D53023EB720122104B390001
:101140001B6820001A710823E6732375FFF77AF8ED
:1011500029E720002C30007801380340E3E7237CA6
:10116000DB0600D420E70223AFE716235B4200939F
:101170001AE71423FAE7C046C4110020A009002092
:10118000C011002048080020F0B5037D040087B09E
:10119000012B50D903681B6998470500431C4AD0AE
:1011A000607D402302001A40002D03DA002A14D18A
:1011B000258232E2002A19D09843BF4B60751A7815
:1011C000BE4B5202D218BE4B200019682368096832
:1011D0009D680123A847051E2DDA7F22637D934376
:1011E0006375B74B803A1B681A60E1E7E37B8006C2
:1011F000013B01931C23019FB24E5F43800E0138D7
:10120000BF19042814D80BF0AFF905000B009E009D
:10121000AF00460139002000FFF7E0F9050007E0C4
:10122000A56A29002000FFF7A5F9002805DA0500C6
:101230006B1C00D016E107B0F0BD030169D1290095
:10124000A14A2000FFF770F91C22019B0C265A438B
:1012500013009C4810331B181979B14319711358A6
:101260008118002B46D10E7D403333430B75DB06CE
:1012700015504D60DD0F002B1BDA3F22637DA16A04
:1012800093431A0004231343637523002C331D7802
:101290002000013DEDB2A573FFF7BFF81C22019BB2
:1012A0002D185A43874B20009B189D60FEF7A4FF22
:1012B000B4E73F22637D93436375227D901E162819
:1012C000B9D80BF051F9F500030103011E011E010D
:1012D000A902A90223012301230127023A020A03DA
:1012E0000E031F036502650250023F02EE02EE028A
:1012F000470380024968200009010909FFF7A5F8A2
:101300003F22637D050093431A0003231343637553
:101310008EE7E3690135AB420ED12200042331325E
:101320001178194200D028E30B4313700223A36203
:101330002000FFF79CF871E74023060EA5623342B8
:1013400000D16EE7F4E7019A20005343F618736862
:10135000A26A19010909FFF7E7F8337D0500DB06EA
:101360008BD4A36A736063E7019A5343F3189B68B5
:101370000393A37B029323002C331B78029A013B37
:10138000DBB29A4209D180224B4B002118784B4B9B
:101390004002C01892000BF096FF2200484B3C32EE
:1013A0001B68127803995A71012219601A71029B05
:1013B000002B5FD11C263F21019B029A5E43414BCB
:1013C0009B199A60627D8A4362751A7D520646D5E2
:1013D000394B1D78394B6D02ED1806F0F5FE394B8F
:1013E0006A1CF6582E2320212B7002900592681C4F
:1013F0000A220BF068FF029A330CEA8212142A8345
:1014000003921022AB822E23EA72681C6E83202185
:101410006668063AC37720300BF055FF10212E2264
:101420000298330CE8860398AB866E8728872B35A5
:10143000297005994B1CDA77237D022B05D03F23B9
:10144000627D9A433A3B134363751C22019B5A43C6
:101450001C4B9B1820009969FEF7F4FEDEE6A27D86
:10146000002AF7D13F22637D93436375002D00DB93
:1014700023E79DE6104B20001978FEF79FFE1C2302
:10148000019A05005343F618039B013BB360029B8E
:10149000013BA373CCE63800FEF750FE3F22637D8C
:1014A00039009343200063753E3AFFF7ADFBB5E684
:1014B0003800FEF743FE7BE6C4110020A00900209F
:1014C000C011002048080020FFFFFF0F0023390053
:1014D0001A002000FFF7B4FB0500431C00D1AAE668
:1014E00003000F3300D063E6237C5A0700D15FE688
:1014F0005B0700D55CE639002000FFF7EDFC050036
:10150000E0E039002000FFF741FDF8E71C230199D6
:101510004B43BA49CB18197D490700D58EE021000D
:101520002C3109781B6901395B0A19400291092A9B
:101530000AD10A2380272375BF00A368DB19A360A3
:10154000A389DB1BA38133E01C25019B20005D43A5
:10155000AA4B5D196B6819010909FEF75EFF029B32
:10156000C7182B693800DE0523003C331978F60DC7
:101570000393FEF701FE002800D185E08023A789B0
:101580009B009B1B9F4200D91F009D4B227D18781A
:101590009C4B400286199C483618A06800283FD111
:1015A0009A49A0810E600B2A02D11B680A3A1A716F
:1015B000238A019ADB1923821C2353438F4AD318B1
:1015C0001A69BF181F61227DF905C90D0B2A03D1C5
:1015D0009A68974200D99F608A4B1B68002950D1B6
:1015E0009971029B0133029323002C331B78029ADA
:1015F00093420FD81C23019A5343804AD318DA79B7
:1016000010092FD1A289002A18D1187D0432024373
:101610001A750291A389002B96D1012323750AE63E
:101620000A2A04D13A0031000BF031FE85E701228D
:101630001B6801001A7130003A00F5E71C23019A7B
:1016400053436E4AD3181A7D120706D5237D0A2B01
:10165000E3D02000FEF70BFF51E720005968FEF7AA
:10166000F4FE4CE70F25013800012A400243DA71ED
:101670005A6810011030120F0009120702435A6015
:10168000C7E7E27B9A71C5E7002E3ED18026A38989
:10169000B600B34224D3A268002A25D0217D236856
:1016A0000B2913D120001B699847051E0ADB23680C
:1016B0003900DD6820000123A268A8473700051E15
:1016C00000DB3AE76B1C00D072E5B4E509219D68A8
:1016D0002175012339002000A847051EF2DBAAE589
:1016E0002A69AB689A4210D3237D0B2B0DD12000C1
:1016F000FEF782FD0500431C00D059E5414B039ADB
:101700001B6812781F605A7195E539002000FEF7BA
:1017100099FDF4E639002000FFF7D2FB051E0ADA36
:10172000431C00D187E5002302003B750F3200D037
:101730003EE5238271E7637BFBE739002000FEF77B
:10174000A5FEDCE6210000232C4A3C31107D01334C
:10175000400603D5567D0878864214D01C320C2BE7
:10176000F4D11323237522000021294B3C32187930
:10177000002803D016785879864220D001310833EA
:101780000429F4D114E5E373122391692375BDE7AD
:101790003800FEF7D3FC060006F016FD1C22019B64
:1017A000F0825A43154B001430839B189B68F361F9
:1017B000237D122B00D1FBE400233B75D1E72000F1
:1017C000FEF7FCFC9BE60E4B0F4A1B785B029B1856
:1017D000198C104A914200D0D3E062685E8F91B2BA
:1017E000100C8E4202D19E8E8642E5D0012259878E
:1017F0009886044B1B681A71DEE7C0464808002033
:10180000C4110020C0110020A00900209809002068
:10181000A01100202E2E00001C23012601995B4AF6
:101820004B435B49D3189B7D09785B0149025B18E8
:101830005849594809681B180E713F218C46E5210B
:1018400066461970D97A31400F2909D12033190021
:101850004140C905F3D139002000FFF7BEF84EE63C
:10186000217D1C2308290DD101994B43D118097DF5
:10187000C906A1D5182120002175D158FEF7CDFD4C
:10188000010043E701994B43D3581B011E09002B6C
:1018900092D01623237531002000A660FEF7CDFDFF
:1018A000EEE7A368200019000193FEF763FE00280D
:1018B00001DA050006E703011E09002B04D1237D90
:1018C000162B00D074E477E7002220000199FEF780
:1018D0002BFE324B9E42F2D8DDE70F230021237509
:1018E00014E72000FEF7CEFC051E00D0EAE62C4BE4
:1018F0001B68002B00D15BE422003C3201211078F0
:10190000984755E4224B244A1B7800215B029B1820
:1019100080222089920066899D185F681A683A4380
:101920009F683A43DF683A4306D01F6A9A6AD21B1F
:101930008A4201D91100049701389B19002803DD60
:101940001A0080329542E8D800291CD00F23049950
:101950002375DBE61C22019B5A430C4B9B180C4A57
:101960009B7D12785B0152029B180B4A9B18DA8A06
:1019700022811B8B6381FFF71BFC13256D42FFF750
:1019800017FC1525FAE70B25F8E7C04648080020A4
:10199000C4110020C0110020A0090020F7FFFF0F94
:1019A0009C09002070B504000A4DA4002868FFF7C8
:1019B000EBFB6868FFF7E8FB63591A7D101E05D042
:1019C000012A04D100221A751020185E70BD012072
:1019D0004042FBE7F4E400000300002083420CD007
:1019E0000C2B0BD81C22013B5343074A9B181A7D32
:1019F0005206D10F824204DB197570470E20404217
:101A0000FBE71720FBE7C04648080020030010B59D
:101A100000282CD01C22411E4A4317498A18117DE8
:101A20004906C80F00290EDA517D1448890008586C
:101A3000017D00291DD1C3731123018203759169B2
:101A4000FEF700FC10BD0E4A91798B4200D19071D7
:101A5000917B8B4201D100219173917D8B4201D109
:101A600000219175917F8B4201D100239377002053
:101A7000E8E701204042E5E748080020F4E40000E0
:101A8000A011002010B50400002084420DD00C2CC1
:101A90000CD82000FFF7BAFF002806DB1C20013C11
:101AA0004443044824180020207510BD0E204042F5
:101AB000FBE7C0464808002010B504001C230800BE
:101AC000611E4B4315495B18197D890722D0197D8A
:101AD000C9061FD4002A08D0022A15D19A68002806
:101AE00002DA4142914213D880185A7D0C49920083
:101AF0005258117D00290DD19B6898420AD80D23B8
:101B0000D4731375906010BD012A03D11A69E6E7FA
:101B10000020EAE701204042F5E7C04648080020DF
:101B2000F4E40000431E1C205843064BC018037DFC
:101B30009B0704D0037DDB0601D480687047012039
:101B40004042FBE748080020431E1C2058430B4B33
:101B500010B5C018037D9B070DD0437D084A9B003C
:101B60009C5881692000FEF76DFB431C02D11723AE
:101B70000020237510BD0E204042FBE748080020DE
:101B8000F4E40000F0B51C24451E6C431E4D64199E
:101B90000325267D2E40012E31D10D35AC46257D05
:101BA000A444ED062BD4657D184FAD00ED592F7D73
:101BB000002F27D1A960E8732F820A2B11D1A168C9
:101BC0002069814214D9091A8A4200D90A00802169
:101BD00049028A420FD301225242AA8100202B756A
:101BE000F0BD614608794021014360460171EEE78E
:101BF000AF813300F2E7AA81002AEFD1F9E70E2086
:101C00004042EDE70120FBE748080020F4E4000033
:101C100010B50A23FFF7B6FF10BD0000164970B5D6
:101C20000A00012403250B7D2B4205D001341C3111
:101C30000D2CF8D10D2009E0002813DD1C230138FC
:101C4000584313181E7D2E4202D10E20404208E058
:101C50001D7DED06F9D512580E750A605B7D4B753A
:101C6000200070BD431CF0DB044B40428000C05894
:101C7000FEF74CFDF4E7C04648080020F4E40000FD
:101C8000F0B5060085B008001D000292FFF7C6FF00
:101C9000071E45DB6B1C03D130000BF0E8FC050090
:101CA0001C237A1E53432F4A9B180193012D3ADDC2
:101CB00073783A2B37D132781300413B192B00D976
:101CC000203B012B45D8284A9B009C5801992000B5
:101CD000023D0236FEF71AFD237D0393002B3BD114
:101CE0002300032231331B78134237D0029B20009C
:101CF0002573A660E7732374FEF7ABFEC0B2607372
:101D0000002816D104230299029A19401A4227D1B9
:101D10000722029B1340032B22D00123218223752B
:101D2000380005B0F0BD019B0F4A5B7D9B009C58BD
:101D3000D2E703230122237520000199FEF764FFF7
:101D4000431CEDD0039B23750023019A07001375F4
:101D5000E6E70C204042F7E70120FBE70320F9E724
:101D60001420F7E748080020F4E4000070B50C00E8
:101D7000FFF754FF00280FDB1C22431E5A431100BB
:101D80000726064B1031C9180D799B18B5432E0054
:101D9000062535430D719C7470BDC046480800206F
:101DA000F0B585B0009003910192002844D01C2525
:101DB0000322441E6C43244BE418237D1340022B62
:101DC0003AD1019B0C2B3ADD637D204A9B009F5842
:101DD0003B7D0293002B34D1FFF720FF061E24DB4E
:101DE000431E5D43184B019AED186368013A6B601E
:101DF000A37DAB75E37DEB75039B3A73BB60009BE2
:101E000004227B74A37CF8733B740C233B75237D05
:101E100013420DD09343237529003800FEF7B8FD17
:101E2000431C02D00600029B2B75300005B0F0BDAC
:101E3000AB7D0133AB75F8E70E267642F5E7102649
:101E4000FBE70126F9E7C04648080020F4E400005B
:101E500070B504001000627500221D00FFF72CFE13
:101E6000002802DA2368984770BD00202575FBE73B
:101E70000022084B08491A804032DA76D9829A76D5
:101E8000FFE7591CC87F9A754032DA76813AC0B2B2
:101E90001A807047800000608080FFFF0B4B0C4A67
:101EA00010B5DA824022C0B218749A76C04609484A
:101EB0009A75C02458838020C9B29876DC7519744D
:101EC0009A76C0469A75D87610BDC04680000060EC
:101ED00080C0FFFF8080FFFF0D4B0E4AC0B2DA8248
:101EE000402218749A76C0460B499A75812059830E
:101EF0000021C00119808031D97558839A76FFE797
:101F0000581CC07F9A75413AC0B2D9761A80704782
:101F10008000006080C0FFFF8080FFFF8022C02122
:101F2000054BC0B29A76D975803918749976C04637
:101F30009975DA767047C0468000006010B50824B5
:101F4000FFF796FF2042FBD110BD000010B58124A1
:101F500010210C20FFF7A2FF094A0A4B1278E40176
:101F6000002119804031DA755C839976FFE70648D5
:101F7000C07F99754139DA761980C106F0D510BD58
:101F800058D80000800000608100006070B50D002E
:101F90000400FFF783FF290A601CFFF77FFF70BD75
:101FA00070B50500140003889B205943FFF7EEFF2E
:101FB0002988AF206143FFF7E9FF10219020FFF748
:101FC0006DFFFFF7BBFF70BD70B5436804001D7A5D
:101FD0005A7A4D1BEDB2AA422CD3997A99206943C3
:101FE000FFF7D4FF61680B7A5B19202B04D1230023
:101FF0002C331E78002E01D14D19EE7AA268138879
:1020000092889B18228D9B1A002B13DD9E4200DDC7
:10201000DEB23100B120FFF7B9FFAD20218DFFF70F
:10202000B5FF238D10219E1990202685FFF736FFDE
:10203000FFF784FF70BD70B515000400FFF7A6FF21
:102040002900A01CFFF7A2FF70BD70B50D000400B1
:10205000090CFFF723FF290A601CFFF71FFF290067
:10206000A01CFFF71BFF70BDF7B50C0040258027B3
:102070000D4B01920D4EDE82E6B21E749D76C04677
:10208000C0220B4E9D755E83461A365D9F76DA75CB
:102090001E749D76C046019A013456189D75361BF4
:1020A000DF76002EE6DCF7BD8000006080C0FFFF19
:1020B0008080FFFF10B52024BA20FFF70DFF2042DB
:1020C000FAD1B820FFF708FF10BDF7B505001C1EB8
:1020D0000091019200D0202410262F0026433100C9
:1020E000B920FFF7DBFE0621B820FFF7D7FE21005D
:1020F000B920FFF7D3FE0421BA20FFF7CFFE31004D
:10210000B920FFF7CBFE0221B820FFF7C7FE280C4D
:10211000FFF704FF280AFFF701FF2800FFF7FEFE84
:10212000009E019BB8205B1BD95D013EFFF7B6FE08
:102130000137002E02DDFF231F42F2D10425BA2011
:10214000FFF7CAFE2842FAD02100B920FFF7A6FE09
:10215000009B981BFEBD8023F7B51B0205001400F1
:10216000994201DB42043BD0802220272B051B0D26
:102170005201D31A0193002C00D0202410262643AC
:102180003100B920FFF78AFE0621B820FFF786FE4E
:102190002100B920FFF782FE0421BA20FFF77EFE5E
:1021A0003100B920FFF77AFE3900B820FFF776FE3C
:1021B000290CB820FFF772FE290AB820FFF76EFE3F
:1021C0002900B820FFF76AFE0425BA20FFF784FE35
:1021D0002842FAD02100B920FFF760FE0198FEBD29
:1021E00052270193C7E710B50622A7210400FFF785
:1021F0003BFF9220FFF770FE03239843A37B184315
:10220000C0B2FFF78BFE10BD10B506220C00932163
:10221000FFF72AFF9220FFF75FFE9F21640108402D
:102220002043FFF77BFE10BD70B51E0005000C00BB
:1022300010009179FFF7E8FF3100049A9920FFF729
:10224000FAFE2800FFF7CFFF08222000AD21FFF79C
:102250000BFFC2219120FFF721FE10219020FFF7F4
:102260001DFEFFF76BFE70BD70B515000C00FFF78B
:10227000BAFF2900D220FFF7E8FE0C219120FFF7DA
:102280000DFE08222000AD21FFF7EEFE1021902068
:10229000FFF704FEFFF752FE70BD000070B543600B
:1022A000049B0400C360059B15000160826003610C
:1022B0001422002114300BF006F80222064BE461D0
:1022C0006361631DDA772B88200023856B88638523
:1022D0000023A38570BDC046C91F000083681A880B
:1022E00002855B884385704710B50A2902D1FFF744
:1022F000F5FF10BDFFF768FEFBE7000037B50400EF
:102300000E4D0F4B2800AB60FFF7E8FF2A69A96864
:102310002868FFF7A9FF2800FFF7E0FF094B0A4AEA
:102320001C70023C63426341948B00226343009221
:102330000649074A0748FFF777FF37BD1804002012
:10234000BCE400009204002084E400009CE400004F
:102350008CE10000C02D002010B504000068FFF7DC
:1023600042FFAF20618DFFF711FE01216068FFF78A
:102370004BFF00219B20FFF709FE6368B320D9883B
:10238000FFF704FED220E168FFF75FFE23002D3344
:102390001B78002B0BD0E1680F24C943D520FFF731
:1023A00054FEF02191202143FFF778FD10BD2169F3
:1023B0000E24F3E70EB477B5040007AD40CDFFF768
:1023C000CBFF20002A0031001430019508F016FEE2
:1023D0007EBC08BC03B0184770B505000C00FFF7C1
:1023E000BBFF0134631E1978002903D02800FFF7D2
:1023F000EBFDF6E770BD000070B51D004360049B67
:102400000400C360059B1600016082600361142212
:10241000002114300AF057FF02220A4BE461636185
:10242000631DDA7733882200238573882C32638515
:102430000023A3852B7A2000ED1A3035EB7A137038
:1024400070BDC046E9220000F7B504000F001E0071
:102450001D000192B919491B002D0DDD019BA28CB5
:10246000F3185B1B534322002387236820001B685B
:1024700036329847013DEDE7F7BD00000023F0B587
:1024800089B004000393994204DBC36903938B4230
:1024900000DD0391261D3000A17CFFF7B5FE002171
:1024A0009920FFF773FD3000FFF79DFE0021AD205E
:1024B000FFF76CFDA28CB120618FFFF7BCFDC2213C
:1024C0009120FFF7EBFCA18C03980AF0E1F8256A54
:1024D0002A23E75E854262DDC71BFB43DB171F40F3
:1024E000EB1B05932822A35E059A934210DD013B66
:1024F00004939D1A002D0ADB20002900049A243041
:10250000FFF74EFD049B013D013B0493F2E7059B61
:10251000002239002000FFF797FF27620021236A7D
:10252000A58C61815D43039B5D1B404BA5811B68AE
:102530009E4258D12A002620FFF77DFD208A039B6A
:102540003E385843A361E369E1695B08C0180AF0AB
:1025500015F8E389A58906AF343B3B80344B451918
:1025600007937D80FFF7F2FC0023324A0093390085
:102570003000FFF759FE3022A35EAB420CD04BDA9D
:10258000EA1A3B2A00DD3C22FA80390030002A4A50
:102590007B80FFF769FE2586012009B0F0BD431B53
:1025A0007A009342BADDC31B04935D1B2822A35E0D
:1025B000AB420CDD2F0020007A1B39002430FFF7DE
:1025C000EFFC2822A35E0137BB42F4DC2B0028225B
:1025D000A15E0498CA1A0918C91A2000FFF734FF2F
:1025E000049B23629AE7154F3B689E4203D0144B2D
:1025F0001B689E42A2D11020FFF76EFCEF2318400B
:102600003B68F31A5A1E93411B011843FFF786FCDF
:102610002A00002134208FE75A1B3B2A00DD3C2290
:1026200092B23C33FA809B1AAFE7C04644080020C0
:1026300032003C000CE30000313031003C08002047
:1026400034080020F7B52D4E0500300001910BF045
:102650000EF8002805D0421EB35C2F2B01D05C2B56
:1026600045D12B006C6D60331880206B00930AF00D
:10267000FEFFE0862000FFF731FE216B2000FFF710
:10268000ABFE2068278DFFF7AEFDD2202169FFF752
:10269000DCFC0C219120FFF701FCA36839005A886B
:1026A000AD20FFF7C8FCA368B120DA8819889B88A1
:1026B000C918C91BFFF7BFFC10219020FFF7EEFBE4
:1026C000FFF73CFC622169564B1C0FD0009B019820
:1026D00012221B88002800D1023A30004942FFF73D
:1026E000CFFA074B002804DA1B689847F7BD1000A3
:1026F000AFE70F2258751A75F8E7C046A406002008
:102700007C2B0020012270B515008D400400633041
:1027100003782B43DBB22500037000206235285676
:1027200001301FD11800084106001640104208D1A0
:10273000002B1DD03100134203D1134102211A4056
:10274000891A0023EB568B420CD0E36D29700021CF
:10275000144A11708B4201D00220984700212000BA
:10276000FFF770FFE36D002B01D00120984770BD8B
:102770000D49E284A1652E22A15E0222511AA28C8B
:102780004A43002A0BDBE2618023DB0500212000A5
:10279000A3612362FFF772FE01214942D1E7E361A1
:1027A000F2E7C046A406002084D8000037B5040034
:1027B000056908224D43416868460AF068FD237D9B
:1027C0002068AD0D002B19D06B46DB881A00AB4298
:1027D00000D92A009B1A95B26A466946D380E268FE
:1027E000FFF742FD6B466A465B88D580EB18538045
:1027F000A26869462068FFF737FD37BD6B469B88A6
:10280000AB4200D92B009DB26B46A26869469D8001
:10281000FFF72AFD6B466A461B88EB181380636836
:102820009B885D1B9580E268E3E7000070B527494F
:1028300002000B78022B13D0032B20D0012B3FD1A9
:102840002348013300680B70002809D08025C46834
:10285000816820482D0245608460FFF7F9FA70BD59
:102860001D4B1B68002B0AD00320DC680870996898
:10287000E02318481B04436084600223EDE7002432
:102880001000FFF7A9F8154B30211C70B920FFF795
:1028900005FB0B21B820FFF701FBFE20FFF73EFBF5
:1028A000FE200002FFF73AFBFE200004FFF736FB94
:1028B0002000FFF733FB0A4B1B68D8680CF0E4FDDF
:1028C000FFF78AF8074808F01BFBC8E791040020CF
:1028D000A00400207C2B00209C040020001000405D
:1028E000A404002059D80000F7B50F000500114CD2
:1028F0000193A06020000092FFF7F0FC0E4E3A001A
:1029000031002000FFF756FD2B0020000833A360A4
:10291000FFF7E4FC3100009A2000FFF74BFD103573
:102920002000A560FFF7DAFC31002000019AFFF7D4
:1029300041FDF7BD1804002095DD00008023F0B5AF
:102940009B0014008BB0994200D0ADE0614B42680F
:1029500019685B680391049303688B4200D0A3E07D
:10296000049B9A4200D09FE003690493022B00D895
:102970009AE0C268836806920022C31803920699FF
:10298000591805918021059F890041188F4200D375
:102990008AE01968504FB9425AD0504FB94209D015
:1029A0004F4FB94200D077E059689C460891022108
:1029B0000A430BE0D9680D00802189028D4200D9BD
:1029C00072E059681D00079101210A43072A62D16C
:1029D000444F3B78022B47D1434BE9681D60434B82
:1029E0001B78002B03D162465268032A36D0624618
:1029F000D2688918002B02D17368012B30D0F3689C
:102A0000C91862463A4B1A603A4B1E603A4E327D04
:102A10007368002A26D0D8884B088005181809F05A
:102A2000ADFD0021354B306130001960FFF7BEFE6F
:102A30000122334B33481A70FE22EB681204A96856
:102A40004260836022000223FFF702FA0BB0F0BD60
:102A500059681E00099104210A43B7E79C46CBE759
:102A60000026CEE79888D7E72000FEF7B5FF3B7831
:102A7000022B02D00220FFF741FC0023224A0093E0
:102A800022492348FFF7D0FB099B089A0799214860
:102A9000FFF72AFFDAE7059B039901310391039FB2
:102AA0000499B94200D06AE72000FEF795FF0D4B6C
:102AB0001B78032B02D00320FFF720FC164C174B8A
:102AC0002000A360FFF70AFC20001549FFF784FCF3
:102AD000BCE7C0467CD800005DF5B08E3064B4BC65
:102AE0007447D73E92040020A404002090040020E4
:102AF000A00400209C040020000400209804002072
:102B0000910400207C2B0020ECE40000C4E40000D1
:102B1000C02D0020CCE4000018040020BCE400001C
:102B200063D8000070B5037D0400002B75D0427D92
:102B3000002A13D01C23013A5343BC4A9B18587DEA
:102B4000FEF730FF0500431C67D0002808DA002399
:102B5000A382236898470023A3825EE0807DEFE78D
:102B6000207D01381328F6D809F0FEFC1400180067
:102B70002A0030009B00A200AC00BD00D600ED0092
:102B8000020109013C014101460155017601A40100
:102B9000E801F001607DFEF7C5FFA0608022A44936
:102BA0009200607DFFF734F8002380210122A37496
:102BB0006068033323750902FFF7CDFAE0812CE04A
:102BC0000023A58123820433237526E0B920FFF773
:102BD00083F9050010202843FFF7A0F90521B8204C
:102BE000FFF75CF90021B820FFF758F9FFF762FA08
:102BF000FFF760FA29000600B920FFF74FF901231B
:102C00001E420AD1A189002902D0A268002A05DC4F
:102C10000023607DA382FFF709FE70BDE289606832
:102C2000002A03D180211A000902C5E7A67C228A66
:102C30007F4D7602B2185219FFF747FAA36882B2A5
:102C40001B1AA36063681B186360238AD31823824E
:102C5000A3899B1AA381E3899B1AE381754B1B7897
:102C6000002B0ED0744B1A6881188020734A1960AB
:102C700013684001CB1A834203D971481160FFF7F2
:102C800095FDA389002BC8D101218022A37C607D02
:102C90005940A174490269189200FEF7B9FF032355
:102CA00092E70023A17D6748A382FFF72BFDB4E7DD
:102CB0008022607D5E499200FEF7AAFF0023A38177
:102CC000073381E7002D36D029005F4801F092FEDE
:102CD00000282FDB0023A081281A554D636040197E
:102CE000A060083370E7584D6168280001F002FECB
:102CF000031E01D0606090E72800A289A16801F05E
:102D0000B5FE051E17DB8022607D5049A58192002B
:102D1000FEF77EFF0A2357E7002D0CD0A2894A4810
:102D2000002A03D04A492B00891AE8E713004049DA
:102D30002A00E4E70500607DFEF74EFE29004248C8
:102D400001F0E4FE07E7002DF5D0A3893F495A19A9
:102D5000C91A3D48002301F089FE051EEBDB8022E5
:102D6000A0813349607D9200FEF752FF09232BE7D3
:102D700001F00AFF00236060A3600C3324E763893D
:102D800061682B4E072B08D1324D30004D1B2A00B5
:102D90000AF07DFA00237119638122892A48531CA5
:102DA00023810D0001F0FEFE6389011E08D1590246
:102DB00071180B23607D6A1AFEF7E4FE0D2303E70A
:102DC0005A1C5202B2189042E7D380225902606026
:102DD0000B23607D71189200FEF7D4FE63890133E6
:102DE00063811AE7607DFEF74DFE0E23ECE60023BB
:102DF000A38201F01DFF10E71821607DFEF7B6FFEA
:102E00000500607DFEF73EFE00236381084B65757B
:102E100063601023D8E680226168607D093152002A
:102E2000FEF7BEFF1123A075CEE6C046480800207D
:102E3000C811002091040020980400209404002070
:102E400000040020A82B00205C2D0020C8130020C7
:102E5000C8150020C81F0020002D20D1607DFEF77E
:102E6000BBFD3E4D61892E22AB5EAA8CCB1A01338D
:102E70005343E984002B10DB3948EB614B00C01A47
:102E80000222384B0AF05FFA8023DB05002128007C
:102E9000AB612B62FFF7F2FA5DE60023ECE7A07D61
:102EA0002581FEF73FFE65682860A07DFEF74CFE99
:102EB000122389E61C20A27D2B4E013A424392192F
:102EC000527D2A49920052586368926828495A6094
:102ED0006589234AED436D00AD18A27D591A013A68
:102EE00050433618327D89B2D206D00F002A23DA39
:102EF0005A7A2E2A1ED19A7A002A10D05A892E2A5E
:102F000018D12C3A1A72032229806389023D0133B9
:102F1000638123890D3393436268D3186360A07D76
:102F2000FEF75AFD61686A1A0C3A0C2A96DD607D3C
:102F3000093175E70122E5E71872E4E78022607D38
:102F40000C499200FEF764FE14233DE60023627DE7
:102F500029000848A382FFF7F1FC5EE6A82B0020B9
:102F6000C82100200101000048080020F4E400000E
:102F7000C811002000020020F7B5B64A01231168ED
:102F800008001840194209D11360B34B0090019317
:102F9000B24AB34BB349B448FFF72EFA0125B34BFD
:102FA0001A682A420DD11D60B14BB24C0193B24B4D
:102FB00020000093B14AB24BAA492D34FFF71CFA06
:102FC00025700122AF4B196811420AD11A608C2377
:102FD0000193AD4BAD4A0093AD49A94BAD48FFF706
:102FE0005DF90124AC4B1A68224200D11C60AB4B46
:102FF0001A681100214022420FD1A94D1C60A94E30
:10300000A94B0091019332009D4B28009549FFF791
:10301000F3F92B002D331C702E630125A34B1A6886
:103020002A4210D11D60FF23A14CA24E0193904B68
:10303000320000932000924B9F49FFF7DDF92300F7
:103040002D331D70266301259C4B1A682A4210D12E
:103050001D608C239A4C9B4E01938B4B3200009346
:103060002000874B9849FFF7C7F923002D331D70C7
:103070002663964B01251A6816002E402A422AD153
:10308000934C1D608C4B200023607D4B10226360AD
:10309000904B3100A360764B1830E360FF2323612F
:1030A0000AF011F902228C498C4B21632B216361B8
:1030B000631DDA777F4BA1861A8CA11C22855A8C5E
:1030C000CE87DB8C211D6285A685E461CA87A21D9F
:1030D0000834D587E387824B01261A6817003740EA
:1030E000324229D17F4C1E607F4B20002360644B0D
:1030F0007E4D63605E4BA560E360FF231022236179
:10310000390018300AF0DFF80222744BA78563619A
:10311000631DDA77764A2B882263FF222385A286F5
:103120006B88A21CD787221D6385D387A31DDE87EA
:10313000EB88E4610834E38701226E4B1968114281
:103140000AD11A60FF230193494B6B4A00936649E9
:103150004B4B6A48FFF750F9694A01231168080090
:103160001840194209D11360414B00900193654A00
:10317000654B66496648FFF791F80125654B1A686B
:103180002A420DD11D60644B644C0193384B2000E2
:103190000093634A5C4B33492D34FFF72DF92570BA
:1031A000604B01261A6817003740324229D15E4C25
:1031B0001E605E4B20002360314B5D4D63602C4BE5
:1031C000A560E360FF2310222361390018300AF064
:1031D0007AF80222414BA7856361631DDA77444A7E
:1031E0002B882263FF222385A2866B88A21CD787A7
:1031F000221D6385D387A31DDE87EB88E461083435
:10320000E38701224B4B196811420AD11A60FF2350
:103210000193174B484A00934449194B4748FFF71D
:103220003DF80122464B1968114211D11A60454BF5
:103230003E4A3F491A60FF2212029A600C4AC88F28
:10324000DA60414A5A608A8F8242924152421A752C
:10325000F7BDC046FC01002000FFFF009CE100001C
:10326000DCE50000482C002004080020F8010020C4
:10327000FFFFFF00D407002084828400B4E1000037
:10328000FCE40000F4010020D6D3D6006CE100007D
:10329000942B0020A4070020F0010020EC01002066
:1032A000300600203CE20000FFFFC600E8010020DD
:1032B000FC05002024E40000342D0020E40100205F
:1032C000C805002054E40000482D0020E001002043
:1032D0008005002044E4000078060020C91F00009B
:1032E000DC01002038050020202D0020D4E3000060
:1032F000A4060020D80100200CE4000008050020EE
:10330000D40100200CE1000004E60000682B00203E
:10331000D8040020D00100204A4D2900A804002034
:1033200064E20000CC01002048040020C02D0020F1
:1033300084E40000C8010020A4E400001804002078
:10334000C401002000040020BCE4000010B504000B
:103350000100024807F0C4FD200010BDAADA0000F9
:10336000002310B5D41A002C03DDCC58C45004330C
:10337000F8E710BD70B51600144A04001060918083
:10338000D680134A10200D001370FEF7A5FD102300
:1033900098430300802040421843C0B2FEF7BEFDB0
:1033A000290032002A20FEF746FE1120FEF794FD88
:1033B000F322A37B10409B001843FEF7AFFD0E22C3
:1033C0002E212000FEF750FE70BDC0463C080020B4
:1033D0009527002070B51600124A040010609180F5
:1033E000D680114A10200D001370FEF775FD502392
:1033F0001843C0B2FEF792FD320029002A20FEF7E2
:103400001AFE1120FEF768FD03239843A37B18439F
:10341000C0B2FEF783FD0E222E212000FEF724FE0F
:1034200070BDC046340800209427002010B510203D
:10343000FEF752FD40239843FEF770FD0022014B3A
:103440001A6010BD3408002010B50C00FEF7CBFE4A
:1034500008222000AD21FEF707FEC2219120FEF7D1
:103460001DFD10219020FEF719FDFEF767FD10BD30
:1034700070B516000D000400932130000A22FEF7FB
:10348000F3FD9220FEF728FD9F22B37B10405B01E5
:103490001843FEF743FD29002000FFF7D5FF70BD5C
:1034A00013B58C88634300240094FEF7BDFE13BD62
:1034B00030B544680200257A637A491BC9B20020FE
:1034C0008B4208D36D18202D03D12C3210780028A0
:1034D00001D16118C87A30BD10B504000269816855
:1034E0000068FEF7C1FE2000FEF7F8FE10BD70B5C3
:1034F00004000D000068FEF776FE2169D220FEF779
:10350000A4FD0C219120FEF7C9FCA36829005A886C
:10351000AD20FEF790FDA368B120DA8819889B885A
:10352000C918491BFEF787FD10219020FEF7B6FC55
:10353000FEF704FD70BD4368197A5A1A5B1A3032DF
:103540002D33D27ADB7AD31A028D9B18038570470C
:1035500070B50B7805000C002D2B01D1FFF7EBFFA8
:103560002800FEF7F9FE0134631E1978002903D004
:103570002800FEF7B9FEF6E770BDF8B504001600A6
:103580001F00069B0D008360FEF7A8FE2000FFF7DA
:10359000A3FF002300223000390009F08DF9030059
:1035A0000020834210D1002200233000390009F0AE
:1035B00089F9002802D02000FFF7BDFF32003B0050
:1035C00029002000FEF7F6FEF8BDF8B5040015004E
:1035D00083600F00FEF782FE20002E00FFF77CFFC5
:1035E000002D09D002DA2000FFF7A5FF2A003900DC
:1035F0002000FEF7DFFE06003000F8BD2E22835EBD
:10360000C184C91A838C01315943002901DBC1618E
:1036100070470023C361FBE770B50D00046A2821E1
:10362000435E1B19013BAB420DDB94420BDC2100D6
:10363000AC4200DA2900934200DD13005B1A01332B
:103640000A1BFEF701FF70BD70B5056A848C0B0084
:1036500061439D420CDC2826825F52199A4207DDA5
:1036600082698A4204DC038A1B1BC91A8A4201DA76
:10367000FEF704FF70BD0000D0B51F00134B16000D
:1036800054331B7804000022002B0FD0104B300065
:10369000390008F018FD0F4A2062616230003900DD
:1036A0000D4B08F010FDA062E162D0BD0B4B300065
:1036B000390008F008FD0022A062E1623000390004
:1036C000074B08F000FD20626162EEE7EC2A002063
:1036D0000000594067B3D96C369B68400088B340FE
:1036E00000D8A340F7B504000F000026C38EC58F95
:1036F0000193019BAB420BD9236B2000595DFFF76F
:10370000D7FE43089B19BB4202DC36180135F0E7AF
:103710002800FEBDF7B504000D00838F0093836879
:10372000009E1F889B88DB190193019B9B19AB426C
:1037300009D8E38F20005A1CE287226BD15CFFF787
:10374000B7FE3618F1E7BB19AB420CD3002E0AD0F6
:10375000E38F226B013B9BB2E3872000D15CFFF734
:10376000A7FE361AEFE7009B9E420BD0E18F236B3A
:1037700020005918A6872785FEF72EFE2000218DF0
:10378000FFF7B5FEA18FA31C6D1A2100ADB22585F0
:10379000034ADD8720684031FEF766FDF7BDC0466D
:1037A00000FFFF0070B50D0001000400028D831CB6
:1037B000DA87403102690068FEF756FD29002000D3
:1037C000FFF7A8FF70BDF8B5C68E04008E4200D981
:1037D0000E0000252F006687B54207D0236B20001E
:1037E000595DFFF765FE01353F18F5E7A368200036
:1037F0001988C919FFF7D6FFF8BDF8B50025066B83
:103800000400C56330000F0009F031FF3900E08685
:103810002000FFF767FF07000136731E19780029A3
:1038200004D02000FFF744FE2D18F5E7A368390007
:103830001B88258720002385FFF7C5FFF8BD10B53D
:1038400004000021FFF7BFFF2100228DA31CDA87AF
:10385000206822694031FEF707FD10BD10B5040055
:103860000800FFF7ECFF002307492370086898421F
:1038700007D0CA888988FFF7ADFD0022034B1A6084
:1038800010BDFFF7D3FDF8E7842700209027002024
:103890000B00F0B5203B040085B05E2B3FD8C68EF0
:1038A000838E0125B34243D9CDB22900FFF700FE34
:1038B000238F07001B182387238D206B0193638FB1
:1038C0009E421ED9C118F21A01330132C01809F004
:1038D000E7FC638F226B2000D554618F236B59184E
:1038E000FEF77AFD638FA18F01336387E38E013387
:1038F000E386019BC918C9192000FFF70BFF0025BB
:1039000016E0C554226B638F2000D31800225A7032
:10391000FEF722FD29002000FEF756FBE2E7002516
:10392000AB2905D8A22906D8082913D00D290DD016
:10393000280005B0F0BDA33908000829DFD808F039
:10394000F5FD63DEDE68DEDEDE3F5300FFF777FF66
:103950000225EDE70025468FAE42E9D0076B731EC6
:10396000FA18F95C0192FFF7A3FD218DE28E0B1A84
:1039700002936B461B89039396421CD2921BB91982
:103980000198013209F08CFC039B618F2385236B26
:10399000013920005918FEF71FFD218D2000FFF787
:1039A000A6FDE38EA18F013BE386638F013B638716
:1039B000029BC918A0E7039B2385019B1D70ECE7C0
:1039C0000025638FAB42B3D0013B9BB2226B638770
:1039D000D15C2000FFF76CFD218D091AA08F09181A
:1039E0002000FFF7DFFEA3E7638FE28E00259A42F7
:1039F00000D89DE75A1C6287226B2000D15CFFF73C
:103A000057FD218D0918E9E700212000FFF7DBFEB3
:103A100075E7E18EF9E700000E4B020070B50E4825
:103A20001C68844214D00D4DAC4211D00C4DAC42F8
:103A30000ED00C4C60CB60C40B4B1A6001220B4BB8
:103A400019600B4B1A700023E2321900FFF7C2FC19
:103A500070BDC04634080020342C00200C2C0020FF
:103A6000202C002084270020902700208C27002075
:103A70008027002010B50400080011001A0001235F
:103A800049425B42FEF7FCF8002802DA23689847B7
:103A900010BD029B607523750020F9E710B58165A4
:103AA0004B1E99410400FFF7A9FD8023DB0500218F
:103AB0002000A3612362FEF7E1FC10BD030070B596
:103AC00063331B78050018000841012204001440EC
:103AD000104223D1002B1AD0134203D113410224E8
:103AE0001340E41A2B00002262339A56A2420CD0F3
:103AF00000221C700A4B1A70EB6D934201D0022019
:103B0000984700212800FEF79DFD200070BD01248C
:103B100028000449FFF7C2FF6442E3E70C00E1E735
:103B2000A406002084D8000010B50A4C00290BD14F
:103B300001222100824063310B78200093430B70F7
:103B400062216156FFF7BAFFE36D002B01D001201F
:103B5000984710BDA82B002010B504002200104B80
:103B600010480F3212D15A7B002A0FD01A7B002A3C
:103B70000CD005220C49DA72FFF790FF02230B4AA2
:103B80000B490C48FFF78CFC200010BD0622DA72AE
:103B9000E343094A9B009958FFF780FFF4E7C046CA
:103BA0005C2D0020A82B002032DB000094E10000F7
:103BB000FCE30000202D002020DD000003000A00AF
:103BC00070B5050051CA51C3143111CA11C30800A0
:103BD0000C0009F04CFD421C280021001430FFF7B6
:103BE000BFFB280070BD0023036043608360C36097
:103BF0000361037570470000F7B5C0241E4A6402D4
:103C00002388002B03D093422FD04034F8E7E7B24B
:103C10003D007B1CFF33194E01932B88184A013B52
:103C20009BB2934223D829003000FFF7C7FF019BC6
:103C3000403540369D42F0D10026124D6308EB61BD
:103C4000114B2B803A880C4B9A4209D00B4BB91977
:103C5000F018FFF7B3FF2B7DDB07FCD50B4B2B8058
:103C6000802340365B009E42ECD12000FEBD012344
:103C70005B423380DBE7C046FFFF0000C811002035
:103C8000FDFF00000040004102A5FFFF04A5FFFF6B
:103C9000054B4000C35A054A0548934202D0C02252
:103CA000520298187047C04698230020FFFF00007A
:103CB00064060020FA23F7B500911A4A86880400AA
:103CC00017005B009E422AD2174B914202D0C022BD
:103CD00052028B1800251B8801932F000135BE422C
:103CE00006D93800FFF7D4FF019A03889342F4D92C
:103CF000F21B0E4E7B00680099195200801909F0E2
:103D0000CFFA009A7B009A5301232000A1885B42DE
:103D1000013189B22381A1801030FFF76FFC380098
:103D2000FEBDC046FFFF000064060020982300206F
:103D300070B50D00104EC1880400C580B14203D09B
:103D40000A001030FFF768FCB54214D02800FFF7D6
:103D50009FFF0A4B01881A006C32118001227833D0
:103D60001034290020001A802A00FFF755FC290092
:103D70002000FFF769FC70BDFFFF0000EC2A002067
:103D800070B5154D04002B88002B24D00022002391
:103D90006868A96808F090FD00280DD00022002373
:103DA000E868296908F088FD002805D06B88002B99
:103DB00002D12B7D002B0ED008492000FFF77AFF9F
:103DC000010005002000FFF7B3FF2000A288691C56
:103DD0001030FFF721FC70BD64060020FFFF0000DB
:103DE000F8B505000E0000248788A74210D92000EE
:103DF000FFF74EFF0388B34208D121002800FFF7E8
:103E000097FF01235B422B812000F8BD0134ECE7D2
:103E1000004CF9E7FFFF00000E4B0122DB8E10B5CE
:103E2000002B07D00C4CE35C2F2B03D05C3B5A4299
:103E30005341DAB2002902D1437B934209D00323D4
:103E40004273002A00D1037B044A05490548FFF765
:103E500027FB10BD38050020A306002094E10000D8
:103E6000FCE30000202D002070B50C4D2800FFF76A
:103E70000FFD0B4E040000213000FFF7CDFF022C98
:103E80000AD129000748FFF7E9FC737B002B03D018
:103E900000210548FEF7D6FB70BDC046380500205E
:103EA0005C2D0020672D0020A82B0020002110B5DC
:103EB0000400C1720348FFF7F1FD01212000FFF764
:103EC000ABFF10BDA82B002070B5C37A04000D0015
:103ED000042B01D9FFF7EAFF03232900E37204480A
:103EE000FFF78BFC00210348FFF796FD70BDC0462D
:103EF00038050020693E0000F8B50F4B62241A0017
:103F0000633217781C570223FA0701D563426341D5
:103F10000A4E0B4D320028000A49FFF7C1FA02236E
:103F20001F4202D0013C634263413200280006492F
:103F3000FFF7B6FAF8BDC046A82B002094E20000B7
:103F4000202D0020DCE30000E4E30000010070B558
:103F5000012825D0022812D0002806D1124CE57A7B
:103F60002000042D02D8FFF757FF70BDFFF79EFF1A
:103F7000052DFAD120000D49FFF7A6FFF5E70A4C01
:103F8000E37A032B03D10A490A48FFF767FC0A4B7F
:103F900062331B785BB2013302D02000FFF786FF4B
:103FA000FFF7AAFFE1E7C0465C2D002010270000C4
:103FB00038050020672D0020A82B0020002337B5EE
:103FC0001A0019001E48FFF7D5F9E4201D4A1E4BC0
:103FD0001E4C1A601E4BFF3063651E4BA18CE365BF
:103FE000208208F0CBFA002375221900E0851A48D8
:103FF000FFF7F0F90321194A1368526831331B782F
:104000000192313212780B40581E83410A4201D08E
:10401000022213432200622563321370104B114AAF
:1040200020001A6065572900FFF748FD854205D139
:10403000FFF762FF00212000FEF704FB37BDC046FA
:10404000202D0020593B00007C2B0020A82B0020B5
:10405000380500204D3F0000AC2B0020F4E40000A8
:104060009C090020293B000010B5020002490348CA
:10407000FEF7A0F910BDC0469CDD0000D80400206A
:1040800010B504007B20FDF7D6FF601E8441074871
:10409000074B61420140C918D220FDF7D6FFC0216D
:1040A0007620FDF7FBFEFDF749FF10BD0130410012
:1040B000FFCF8400094B10B51C0054336B342478B7
:1040C0001B78A34205D0944204D1054A054B07F062
:1040D000FAFF10BD044A054BF9E7C046EC2A002060
:1040E0000A8542A15028A43F666666666666394026
:1040F000F8B50F0019000D4B060054331B78100063
:10410000002B03D000220A4B07F0DDFF32003B00FA
:1041100004000D0008F0E0FB002801D134003D0050
:10412000290000222000FFF7C5FFF8BDEC2A00207F
:1041300000002440F7B5274E0400330054331B78A9
:104140000D00254F002B00D1244F01226868A9687B
:10415000FFF7B0FF0B00216B0200083100915436CD
:1041600039002000FFF709FA33781D4E002B00D1EB
:104170001C4EE86829690122FFF79CFF0B00216BA8
:1041800002001831009120003100FFF7F6F9164EB9
:104190002A883100236B2000FFF717FA236B6A8807
:1041A000310020001033FFF710FA236B200020337A
:1041B000A3602600FEF792F82000FFF78DF9002398
:1041C00029002C363778200033701431FEF704F9BB
:1041D0003770F7BDEC2A0020B9DA0000BFDA000022
:1041E000C5DA0000CBDA0000D1DA000010B5C37ADE
:1041F0000400032B03D110490B30FFF72FFB0F4BAB
:104200000F4A10481A6000231A001900FFF7B2F88D
:1042100000232000190014307522FFF7DBF8E08836
:10422000094B0A49984202D0FFF732FD01000848C5
:10423000FFF780FF10BDC046380500207C2B002012
:104240004D330000342D0020FFFF000064060020E5
:1042500030060020F7B5194F0C00BB881600051D6D
:104260008B4215DDFB888B4202D1154B154ADA6073
:104270002000FFF70DFD124C01002000FFF75AFF50
:104280003100114B114AE3602800FFF7F1F8F7BD48
:104290008C2231002800FDF7E7FFBB889C42F6D155
:1042A000002CF4D008223100684608F0F0FF6A467E
:1042B00001236946D380054AE6E7C0465C2D00200D
:1042C000C8050020FFFFFF00D6D3D600482D0020F0
:1042D00010B50300024A03490348FFF7E1F810BD97
:1042E000CCE300004CE40000342D002070B51B4DE1
:1042F000C3880400AB422FD00289194EAA4227D0AE
:10430000C02300205B02D052164B174A1A800123AB
:104310005B422381FFF7DCFF8022236892029342F5
:1043200002D21B88AB4203D02000FFF765FC20605F
:104330000E492068FFF742FC0A4B0B4A0C491A80D1
:10434000E2882368520059184033B152236003E0D9
:104350005B00F35AAB42DFD070BDC046FFFF0000E8
:10436000982300200040004104A5FFFF64060020C0
:104370000080FFFF10B504490400FFF79BFCE080BC
:104380002000FFF7B3FF10BDFFFF0000002313B5AF
:104390000400019200930A00024B0349FEF72CF837
:1043A000200016BDFCE40000482C0020F8B5184F92
:1043B000184E3B78022B1AD1174B1B783D2B16D188
:1043C000164B1D685C681648FFF786F80023154AEF
:1043D0003B70137020227370134B327013481F3AD6
:1043E00064001A70FFF778F828006108F8BD300003
:1043F00006F070FD084B05001B780C003D2B04D126
:104400000B00020005490A604B6002233B70DAE7AB
:10441000DD21002022010020200100206023002057
:104420004C220020DC210020210100201C22002041
:10443000F7B50400FC224F007F080D002000390072
:104440001F4B120608F052FA1E4E002807D120001A
:1044500039001D4A1D4B08F035FA00280ED0002205
:1044600000232000290008F027FA194A00281ED04E
:1044700030230120337000233354FEBD002220007E
:104480003900144B08F03CFA134A00280FD12B00D6
:1044900022000B21009201933000104A06F04AFDE1
:1044A00003001800013BF25C302AFAD0E3E7200059
:1044B0002900009001910B21300006F03BFDDCE764
:1044C00083D79741DE210020F168E388B5F8E43E08
:1044D000D5DA00000000F03FDADA0000DFDA000091
:1044E000F8B50022002304000D0008F0E5F90028CB
:1044F00021D129002000FFF79BFF0F490F4E0B78B9
:10450000421C30002D2B02D020230D48337008F0C0
:10451000BEFE0C4F3800FEF7DFFF31003800FFF71A
:1045200017F8094B1B783D2B02D1084B1C605D60CE
:104530000222074B1A70F8BDDE2100202201002064
:10454000230100204C2200202001002060230020B5
:10455000DD210020F0B58BB00790AE4BC088AE4E89
:10456000984202D0FFF794FB0600AC4F31003800B0
:10457000FFF7E0FD3100AA48FFF7DCFDA94B1A0068
:10458000186E596E6B32543312781B78934206D0F2
:10459000002A00D12EE1A44AA44B07F094FDA44BBD
:1045A0000200009338000B00A249FEF7E6FF9D4C85
:1045B000A14D230054331B78002B00D19F4DA06DDB
:1045C000E16D0122FFF776FD0B009D49020000918D
:1045D00092482900FEF7D1FFB36877680293002262
:1045E00000233800029908F067F9002839D1236EBA
:1045F00000220493656E00232900049808F05CF9FA
:10460000002800D0FBE08F4A8F4B2900049807F068
:104610005AFD029B3A0007F07FFC029003916B3435
:1046200023780024002B00D0E7E0884D7D4B6833D1
:10463000188808F09DFC22002B00070004910298C6
:10464000039907F040FD049B040002930D00020053
:104650000B003800029908F03FF9002801D127002B
:1046600002950299380008F0E1F9794D6B4C02008F
:1046700029002000774BFEF7A8FF6A4B0122986DB6
:10468000D96DFFF717FD04900591708808F040FC84
:10469000049A059B089009913800029907F013FDD0
:1046A00002000B000898099907F00DFD08F0BEF90B
:1046B000694B020029002000FEF787FF0F225021DE
:1046C0006648FDF7D1FC0F2277201100FDF7B3FCFF
:1046D000079B01259C7A022723002B4018001921F3
:1046E0005F4A27400893FFF7CBFC3800431E9841F0
:1046F000AF215B4AC0B2FFF7C3FC0423234018007C
:104700000493F522431E98416421C0B25200FFF782
:10471000B7FC08232340180007939122431E9841B9
:104720006421C0B29200FFF7ABFC4E4B0022B1688F
:10473000706807F0C8FC2A00FFF7BCFC089B0D005E
:104740000290002B5DD1391E03D0802307001B0689
:10475000E9183A000B004448FEF78EFF314F3B004A
:104760006A331B78002B02D080231B06ED18079BB1
:10477000002B48D080231B06ED182B00029A3B48E3
:10478000FEF77AFF0122F0683169FFF793FC3B00E6
:104790006A331B78002B02D080231B06C9183B000C
:1047A00057331B78002B01D1180019000025020097
:1047B0000B002F485637FEF75FFF3B78AB4209D01E
:1047C000002200237068B16808F076F8A84201D191
:1047D000C6252D040023A20700D02B00254A5360D4
:1047E0000C231C40631E9C41234B644225405D60AA
:1047F0000BB0F0BD214A224BCFE6224D16E7049FB5
:104800002EE7029FA5E7049B002BB6D11D00029363
:10481000B3E7C046FFFF000064060020300600201A
:10482000FC050020EC2A002091F2A3FC283F0A405E
:1048300074E200006FDE0000CBDA0000E4DA000072
:104840007CE2000083C8C96D305FD43F000028407F
:10485000EADA000084E200008CE20000482C00202C
:10486000170200000000E03F2C2E0020C02E002088
:10487000542F0020D42D0020682E0020FC87F4DB6C
:10488000D781D33F00408F4070B50D00054C20000C
:10489000FFF72CFD29002000FFF74AFA2000FFF760
:1048A00059FE70BD5C2D002070B50D4D2800FEF73F
:1048B000EFFF02280ED10B4C0B4BE18899420AD135
:1048C0002000FFF75DFA2000FFF744FE29000748AB
:1048D000FEF7C4FF70BD0A000548FEF79DFEF2E733
:1048E000800500205C2D0020FFFF0000672D0020C8
:1048F0006C2D002070B5002901D1C021490280250E
:104900000131FF31AD024A1EFF3A140013001E6848
:10491000013606D0084B5208DA61084A1A80200096
:1049200070BD04338B42F2D1591CFF31AB42EAD344
:10493000FFF720FD0024F2E70040004102A5FFFF41
:1049400013B500220800019101A908F043FF019B63
:10495000264C2080581C01901B782C2B02D0022062
:10496000404216BD01A906F021FB019B6060581C66
:10497000A16001901B782C2BF1D101A906F016FB48
:10498000019BE060581C216101901B782C2BE6D123
:10499000002201A908F01EFF019B6080591C0191B3
:1049A0001A782C2ADBD15A781148222A19D10021F1
:1049B00002330193019A531C01931378222B04D1E3
:1049C0005378222B0BD1023201924354002B02D098
:1049D00001312A29EED100203F342070C1E70023A5
:1049E000F3E72B2208F04AFEF5E7C04664060020F4
:1049F00078060020F8B51A4F0A0006000D003800AE
:104A00000D2108F02BFC041E03D101256D42280066
:104A1000F8BDC21B272AF8D13800124908F029FC3A
:104A2000071EF2D10134283D2A000D21200008F094
:104A300015FC0028E9D007700130001B2D1A210059
:104A40003000FFF77DFF0028DFDB074B1A005432F0
:104A500012786B331A70C0235B023360B780D6E7DD
:104A6000C8110020A3DB0000EC2A0020F0B585B0BF
:104A700006000D0014000393002B27D0224F1A00CC
:104A80000D21380008F0EAFB002839D0002303701C
:104A9000C01B431C0193EB1A22002900180002934B
:104AA00008F0FEFB029B3900019A181908F0EFFB91
:104AB00030000299FFF744FF00281FDB3000FFF7AA
:104AC00059FC019B019ADD19039B9C1A22000D21C0
:104AD000280008F0C3FB00280FD00023471B0370F9
:104AE000290030000137FFF72BFF002806DB3000DC
:104AF000FFF740FCED19E41BE8E7200005B0F0BD2E
:104B000001204042FAE7C046C811002070B50400F9
:104B10008B1C08D04B1C0CD106231649C3721648B7
:104B2000FEF7BCFF70BD06231449C3721248FEF79E
:104B3000B5FF134D01222B0078331A80802320000B
:104B4000DB05A362236300211030FDF797FC0D48BD
:104B5000FFF749F801235B42E3806C352988200088
:104B6000FFF73EF92000FFF7F5FC2000FFF73EFBC2
:104B7000D8E7C04685DB0000A82B00205EDB0000E4
:104B8000EC2A00206406002010B5292202490348BF
:104B900008F07DFB024810BDA3DB0000C811002017
:104BA000F1110020F0B583880D00002087B09342FA
:104BB00029D91000FFF76CF8040001226068A16891
:104BC000FFF778FA012206000F00E0682169FFF77D
:104BD00071FA638822880290039100960197280059
:104BE0001149049306F0C8F922262D181434310017
:104BF000200008F02EFD002807D1220028000B49D4
:104C000006F0BAF9281807B0F0BD0023001B421CBB
:104C1000E15CE954190001338842F9D1A41802304B
:104C2000AA1816702D18E2E7EEDA000000DB00008B
:104C300010B500210148FDF705FD10BDA82B00208F
:104C40000068C003C00E0C2801D90C38704700283A
:104C5000FCD10C30FAE70000F0B587B00490059164
:104C6000037B002B00D187E01626444C05AD2000C5
:104C7000FDF734FB2800FFF7E3FF172729786E4480
:104C80008906890E33783288039129886F44090593
:104C9000890E0190029139783948890809189B06D4
:104CA0009205DB0E120F009120003649FDF782FBC2
:104CB000230000222C331A70059B3349DB03DB0EE3
:104CC0000B2B00D831492000FEF742FC2000302198
:104CD000FEF7EEFB2C34049B2070DB7A042B4BD1C7
:104CE0002B4C2C4B2000A360FDF7F8FA3088800590
:104CF000000FFFF7B9F9284B2000A360FDF7EEFA8B
:104D000030788006C00EFFF7AFF9244B2000A36077
:104D1000FDF7E4FA387880081430FFF7A5F9204B46
:104D20002000A360FDF7DAFA2800FFF789FFFFF7FC
:104D30009BF91C4B2000A360FDF7D0FA28880005E2
:104D4000800EFFF791F9184B2000A360FDF7C6FA1B
:104D500028788006800EFFF787F9144B2000A360A7
:104D6000FDF7BCFA059B1249DB03DB0E0B2B00D8C9
:104D700010492000FDF730FB07B0F0BD080500200A
:104D8000E40700000EDB000006DB00000ADB000089
:104D9000D80400200CE1000014E100001CE1000038
:104DA00024E100002CE1000034E100003CE10000BF
:104DB00007DB00000BDB0000F0B585B00392C67A7C
:104DC00004000D00012E40D1072909D0092900D087
:104DD00093E00020BE4BE0721870FFF779FA8CE088
:104DE000C5882800FEF754FFBA4B2E00984226D102
:104DF000FEF7F9FEA288B84B013A92B26800A28091
:104E0000811C521BC918C018520008F049FAA38827
:104E1000AB4204D86E1E31002000FEF789FF25004A
:104E200010352800A188FEF7E9FBA2882800310090
:104E30000132FEF7F1FB2000FFF78CFBC9E70023EE
:104E4000A64A0380A64B1A80D4E7002957D1A54B68
:104E50001B78002B51D0FFF7A9FA0022A24B0600C5
:104E60000F0007F039FD002801D100269E4F3900C0
:104E7000300007F0DBFD05002000FFF737FA2900BE
:104E80002000FEF7ADFF994A030090421DD19849DA
:104E9000984A0968914223D1E0888E4E984218D0F2
:104EA000002D16D18C4A41008A5A9A4205D0FEF74D
:104EB000EFFE01003000FEF781FE20008B493580B7
:104EC000FEF736FF2000FEF75BFF2000FFF742FBF6
:104ED00013E03388002BF0D03000FEF784FEECE7BF
:104EE000854C864B2000A360FDF7F8F92000FEF703
:104EF000F3FA20008249FEF72BFB05B0F0BD06292E
:104F000000D933E1774B1B78002B14D1042912D040
:104F1000C088764A6F4B904202D0FEF7B9FE03007C
:104F2000681E0528E9D807F015FBC300BD00C900BD
:104F3000E8FF0D01CD00FFF739FA07000E00042D40
:104F40001FD8E088694A90421BD0634943005B5AEE
:104F5000934216D0FEF79CFE01005E48FEF72EFE3F
:104F6000634A644B12689A4213D1E3885A4A5B0041
:104F70009A5A594922810122022052425A52FFF77D
:104F8000A7F9A81E04282CD807F0DAFA10353F66D6
:104F9000590000234F4A5B481380026B1370FEF7E1
:104FA0009BFA20005149FEF7C3FEEAE700223800D1
:104FB0003100554B07F090FC002801D10027524EDC
:104FC0003800310007F06EFF424B5880E188474BB4
:104FD000994200D176E720000A001030FEF71CFB52
:104FE00073E74A4B38003100494AFFF781F8394BE3
:104FF00058609960EAE7474B38003100464AFFF7AE
:1050000077F8344BD8601961E0E7444B3D4D198C7B
:10501000039B591AE37A022B09D002232800E3727A
:10502000FEF7EBFB00213E48FEF7F6FC65E72800A3
:10503000FEF758FB01002800FEF7C5FB5DE7394A83
:10504000394B38003100FFF753F80122374B986590
:10505000D96578331A80B9E7002238003100344B23
:1050600007F03AFC002801D10700314E2F4D2B00EC
:105070002A006B3354321B7812789A4209D0002BE5
:105080000DD12C4A2C4B3800310007F01CF80700DA
:105090000E0001222F666E6678352A8096E7274A31
:1050A000274BF0E7588807F063FFFFF719FA24E76A
:1050B000012258689968FEF7FDFFF6E70122D868DB
:1050C0001969F8E7194B0122986DD96DF3E7C046CD
:1050D00095270020640600209823002004A5FFFFE8
:1050E00000400041DD21002000388F40FFFF00001C
:1050F0003C080020342D0020300600203CE2000057
:1051000029DB00008005002000C058407CFF2340C0
:10511000736891EDEFFF58400E2DB29D24E400001E
:10512000A94800001EA7E8482EFFEF3FEC2A002008
:105130008087C34091F2A3FC283F0A40FC87F4DB40
:10514000D781D33FBC4B1A00186E596E6B32543363
:1051500012781B789342A8D0002A04D0B74AB84BE3
:1051600006F0B1FFA1E7B74AB74BF9E7C81F0D2812
:1051700000D9C2E607F0F8F90E00260055006300DA
:10518000D0000A018800C2003E014701150122013A
:105190002A0135012000FFF7A9F8E37A022B04D198
:1051A0002000AA490B30FEF759FB1020FCF794FEB3
:1051B00080239843FCF7B2FE0022A54B1A60FEF74D
:1051C00035F99AE6E388A34A934203D1A248FEF751
:1051D0000AFD7AE6A14D5B005B5B93421FD12289F9
:1051E0009A421CD09C48FEF7FEFCE38822895B00B3
:1051F0005A5301232000E1885B4223810A001030CA
:10520000FEF70AFA0020FFF763F8E37A022B00D0DA
:105210005BE620008D490B30FEF720FB55E60120B0
:10522000D8E52000FFF762F8E37A022B04D12000D2
:1052300086490B30FEF712FBFEF7C0FE5DE6E08804
:10524000844B984214D0854D4200525B9A420FD055
:10525000FEF71EFD01008048FEF7B0FCE388022047
:105260005B005A5B2281012252425A53FFF730F809
:105270000025764E336B30001D70FEF72DF90223AA
:1052800029003000E372CBE60027042E00D934E673
:105290000123734E734D3200280073497B402773FE
:1052A000FEF7FEF83B00320028007049FEF7F8F8E0
:1052B000637B002B05D13B0028006D4A6D49FEF74A
:1052C000EFF8FF226C4E002F1AD031000026280084
:1052D000FCF7CAFF33002800684A69490096FCF7CA
:1052E000A3FF33002800674A67490096FCF79CFF3C
:1052F000664B20001969FFF7AFFCFEE50127C4E704
:1053000028006149FCF7B0FF3B0031002800604AEB
:105310000097FCF789FFF0E5032E0BD120005D49D3
:105320000B30FEF79BFA637B5B4D002B0FD0002107
:10533000280009E0042EF6D92000FEF7B7FD052E5F
:1053400000D0DAE501215448FDF77CF9D5E5237B4F
:10535000524E534C002B13D02E21200008F079F927
:10536000002803D120004F4908F066F90B23622280
:10537000AA560093023B21003000FEF77BFBBCE500
:1053800006236222AA5600930233F4E7042E04D9BE
:1053900045492000FEF798FDAFE52000FEF726FF07
:1053A000ABE5424B1988039B591A032EF1D1394CB6
:1053B0002000FEF797F9010020003DE60025354862
:1053C000036B1D70FEF788F82900E2E732480021E0
:1053D000030063331B78DB0700D48EE5FEF76EFB1A
:1053E0008BE52D48030063331B789B0700D484E5CD
:1053F0000121F3E7052E00D17FE5237B002B00D1AF
:105400007BE5042E08D10023752219002848FDF7FA
:10541000E1FF0023E37270E5032E04D120001D4953
:105420000B30FEF71BFA0023752219002148FDF707
:10543000D1FF0423E3725BE7EC2A002091F2A3FC86
:10544000283F0A40FC87F4DBD781D33F800500204A
:105450003C080020FFFF0000640600209823002085
:1054600094E20000202D0020ECE30000F4E30000B3
:1054700094E10000FCE300001CE40000C4E3000031
:1054800004E40000BCE3000014E400000014004049
:105490007CE1000038050020A82B00207C2B002098
:1054A000A40600202DDB000010270000D4E300003C
:1054B000AC2B0020682B002037B5050006281ED035
:1054C000FEF774FF07F0B2FA0300052D09D1464A32
:1054D000904201D8133A8318444A9A183F2A02D9B5
:1054E00037BD3B28FCD8424C22690192062D10D8CA
:1054F000280007F025F80616203C465059000023E6
:10550000F1E73F210B40180001AA13788B430343B6
:105510001370019B2361A37ADB09FCD1354B6380B7
:10552000DEE73F2001AA18403349138880010B4071
:1055300003431380EDE7019A1F20D5032F49ED0E99
:105540000B2D0BD91D0005400B2B02D80C331D0071
:1055500005402D030A4015430195DAE70C2B00D1D5
:105560000023184000030A4002430192D1E76A4633
:105570001F203E211840937940008B4303439371D1
:10558000C7E76A460F201E491840D38880010B40A8
:105590000343D380BDE76A460321D0791C339B00C7
:1055A00008400343D371B4E701A8FFF749FB019B0F
:1055B0001F25D903114AC90E0B290BD80100294018
:1055C0000B2802D801000C3129400903134019436C
:1055D00001919EE70C2800D10020284000031340D1
:1055E0001843019095E7C046E30700001CF8FFFF51
:1055F0000014004010C0FFFF3FF0FFFFFF0FFEFF51
:105600003FFCFFFFF7B5E64A012311680800184088
:10561000194209D11360E34B00900193E24AE34B36
:10562000E349E448FCF7E8FE0125E34B1A682A4207
:105630000DD11D60E14BE24C0193E24B2000009341
:10564000E14AE24BDA492D34FCF7D6FE25700122FF
:10565000DF4B196811420AD11A608C230193DD4B8C
:10566000DD4A0093DD49D94BDD48FCF717FE0124E4
:10567000DC4B1A68224200D11C60DB4B1A68110017
:10568000214022420FD1D94D1C60D94ED94B0091F7
:1056900001933200CD4B2800C549FCF7ADFE2B002D
:1056A0002D331C702E630125D34B1A682A4210D16A
:1056B0001D60FF23D14CD24E0193C04B32000093AA
:1056C0002000C24BCF49FCF797FE23002D331D70FD
:1056D00026630125CC4B1A682A4210D11D608C2309
:1056E000CA4CCB4E0193BB4B320000932000B74B0A
:1056F000C849FCF781FE23002D331D702663C64B7D
:1057000001251A6816002E402A422AD1C34C1D607A
:10571000BC4B20002360AD4B10226360C04B3100B6
:10572000A360A64B1830E360FF23236107F0CBFD95
:105730000222BC49BC4B21632B216361631DDA77D4
:10574000AF4BA1861A8CA11C22855A8CCE87DB8C8C
:10575000211D6285A685E461CA87A21D0834D5870C
:10576000E387B24B01261A6817003740324229D12D
:10577000AF4C1E60AF4B20002360944BAE4D636076
:105780008E4BA560E360FF2310222361390018309F
:1057900007F099FD0222A44BA7856361631DDA77A8
:1057A000A64A2B882263FF222385A2866B88A21C2F
:1057B000D787221D6385D387A31DDE87EB88E4612D
:1057C0000834E38701229E4B196811420AD11A60FE
:1057D000FF230193794B9B4A009396497B4B9A4850
:1057E000FCF70AFE994A0123116808001840194283
:1057F00009D11360714B00900193954A954B9649DE
:105800009648FCF74BFD0125954B1A682A420DD1AD
:105810001D60944B944C0193684B20000093934A75
:105820008C4B63492D34FCF7E7FD2570904B01222A
:1058300018680100114010420BD180201A608D4B76
:10584000C00098805881A938FF38196098819A73F0
:105850001961894B01261A6817003740324229D155
:10586000864C1E60864B20002360584B854D63603C
:10587000524BA560E360FF231022236139001830EA
:1058800007F021FD0222684BA7856361631DDA776B
:105890006A4A2B882263FF222385A2866B88A21C7A
:1058A000D787221D6385D387A31DDE87EB88E4613C
:1058B0000834E3870122744B196811420AD11A6037
:1058C000FF2301933D4B714A00936D493F4B704854
:1058D000FCF7E4FC01226F4B1968114211D11A60E8
:1058E0006D4B674A67491A60FF2212029A60334A79
:1058F000C88FDA60694A5A608A8F82429241524266
:105900001A750122664B1968114214D11A60654953
:10591000654A6648FEF73AFD654A66496648FEF7FD
:1059200035FD614A65496648FEF730FD604A6549C4
:105930006548FEF72BFD654A0123116808001840F1
:10594000194209D113601D4B00900193604A614BCD
:1059500017496148FCF750FD604A012311680D00AA
:105960001D40194200D0C5E05D4C13602000104B73
:105970005C4E2360154B10226360104B290023619D
:10598000A660E560183007F09EFC0222564BE461E9
:105990006361631DDA773388A5852385A6E0C04659
:1059A000FC01002000FFFF009CE10000DCE500009E
:1059B000482C002004080020F8010020FFFFFF0011
:1059C000D407002084828400B4E10000FCE40000DD
:1059D000F4010020D6D3D6006CE10000942B002007
:1059E000A4070020F0010020EC0100203006002078
:1059F0003CE20000FFFFC600E8010020FC0500209B
:105A000024E40000342D0020E4010020C80500201B
:105A100054E40000482D0020E00100208005002013
:105A200044E4000078060020C91F0000DC010020CB
:105A300038050020202D0020D4E30000A40600201B
:105A4000D80100200CE4000008050020D40100204B
:105A50000CE1000004E60000682B0020D8040020C0
:105A6000D00100204A4D2900A804002064E2000073
:105A7000D821002068230020CC0100204804002009
:105A8000C02D002084E40000C8010020A4E4000030
:105A900018040020C401002000040020BCE4000021
:105AA000D42100201CE20000EFEBFF007C2200204C
:105AB000D6FFD60024E20000B42200202CE2000031
:105AC000EC22002034E2000024230020D02100201A
:105AD000FCE100006CE500004C220020CC210020FD
